{
  "_format": "hh-sol-artifact-1",
  "contractName": "ERC721Template",
  "sourceName": "contracts/ERC721Template.sol",
  "abi": [
    {
      "inputs": [
        {
          "internalType": "string",
          "name": "_name",
          "type": "string"
        },
        {
          "internalType": "string",
          "name": "_symbol",
          "type": "string"
        },
        {
          "internalType": "string",
          "name": "_contractURI",
          "type": "string"
        },
        {
          "internalType": "uint256",
          "name": "_maxSupply",
          "type": "uint256"
        },
        {
          "internalType": "uint256",
          "name": "_publicPrice",
          "type": "uint256"
        },
        {
          "internalType": "string",
          "name": "_defaultBaseURI",
          "type": "string"
        },
        {
          "internalType": "string",
          "name": "_notRevealedURI",
          "type": "string"
        },
        {
          "internalType": "address payable",
          "name": "_withdrawalRecipientAddress",
          "type": "address"
        },
        {
          "internalType": "address payable",
          "name": "_comissionRecipientAddress",
          "type": "address"
        },
        {
          "internalType": "uint256",
          "name": "_fixedCommisionTreshold",
          "type": "uint256"
        },
        {
          "internalType": "uint256",
          "name": "_comissionPercentageIn10000",
          "type": "uint256"
        },
        {
          "internalType": "address payable",
          "name": "_defaultRoyaltyRecipient",
          "type": "address"
        },
        {
          "internalType": "uint256",
          "name": "_defaultRoyaltyPercentageIn10000",
          "type": "uint256"
        }
      ],
      "stateMutability": "nonpayable",
      "type": "constructor"
    },
    {
      "inputs": [],
      "name": "ApprovalCallerNotOwnerNorApproved",
      "type": "error"
    },
    {
      "inputs": [],
      "name": "ApprovalQueryForNonexistentToken",
      "type": "error"
    },
    {
      "inputs": [],
      "name": "BalanceQueryForZeroAddress",
      "type": "error"
    },
    {
      "inputs": [],
      "name": "MintERC2309QuantityExceedsLimit",
      "type": "error"
    },
    {
      "inputs": [],
      "name": "MintToZeroAddress",
      "type": "error"
    },
    {
      "inputs": [],
      "name": "MintZeroQuantity",
      "type": "error"
    },
    {
      "inputs": [],
      "name": "NotCompatibleWithSpotMints",
      "type": "error"
    },
    {
      "inputs": [
        {
          "internalType": "address",
          "name": "owner",
          "type": "address"
        }
      ],
      "name": "OwnableInvalidOwner",
      "type": "error"
    },
    {
      "inputs": [
        {
          "internalType": "address",
          "name": "account",
          "type": "address"
        }
      ],
      "name": "OwnableUnauthorizedAccount",
      "type": "error"
    },
    {
      "inputs": [],
      "name": "OwnerQueryForNonexistentToken",
      "type": "error"
    },
    {
      "inputs": [],
      "name": "OwnershipNotInitializedForExtraData",
      "type": "error"
    },
    {
      "inputs": [],
      "name": "SequentialMintExceedsLimit",
      "type": "error"
    },
    {
      "inputs": [],
      "name": "SequentialUpToTooSmall",
      "type": "error"
    },
    {
      "inputs": [],
      "name": "SpotMintTokenIdTooSmall",
      "type": "error"
    },
    {
      "inputs": [],
      "name": "TokenAlreadyExists",
      "type": "error"
    },
    {
      "inputs": [],
      "name": "TransferCallerNotOwnerNorApproved",
      "type": "error"
    },
    {
      "inputs": [],
      "name": "TransferFromIncorrectOwner",
      "type": "error"
    },
    {
      "inputs": [],
      "name": "TransferToNonERC721ReceiverImplementer",
      "type": "error"
    },
    {
      "inputs": [],
      "name": "TransferToZeroAddress",
      "type": "error"
    },
    {
      "inputs": [],
      "name": "URIQueryForNonexistentToken",
      "type": "error"
    },
    {
      "anonymous": false,
      "inputs": [
        {
          "indexed": true,
          "internalType": "address",
          "name": "owner",
          "type": "address"
        },
        {
          "indexed": true,
          "internalType": "address",
          "name": "approved",
          "type": "address"
        },
        {
          "indexed": true,
          "internalType": "uint256",
          "name": "tokenId",
          "type": "uint256"
        }
      ],
      "name": "Approval",
      "type": "event"
    },
    {
      "anonymous": false,
      "inputs": [
        {
          "indexed": true,
          "internalType": "address",
          "name": "owner",
          "type": "address"
        },
        {
          "indexed": true,
          "internalType": "address",
          "name": "operator",
          "type": "address"
        },
        {
          "indexed": false,
          "internalType": "bool",
          "name": "approved",
          "type": "bool"
        }
      ],
      "name": "ApprovalForAll",
      "type": "event"
    },
    {
      "anonymous": false,
      "inputs": [
        {
          "indexed": true,
          "internalType": "uint256",
          "name": "fromTokenId",
          "type": "uint256"
        },
        {
          "indexed": false,
          "internalType": "uint256",
          "name": "toTokenId",
          "type": "uint256"
        },
        {
          "indexed": true,
          "internalType": "address",
          "name": "from",
          "type": "address"
        },
        {
          "indexed": true,
          "internalType": "address",
          "name": "to",
          "type": "address"
        }
      ],
      "name": "ConsecutiveTransfer",
      "type": "event"
    },
    {
      "anonymous": false,
      "inputs": [],
      "name": "ContractURIUpdated",
      "type": "event"
    },
    {
      "anonymous": false,
      "inputs": [
        {
          "indexed": true,
          "internalType": "address",
          "name": "previousOwner",
          "type": "address"
        },
        {
          "indexed": true,
          "internalType": "address",
          "name": "newOwner",
          "type": "address"
        }
      ],
      "name": "OwnershipTransferred",
      "type": "event"
    },
    {
      "anonymous": false,
      "inputs": [
        {
          "indexed": true,
          "internalType": "address",
          "name": "from",
          "type": "address"
        },
        {
          "indexed": true,
          "internalType": "address",
          "name": "to",
          "type": "address"
        },
        {
          "indexed": true,
          "internalType": "uint256",
          "name": "tokenId",
          "type": "uint256"
        }
      ],
      "name": "Transfer",
      "type": "event"
    },
    {
      "inputs": [],
      "name": "ERC20DiscountIn10000",
      "outputs": [
        {
          "internalType": "uint256",
          "name": "",
          "type": "uint256"
        }
      ],
      "stateMutability": "view",
      "type": "function"
    },
    {
      "inputs": [],
      "name": "ERC20FixedPricePerToken",
      "outputs": [
        {
          "internalType": "uint256",
          "name": "",
          "type": "uint256"
        }
      ],
      "stateMutability": "view",
      "type": "function"
    },
    {
      "inputs": [],
      "name": "ERC20PriceFeedAddress",
      "outputs": [
        {
          "internalType": "address",
          "name": "",
          "type": "address"
        }
      ],
      "stateMutability": "view",
      "type": "function"
    },
    {
      "inputs": [],
      "name": "ERC20TokenAddress",
      "outputs": [
        {
          "internalType": "address",
          "name": "",
          "type": "address"
        }
      ],
      "stateMutability": "view",
      "type": "function"
    },
    {
      "inputs": [
        {
          "internalType": "address",
          "name": "_address",
          "type": "address"
        }
      ],
      "name": "addToBlacklist",
      "outputs": [],
      "stateMutability": "nonpayable",
      "type": "function"
    },
    {
      "inputs": [
        {
          "internalType": "address",
          "name": "_to",
          "type": "address"
        },
        {
          "internalType": "uint256",
          "name": "_mintAmount",
          "type": "uint256"
        }
      ],
      "name": "adminMint",
      "outputs": [],
      "stateMutability": "nonpayable",
      "type": "function"
    },
    {
      "inputs": [
        {
          "internalType": "address",
          "name": "to",
          "type": "address"
        },
        {
          "internalType": "uint256",
          "name": "tokenId",
          "type": "uint256"
        }
      ],
      "name": "approve",
      "outputs": [],
      "stateMutability": "payable",
      "type": "function"
    },
    {
      "inputs": [
        {
          "internalType": "address",
          "name": "owner",
          "type": "address"
        }
      ],
      "name": "balanceOf",
      "outputs": [
        {
          "internalType": "uint256",
          "name": "",
          "type": "uint256"
        }
      ],
      "stateMutability": "view",
      "type": "function"
    },
    {
      "inputs": [
        {
          "internalType": "address[]",
          "name": "recipients",
          "type": "address[]"
        },
        {
          "internalType": "uint256[]",
          "name": "amounts",
          "type": "uint256[]"
        }
      ],
      "name": "batchAdminMint",
      "outputs": [],
      "stateMutability": "nonpayable",
      "type": "function"
    },
    {
      "inputs": [
        {
          "internalType": "address",
          "name": "",
          "type": "address"
        }
      ],
      "name": "blacklist",
      "outputs": [
        {
          "internalType": "bool",
          "name": "",
          "type": "bool"
        }
      ],
      "stateMutability": "view",
      "type": "function"
    },
    {
      "inputs": [],
      "name": "comissionPercentageIn10000",
      "outputs": [
        {
          "internalType": "uint256",
          "name": "",
          "type": "uint256"
        }
      ],
      "stateMutability": "view",
      "type": "function"
    },
    {
      "inputs": [],
      "name": "comissionRecipientAddress",
      "outputs": [
        {
          "internalType": "address payable",
          "name": "",
          "type": "address"
        }
      ],
      "stateMutability": "view",
      "type": "function"
    },
    {
      "inputs": [],
      "name": "contractURI",
      "outputs": [
        {
          "internalType": "string",
          "name": "",
          "type": "string"
        }
      ],
      "stateMutability": "view",
      "type": "function"
    },
    {
      "inputs": [],
      "name": "defaultRoyaltyPercentageIn10000",
      "outputs": [
        {
          "internalType": "uint256",
          "name": "",
          "type": "uint256"
        }
      ],
      "stateMutability": "view",
      "type": "function"
    },
    {
      "inputs": [],
      "name": "defaultRoyaltyRecipient",
      "outputs": [
        {
          "internalType": "address payable",
          "name": "",
          "type": "address"
        }
      ],
      "stateMutability": "view",
      "type": "function"
    },
    {
      "inputs": [],
      "name": "ethPriceFeedAddress",
      "outputs": [
        {
          "internalType": "address",
          "name": "",
          "type": "address"
        }
      ],
      "stateMutability": "view",
      "type": "function"
    },
    {
      "inputs": [
        {
          "internalType": "uint256",
          "name": "tokenId",
          "type": "uint256"
        }
      ],
      "name": "getApproved",
      "outputs": [
        {
          "internalType": "address",
          "name": "",
          "type": "address"
        }
      ],
      "stateMutability": "view",
      "type": "function"
    },
    {
      "inputs": [],
      "name": "getLaunchpadDetails",
      "outputs": [
        {
          "internalType": "uint256",
          "name": "",
          "type": "uint256"
        },
        {
          "internalType": "uint256",
          "name": "",
          "type": "uint256"
        },
        {
          "internalType": "uint256",
          "name": "",
          "type": "uint256"
        },
        {
          "internalType": "uint256",
          "name": "",
          "type": "uint256"
        }
      ],
      "stateMutability": "view",
      "type": "function"
    },
    {
      "inputs": [],
      "name": "getLaunchpadDetailsERC20",
      "outputs": [
        {
          "internalType": "address",
          "name": "",
          "type": "address"
        },
        {
          "internalType": "uint256",
          "name": "",
          "type": "uint256"
        },
        {
          "internalType": "uint256",
          "name": "",
          "type": "uint256"
        }
      ],
      "stateMutability": "view",
      "type": "function"
    },
    {
      "inputs": [],
      "name": "getPublicMintEligibility",
      "outputs": [
        {
          "internalType": "uint256",
          "name": "",
          "type": "uint256"
        }
      ],
      "stateMutability": "view",
      "type": "function"
    },
    {
      "inputs": [
        {
          "internalType": "uint256",
          "name": "ethPrice",
          "type": "uint256"
        }
      ],
      "name": "getRequiredERC20TokensChainlink",
      "outputs": [
        {
          "internalType": "uint256",
          "name": "",
          "type": "uint256"
        }
      ],
      "stateMutability": "view",
      "type": "function"
    },
    {
      "inputs": [
        {
          "internalType": "address",
          "name": "owner",
          "type": "address"
        },
        {
          "internalType": "address",
          "name": "operator",
          "type": "address"
        }
      ],
      "name": "isApprovedForAll",
      "outputs": [
        {
          "internalType": "bool",
          "name": "",
          "type": "bool"
        }
      ],
      "stateMutability": "view",
      "type": "function"
    },
    {
      "inputs": [],
      "name": "isRevealed",
      "outputs": [
        {
          "internalType": "bool",
          "name": "",
          "type": "bool"
        }
      ],
      "stateMutability": "view",
      "type": "function"
    },
    {
      "inputs": [],
      "name": "maxSupply",
      "outputs": [
        {
          "internalType": "uint256",
          "name": "",
          "type": "uint256"
        }
      ],
      "stateMutability": "view",
      "type": "function"
    },
    {
      "inputs": [
        {
          "internalType": "uint256",
          "name": "_mintAmount",
          "type": "uint256"
        }
      ],
      "name": "mint",
      "outputs": [],
      "stateMutability": "payable",
      "type": "function"
    },
    {
      "inputs": [
        {
          "internalType": "uint256",
          "name": "_mintAmount",
          "type": "uint256"
        }
      ],
      "name": "mintWithERC20ChainlinkPrice",
      "outputs": [],
      "stateMutability": "nonpayable",
      "type": "function"
    },
    {
      "inputs": [
        {
          "internalType": "uint256",
          "name": "_mintAmount",
          "type": "uint256"
        }
      ],
      "name": "mintWithFixedERC20Price",
      "outputs": [],
      "stateMutability": "nonpayable",
      "type": "function"
    },
    {
      "inputs": [],
      "name": "name",
      "outputs": [
        {
          "internalType": "string",
          "name": "",
          "type": "string"
        }
      ],
      "stateMutability": "view",
      "type": "function"
    },
    {
      "inputs": [],
      "name": "notRevealedURI",
      "outputs": [
        {
          "internalType": "string",
          "name": "",
          "type": "string"
        }
      ],
      "stateMutability": "view",
      "type": "function"
    },
    {
      "inputs": [],
      "name": "owner",
      "outputs": [
        {
          "internalType": "address",
          "name": "",
          "type": "address"
        }
      ],
      "stateMutability": "view",
      "type": "function"
    },
    {
      "inputs": [
        {
          "internalType": "uint256",
          "name": "tokenId",
          "type": "uint256"
        }
      ],
      "name": "ownerOf",
      "outputs": [
        {
          "internalType": "address",
          "name": "",
          "type": "address"
        }
      ],
      "stateMutability": "view",
      "type": "function"
    },
    {
      "inputs": [],
      "name": "publicMaxMintAmount",
      "outputs": [
        {
          "internalType": "uint256",
          "name": "",
          "type": "uint256"
        }
      ],
      "stateMutability": "view",
      "type": "function"
    },
    {
      "inputs": [],
      "name": "publicPrice",
      "outputs": [
        {
          "internalType": "uint256",
          "name": "",
          "type": "uint256"
        }
      ],
      "stateMutability": "view",
      "type": "function"
    },
    {
      "inputs": [],
      "name": "publicSaleStartTime",
      "outputs": [
        {
          "internalType": "uint256",
          "name": "",
          "type": "uint256"
        }
      ],
      "stateMutability": "view",
      "type": "function"
    },
    {
      "inputs": [
        {
          "internalType": "address",
          "name": "_address",
          "type": "address"
        }
      ],
      "name": "removeFromBlacklist",
      "outputs": [],
      "stateMutability": "nonpayable",
      "type": "function"
    },
    {
      "inputs": [],
      "name": "renounceOwnership",
      "outputs": [],
      "stateMutability": "nonpayable",
      "type": "function"
    },
    {
      "inputs": [
        {
          "internalType": "uint256",
          "name": "_tokenId",
          "type": "uint256"
        },
        {
          "internalType": "uint256",
          "name": "_salePrice",
          "type": "uint256"
        }
      ],
      "name": "royaltyInfo",
      "outputs": [
        {
          "internalType": "address",
          "name": "",
          "type": "address"
        },
        {
          "internalType": "uint256",
          "name": "",
          "type": "uint256"
        }
      ],
      "stateMutability": "view",
      "type": "function"
    },
    {
      "inputs": [
        {
          "internalType": "address",
          "name": "from",
          "type": "address"
        },
        {
          "internalType": "address",
          "name": "to",
          "type": "address"
        },
        {
          "internalType": "uint256",
          "name": "tokenId",
          "type": "uint256"
        }
      ],
      "name": "safeTransferFrom",
      "outputs": [],
      "stateMutability": "payable",
      "type": "function"
    },
    {
      "inputs": [
        {
          "internalType": "address",
          "name": "from",
          "type": "address"
        },
        {
          "internalType": "address",
          "name": "to",
          "type": "address"
        },
        {
          "internalType": "uint256",
          "name": "tokenId",
          "type": "uint256"
        },
        {
          "internalType": "bytes",
          "name": "_data",
          "type": "bytes"
        }
      ],
      "name": "safeTransferFrom",
      "outputs": [],
      "stateMutability": "payable",
      "type": "function"
    },
    {
      "inputs": [
        {
          "internalType": "address",
          "name": "operator",
          "type": "address"
        },
        {
          "internalType": "bool",
          "name": "approved",
          "type": "bool"
        }
      ],
      "name": "setApprovalForAll",
      "outputs": [],
      "stateMutability": "nonpayable",
      "type": "function"
    },
    {
      "inputs": [
        {
          "internalType": "string",
          "name": "_baseURI",
          "type": "string"
        }
      ],
      "name": "setBaseURI",
      "outputs": [],
      "stateMutability": "nonpayable",
      "type": "function"
    },
    {
      "inputs": [
        {
          "internalType": "string",
          "name": "newURI",
          "type": "string"
        }
      ],
      "name": "setContractURI",
      "outputs": [],
      "stateMutability": "nonpayable",
      "type": "function"
    },
    {
      "inputs": [
        {
          "internalType": "address payable",
          "name": "_defaultRoyaltyRecipient",
          "type": "address"
        },
        {
          "internalType": "uint256",
          "name": "_defaultRoyaltyPercentageIn10000",
          "type": "uint256"
        }
      ],
      "name": "setDefaultRoyaltyInfo",
      "outputs": [],
      "stateMutability": "nonpayable",
      "type": "function"
    },
    {
      "inputs": [
        {
          "internalType": "uint256",
          "name": "_erc20DiscountIn10000",
          "type": "uint256"
        }
      ],
      "name": "setERC20DiscountIn10000",
      "outputs": [],
      "stateMutability": "nonpayable",
      "type": "function"
    },
    {
      "inputs": [
        {
          "internalType": "address",
          "name": "_ERC20PriceFeedAddress",
          "type": "address"
        }
      ],
      "name": "setERC20PriceFeedAddress",
      "outputs": [],
      "stateMutability": "nonpayable",
      "type": "function"
    },
    {
      "inputs": [
        {
          "internalType": "address",
          "name": "_ERC20TokenAddress",
          "type": "address"
        }
      ],
      "name": "setERC20TokenAddress",
      "outputs": [],
      "stateMutability": "nonpayable",
      "type": "function"
    },
    {
      "inputs": [
        {
          "internalType": "address",
          "name": "_ethPriceFeedAddress",
          "type": "address"
        }
      ],
      "name": "setETHPriceFeedAddress",
      "outputs": [],
      "stateMutability": "nonpayable",
      "type": "function"
    },
    {
      "inputs": [
        {
          "internalType": "uint256",
          "name": "_erc20FixedPricePerToken",
          "type": "uint256"
        }
      ],
      "name": "setErc20FixedPricePerToken",
      "outputs": [],
      "stateMutability": "nonpayable",
      "type": "function"
    },
    {
      "inputs": [
        {
          "internalType": "uint256",
          "name": "_newmaxSupply",
          "type": "uint256"
        }
      ],
      "name": "setMaxSupply",
      "outputs": [],
      "stateMutability": "nonpayable",
      "type": "function"
    },
    {
      "inputs": [
        {
          "internalType": "string",
          "name": "_notRevealedURI",
          "type": "string"
        }
      ],
      "name": "setNotRevealedURI",
      "outputs": [],
      "stateMutability": "nonpayable",
      "type": "function"
    },
    {
      "inputs": [
        {
          "internalType": "uint256",
          "name": "_publicMaxMintAmount",
          "type": "uint256"
        }
      ],
      "name": "setPublicMaxMintAmount",
      "outputs": [],
      "stateMutability": "nonpayable",
      "type": "function"
    },
    {
      "inputs": [
        {
          "internalType": "uint256",
          "name": "_newPrice",
          "type": "uint256"
        }
      ],
      "name": "setPublicPrice",
      "outputs": [],
      "stateMutability": "nonpayable",
      "type": "function"
    },
    {
      "inputs": [
        {
          "internalType": "uint256",
          "name": "_publicSaleStartTime",
          "type": "uint256"
        }
      ],
      "name": "setPublicSaleStartTime",
      "outputs": [],
      "stateMutability": "nonpayable",
      "type": "function"
    },
    {
      "inputs": [
        {
          "internalType": "uint256",
          "name": "_tokenId",
          "type": "uint256"
        },
        {
          "internalType": "address payable",
          "name": "_royaltyRecipient",
          "type": "address"
        },
        {
          "internalType": "uint256",
          "name": "_royaltyPercentage",
          "type": "uint256"
        }
      ],
      "name": "setTokenRoyaltyInfo",
      "outputs": [],
      "stateMutability": "nonpayable",
      "type": "function"
    },
    {
      "inputs": [
        {
          "internalType": "bool",
          "name": "_tradingEnabled",
          "type": "bool"
        }
      ],
      "name": "setTradingEnabled",
      "outputs": [],
      "stateMutability": "nonpayable",
      "type": "function"
    },
    {
      "inputs": [
        {
          "internalType": "bytes4",
          "name": "interfaceId",
          "type": "bytes4"
        }
      ],
      "name": "supportsInterface",
      "outputs": [
        {
          "internalType": "bool",
          "name": "",
          "type": "bool"
        }
      ],
      "stateMutability": "view",
      "type": "function"
    },
    {
      "inputs": [],
      "name": "symbol",
      "outputs": [
        {
          "internalType": "string",
          "name": "",
          "type": "string"
        }
      ],
      "stateMutability": "view",
      "type": "function"
    },
    {
      "inputs": [],
      "name": "togglePublicSaleActive",
      "outputs": [],
      "stateMutability": "nonpayable",
      "type": "function"
    },
    {
      "inputs": [],
      "name": "toggleReveal",
      "outputs": [],
      "stateMutability": "nonpayable",
      "type": "function"
    },
    {
      "inputs": [
        {
          "internalType": "uint256",
          "name": "",
          "type": "uint256"
        }
      ],
      "name": "tokenRoyaltyPercentage",
      "outputs": [
        {
          "internalType": "uint256",
          "name": "",
          "type": "uint256"
        }
      ],
      "stateMutability": "view",
      "type": "function"
    },
    {
      "inputs": [
        {
          "internalType": "uint256",
          "name": "",
          "type": "uint256"
        }
      ],
      "name": "tokenRoyaltyRecipient",
      "outputs": [
        {
          "internalType": "address payable",
          "name": "",
          "type": "address"
        }
      ],
      "stateMutability": "view",
      "type": "function"
    },
    {
      "inputs": [
        {
          "internalType": "uint256",
          "name": "tokenId",
          "type": "uint256"
        }
      ],
      "name": "tokenURI",
      "outputs": [
        {
          "internalType": "string",
          "name": "",
          "type": "string"
        }
      ],
      "stateMutability": "view",
      "type": "function"
    },
    {
      "inputs": [],
      "name": "totalSupply",
      "outputs": [
        {
          "internalType": "uint256",
          "name": "result",
          "type": "uint256"
        }
      ],
      "stateMutability": "view",
      "type": "function"
    },
    {
      "inputs": [],
      "name": "tradingEnabled",
      "outputs": [
        {
          "internalType": "bool",
          "name": "",
          "type": "bool"
        }
      ],
      "stateMutability": "view",
      "type": "function"
    },
    {
      "inputs": [
        {
          "internalType": "address",
          "name": "from",
          "type": "address"
        },
        {
          "internalType": "address",
          "name": "to",
          "type": "address"
        },
        {
          "internalType": "uint256",
          "name": "tokenId",
          "type": "uint256"
        }
      ],
      "name": "transferFrom",
      "outputs": [],
      "stateMutability": "payable",
      "type": "function"
    },
    {
      "inputs": [
        {
          "internalType": "address",
          "name": "newOwner",
          "type": "address"
        }
      ],
      "name": "transferOwnership",
      "outputs": [],
      "stateMutability": "nonpayable",
      "type": "function"
    },
    {
      "inputs": [],
      "name": "withdraw",
      "outputs": [],
      "stateMutability": "nonpayable",
      "type": "function"
    },
    {
      "inputs": [
        {
          "internalType": "address",
          "name": "erc20Token",
          "type": "address"
        }
      ],
      "name": "withdrawERC20",
      "outputs": [],
      "stateMutability": "nonpayable",
      "type": "function"
    },
    {
      "inputs": [],
      "name": "withdrawFixedComission",
      "outputs": [],
      "stateMutability": "nonpayable",
      "type": "function"
    },
    {
      "inputs": [],
      "name": "withdrawalRecipientAddress",
      "outputs": [
        {
          "internalType": "address payable",
          "name": "",
          "type": "address"
        }
      ],
      "stateMutability": "view",
      "type": "function"
    }
  ],
  "bytecode": "0x608080604052346200010c576200404d80380380916200001f8262000127565b8339808201906101a08091126200010c5782516001600160401b0393908481116200010c578362000052918301620001b9565b9260a0518581116200010c57816200006c918401620001b9565b9260c0518681116200010c578262000086918501620001b9565b9260e051926101005191610120518981116200010c5782620000aa918301620001b9565b9161014051998a116200010c57620000fc99620000c89201620001b9565b90620000d362000214565b92620000de6200022c565b9451956101c05197620000f062000244565b99610200519b620006af565b604051613407908162000c468239f35b600080fd5b634e487b7160e01b600052604160045260246000fd5b6080601f91909101601f19168101906001600160401b038211908210176200014e57604052565b62000111565b602081019081106001600160401b038211176200014e57604052565b601f909101601f19168101906001600160401b038211908210176200014e57604052565b60005b838110620001a85750506000910152565b818101518382015260200162000197565b81601f820112156200010c5780516001600160401b0381116200014e5760405192620001f0601f8301601f19166020018562000170565b818452602082840101116200010c5762000211916020808501910162000194565b90565b61016051906001600160a01b03821682036200010c57565b61018051906001600160a01b03821682036200010c57565b6101e051906001600160a01b03821682036200010c57565b90600182811c921680156200028e575b60208310146200027857565b634e487b7160e01b600052602260045260246000fd5b91607f16916200026c565b601f8111620002a6575050565b600090600a6000526020600020906020601f850160051c83019410620002e9575b601f0160051c01915b828110620002dd57505050565b818155600101620002d0565b9092508290620002c7565b601f811162000301575050565b600090600b6000526020600020906020601f850160051c8301941062000344575b601f0160051c01915b8281106200033857505050565b8181556001016200032b565b909250829062000322565b601f81116200035c575050565b60009060156000526020600020906020601f850160051c830194106200039f575b601f0160051c01915b8281106200039357505050565b81815560010162000386565b90925082906200037d565b601f8111620003b7575050565b60009060046000526020600020906020601f850160051c83019410620003fa575b601f0160051c01915b828110620003ee57505050565b818155600101620003e1565b9092508290620003d8565b601f811162000412575050565b60009060036000526020600020906020601f850160051c8301941062000455575b601f0160051c01915b8281106200044957505050565b8181556001016200043c565b909250829062000433565b80519091906001600160401b0381116200014e576200048c81620004866015546200025c565b6200034f565b602080601f8311600114620004d357508190620004c29394600092620004c7575b50508160011b916000199060031b1c19161790565b601555565b015190503880620004ad565b6015600052601f198316949091907f55f448fdea98c4d29eb340757ef0a66cd03dbb9538908a6a81d96026b71ec475926000905b8782106200054257505083600195961062000528575b505050811b01601555565b015160001960f88460031b161c191690553880806200051d565b8060018596829496860151815501950193019062000507565b80519091906001600160401b0381116200014e576200058781620005816004546200025c565b620003aa565b602080601f8311600114620005c157508190620005bc9394600092620004c75750508160011b916000199060031b1c19161790565b600455565b6004600052601f198316949091907f8a35acfbc15ff81a39ae7d344fd709f28e8600b4aa8c65c6b64bfe7fe36bd19b926000905b8782106200063057505083600195961062000616575b505050811b01600455565b015160001960f88460031b161c191690553880806200060b565b80600185968294968601518155019501930190620005f5565b156200065157565b60405162461bcd60e51b815260206004820152601d60248201527f496e76616c696420636f6d6d697373696f6e2070657263656e746167650000006044820152606490fd5b90620006ab6020928281519485920162000194565b0190565b620007ac969b9762000732620007d39c97620008379f9c96620007929662000726620007979a620007ce9f986200072c94620006f6620007709a62000720933391620008a1565b600019600f55620007076000601355565b6200071a600160ff19601f541617601f55565b62000a0e565b62000a1d565b62000460565b62000a2c565b6200073d8d62000b22565b62000749612710600e55565b60108054610100600160a81b03191660089290921b610100600160a81b0316919091179055565b601180546001600160a01b0319166001600160a01b0392909216919091179055565b601455565b620007a761271082111562000649565b601255565b601680546001600160a01b0319166001600160a01b0392909216919091179055565b601755565b6040516020810181620007e7828562000696565b0391620007fd601f199384810183528262000170565b51902060405160008152620008128162000154565b602081519101201491821562000839575b505060ff8019601054169115151617601055565b565b90915060405162000861816200085460208201809562000696565b0384810183528262000170565b51902090604051620008956020820192826200088885600490631b9d5b1b60e21b81520190565b0390810183528262000170565b51902014388062000823565b6001600160a01b039283168015620009f557600080546001600160a01b03198116831782559094167f8be0079c531659141344cd1fd0a4f28419497f9722a3daafe3b4186f6b6457e08580a38051906001600160401b0382116200014e576200091782620009116003546200025c565b62000405565b602090816001601f8511146200096357509180916200095093620009599692620004c75750508160011b916000199060031b1c19161790565b6003556200055b565b6200083760018055565b6003600052939492937fc2575a0e9e593c00f959f8c92f12db2869c3395a3b0502d05e2516446f71f85b93601f198616915b828210620009dc5750509160019391856200095997969410620009c2575b505050811b016003556200055b565b015160001960f88460031b161c19169055388080620009b3565b8060018697829497870151815501960194019062000995565b604051631e4fbdf760e01b815260006004820152602490fd5b62000a1862000c18565b600c55565b62000a2762000c18565b600d55565b9062000a3762000c18565b81516001600160401b0381116200014e5762000a608162000a5a600a546200025c565b62000299565b602080601f831160011462000a9a5750819062000a959394600092620004c75750508160011b916000199060031b1c19161790565b600a55565b600a600052601f198316949091907fc65a7bb8d6351c1cf70c95a316cc6a92839c986682d98bc35f958f4883f9d2a8926000905b87821062000b0957505083600195961062000aef575b505050811b01600a55565b015160001960f88460031b161c1916905538808062000ae4565b8060018596829496860151815501950193019062000ace565b9062000b2d62000c18565b81516001600160401b0381116200014e5762000b568162000b50600b546200025c565b620002f4565b602080601f831160011462000b905750819062000b8b9394600092620004c75750508160011b916000199060031b1c19161790565b600b55565b600b600052601f198316949091907f0175b7a638427703f0dbe7bb9bbf987a2551717b34e79f33b5b1008d1fa01db9926000905b87821062000bff57505083600195961062000be5575b505050811b01600b55565b015160001960f88460031b161c1916905538808062000bda565b8060018596829496860151815501950193019062000bc4565b6000546001600160a01b0316330362000c2d57565b60405163118cdaa760e01b8152336004820152602490fdfe6080604052600436101561001257600080fd5b60003560e01c8063011013c61461047757806301ffc9a71461047257806306fdde031461046d578063081812fc14610468578063095ea7b3146104635780630b0bfbe91461045e5780630c894cfe146104595780630ee196f51461045457806311131f1f1461044f57806318160ddd1461044a5780631aef99b7146104455780631f7fc3b21461044057806323b872dd1461043b57806323ce9efa146104365780632a55205a146104315780632ccf71451461042c5780633ccfd60b146104275780633e5fe94f1461042257806342842e0e1461041d57806344337ea11461041857806348313029146104135780634ada218b1461040e578063535ba42f14610409578063537df3b61461040457806354214f69146103ff57806355f804b3146103fa5780635b5c7c48146103f55780635b8ad429146103f0578063600dd5ea146103eb57806362b974e2146103e65780636352211e146103e15780636bb7b1d9146103dc5780636d5d40c6146103d75780636f8b44b0146103d257806370a08231146103cd578063715018a6146103c857806372250380146103c3578063848769de146103be578063849355dc146103b95780638add9f06146103b45780638d56ef1d146103af5780638da5cb5b146103aa57806392affb62146103a5578063938e3d7b146103a057806395d89b411461039b578063a0712d6814610396578063a22cb46514610391578063a945bf801461038c578063ac3adb1814610387578063acaa27fc14610382578063b88d4fde1461037d578063c2e5ec0414610378578063c627525514610373578063c7dd45171461036e578063c87b56dd14610369578063cc1acb9d14610364578063cce54e441461035f578063cd05de6d1461035a578063d5abeb0114610355578063da350c8614610350578063e26127e81461034b578063e58306f914610346578063e8a3d48514610341578063e985e9c51461033c578063eae483c514610337578063ee5c2e6614610332578063f2c4ce1e1461032d578063f2fde38b14610328578063f4f3b200146103235763f9f92be41461031e57600080fd5b61213b565b611f62565b611ed6565b611dde565b611db5565b611d6e565b611d06565b611c5e565b611c0e565b611bcc565b611b85565b611b67565b611b13565b611af5565b611a35565b611a16565b611953565b611901565b6118c7565b611864565b6117f5565b611753565b611735565b6116a0565b611611565b611569565b611448565b611368565b61133f565b611312565b6112e9565b6112cb565b6111ef565b6111bf565b611064565b61103d565b61101c565b610ffb565b610fdd565b610fae565b610f7a565b610f2d565b610efc565b610ede565b610dda565b610ccf565b610c8a565b610c61565b610c3e565b610c1d565b610bd5565b610bb2565b610b94565b610a7a565b610a5c565b610987565b61095e565b61094a565b6108d7565b6108ae565b61088a565b610867565b61083b565b61080a565b6107ec565b610732565b610662565b610579565b6104af565b3461049857602036600319011261049857610490612b94565b600435601955005b600080fd5b6001600160e01b031981160361049857565b346104985760203660031901126104985760206004356104ce8161049d565b6001600160e01b0319811663152a902d60e11b1490811561050c575b81156104fc575b506040519015158152f35b6105069150612bc0565b386104f1565b905061051781612bc0565b906104ea565b60005b8381106105305750506000910152565b8181015183820152602001610520565b906020916105598151809281855285808601910161051d565b601f01601f1916010190565b906020610576928181520190610540565b90565b346104985760008060031936011261065f5760405190806003549061059d826110bf565b8085529160209160019182811690811561063257506001146105da575b6105d6866105ca81880382610d29565b60405191829182610565565b0390f35b9350600384527fc2575a0e9e593c00f959f8c92f12db2869c3395a3b0502d05e2516446f71f85b5b83851061061f575050505081016020016105ca826105d6386105ba565b8054868601840152938201938101610602565b90508695506105d6969350602092506105ca94915060ff191682840152151560051b8201019293386105ba565b80fd5b346104985760208060031936011261049857600435809160009160019181600111156106c2575b505050156106b1576000526007602052602060018060a01b0360406000205416604051908152f35b6333d1c03960e21b60005260046000fd5b6001548210156106895760009391929190825b6106ed575b50505050600160e01b1615388080610689565b9091928094508252600581526040822054938461071c5780156107175760001901929190826106d5565b61217c565b6106da565b6001600160a01b0381160361049857565b60403660031901126104985760043561074a81610721565b6024356001600160a01b038061075f83612c68565b16908133036107ba575b600083815260076020526040812080546001600160a01b0319166001600160a01b0387161790559316907f8c5be1e5ebec7d5bd14f71427d1e84f3dd0314c0f7b2291e5b200ac8c7c3b9258480a480f35b600082815260086020908152604080832033845290915290205460ff16610769576367d9dca160e11b60005260046000fd5b34610498576000366003190112610498576020601754604051908152f35b3461049857600036600319011261049857610823612b94565b600f544210156108335742600f55005b600019600f55005b3461049857602036600319011261049857600435600052601e6020526020604060002054604051908152f35b346104985760003660031901126104985760206108826121af565b604051908152f35b34610498576000366003190112610498576001546002546020910360001901610882565b34610498576000366003190112610498576018546040516001600160a01b039091168152602090f35b34610498576020366003190112610498576004356108f481610721565b6108fc612b94565b601c80546001600160a01b0319166001600160a01b0392909216919091179055005b60609060031901126104985760043561093681610721565b9060243561094381610721565b9060443590565b61095c6109563661091e565b916121d7565b005b34610498576000366003190112610498576011546040516001600160a01b039091168152602090f35b34610498576040366003190112610498576004356000818152601e60205260409020548015610a53575b6000828152601d602052604090206001600160a01b03929083906109dd905b546001600160a01b031690565b1615610a3457610a15610a0d610a036109d06105d694600052601d602052604060002090565b935b6024356123a7565b612710900490565b60408051949093166001600160a01b0316845260208401528291820190565b506016546105d690610a1590610a0d906001600160a01b031693610a05565b506017546109b1565b34610498576000366003190112610498576020601a54604051908152f35b346104985760008060031936011261065f57610a9c60135460145411156123da565b80546001600160a01b031633148015610b77575b8015610b51575b610ac090612434565b610ad0610a0d47601254906123a7565b610ada81476121a2565b908281610b2b575b905081610aec5780f35b601054610b2692829182918291610b169060081c6001600160a01b03165b6001600160a01b031690565b5af1610b206124ab565b506124db565b388180f35b601154610b4a92829182918291610b16906001600160a01b0316610b0a565b3882610ae2565b50601054610ac090610b6e9060081c6001600160a01b0316610b0a565b33149050610ab7565b50601154610b8d906001600160a01b0316610b0a565b3314610ab0565b34610498576000366003190112610498576020601954604051908152f35b61095c610bbe3661091e565b9060405192610bcc84610d08565b6000845261290a565b3461049857602036600319011261049857600435610bf281610721565b610bfa612b94565b6001600160a01b031660009081526020805260409020805460ff19166001179055005b3461049857602036600319011261049857610c36612b94565b600435600e55005b3461049857600036600319011261049857602060ff601f54166040519015158152f35b34610498576000366003190112610498576016546040516001600160a01b039091168152602090f35b3461049857602036600319011261049857600435610ca781610721565b610caf612b94565b6001600160a01b031660009081526020805260409020805460ff19169055005b3461049857600036600319011261049857602060ff601054166040519015158152f35b634e487b7160e01b600052604160045260246000fd5b6020810190811067ffffffffffffffff821117610d2457604052565b610cf2565b90601f8019910116810190811067ffffffffffffffff821117610d2457604052565b67ffffffffffffffff8111610d2457601f01601f191660200190565b929192610d7382610d4b565b91610d816040519384610d29565b829481845281830111610498578281602093846000960137010152565b6020600319820112610498576004359067ffffffffffffffff821161049857806023830112156104985781602461057693600401359101610d67565b3461049857610de836610d9e565b610df0612b94565b805167ffffffffffffffff8111610d2457610e1581610e10600a546110bf565b6124e2565b602080601f8311600114610e5757508190610e4793600092610e4c575b50508160011b916000199060031b1c19161790565b600a55005b015190503880610e32565b90601f19831693610e8a600a6000527fc65a7bb8d6351c1cf70c95a316cc6a92839c986682d98bc35f958f4883f9d2a890565b926000905b868210610ec65750508360019510610ead575b505050811b01600a55005b015160001960f88460031b161c19169055388080610ea2565b80600185968294968601518155019501930190610e8f565b34610498576000366003190112610498576020601254604051908152f35b3461049857600036600319011261049857610f15612b94565b60105460ff80821615169060ff191617601055600080f35b3461049857604036600319011261049857600435610f4a81610721565b610f52612b94565b601680546001600160a01b0319166001600160a01b0392909216919091179055602435601755005b3461049857602036600319011261049857600435600052601d602052602060018060a01b0360406000205416604051908152f35b346104985760203660031901126104985760206001600160a01b03610fd4600435612c68565b16604051908152f35b34610498576000366003190112610498576020600f54604051908152f35b3461049857602036600319011261049857611014612b94565b600435600f55005b3461049857602036600319011261049857611035612b94565b600435600c55005b3461049857602036600319011261049857602061088260043561105f81610721565b612638565b346104985760008060031936011261065f5761107e612b94565b80546001600160a01b03198116825581906001600160a01b03167f8be0079c531659141344cd1fd0a4f28419497f9722a3daafe3b4186f6b6457e08280a380f35b90600182811c921680156110ef575b60208310146110d957565b634e487b7160e01b600052602260045260246000fd5b91607f16916110ce565b60405190600082600b549161110d836110bf565b8083529260209060019081811690811561119b575060011461113a575b505061113892500383610d29565b565b915092600b6000527f0175b7a638427703f0dbe7bb9bbf987a2551717b34e79f33b5b1008d1fa01db9936000925b8284106111835750611138945050508101602001388061112a565b85548885018301529485019487945092810192611168565b9150506020925061113894915060ff191682840152151560051b820101388061112a565b34610498576000366003190112610498576105d66111db6110f9565b604051918291602083526020830190610540565b3461049857602036600319011261049857600060043561120e81612e4c565b601854602090611270906001600160a01b031661122c811515612673565b61124061123b85600d546123a7565b612723565b6040516323b872dd60e01b8152336004820152306024820152604481019190915294859283919082906064820190565b03925af19182156112c65761095c9261129191600091611297575b506126e0565b33612eef565b6112b9915060203d6020116112bf575b6112b18183610d29565b8101906126bf565b3861128b565b503d6112a7565b6126d4565b34610498576020366003190112610498576020610882600435612723565b3461049857600036600319011261049857601c546040516001600160a01b039091168152602090f35b346104985760003660031901126104985760105460405160089190911c6001600160a01b03168152602090f35b34610498576000366003190112610498576000546040516001600160a01b039091168152602090f35b346104985760008060031936011261065f57805461138e906001600160a01b0316610b0a565b33148015611425575b6113a090612434565b61141a818080806113eb6113f56113f06014546013546113c081836121a2565b4781111561141d5750479485925b6113da844710156127fb565b6113e4848461283e565b111561284b565b61283e565b601355565b60115461140a906001600160a01b0316610b0a565b5af16114146124ab565b506128bd565b80f35b9485926113ce565b506011546113a09061143f906001600160a01b0316610b0a565b33149050611397565b346104985761145636610d9e565b61145e612b94565b805167ffffffffffffffff8111610d24576114838161147e6015546110bf565b612554565b602080601f83116001146114df575081906114b493600092610e4c5750508160011b916000199060031b1c19161790565b6015555b7fa5d4097edda6d87cb9329af83fb3712ef77eeb13738ffe43cc35a4ce305ad962600080a1005b90601f1983169361151260156000527f55f448fdea98c4d29eb340757ef0a66cd03dbb9538908a6a81d96026b71ec47590565b926000905b8682106115515750508360019510611538575b505050811b016015556114b8565b015160001960f88460031b161c1916905538808061152a565b80600185968294968601518155019501930190611517565b346104985760008060031936011261065f5760405190806004549061158d826110bf565b8085529160209160019182811690811561063257506001146115b9576105d6866105ca81880382610d29565b9350600484527f8a35acfbc15ff81a39ae7d344fd709f28e8600b4aa8c65c6b64bfe7fe36bd19b5b8385106115fe575050505081016020016105ca826105d6386105ba565b80548686018401529382019381016115e1565b60203660031901126104985760043561162981612e4c565b61163581600d546123a7565b34106116455761095c9033612eef565b60405162461bcd60e51b815260206004820152602360248201527f436f737420697320686967686572207468616e2074686520616d6f756e742073604482015262195b9d60ea1b6064820152608490fd5b8015150361049857565b34610498576040366003190112610498576004356116bd81610721565b602435906116ca82611696565b3360009081526008602090815260408083206001600160a01b038516845290915290209115159160ff1981541660ff841617905560405191825260018060a01b0316907f17307eab39ab6107e8899845ad3d59bd9653f200f220920489ca2b5937696c3160203392a3005b34610498576000366003190112610498576020600d54604051908152f35b346104985760008060031936011261065f57600d5460405190632124d57760e21b82526004820152602081602481305afa8291816117c4575b506117bd57505b601854601954604080516001600160a01b0390931683526020830191909152810191909152606090f35b9050611793565b6117e791925060203d6020116117ee575b6117df8183610d29565b8101906128fb565b903861178c565b503d6117d5565b3461049857602036600319011261049857600435611811612b94565b612710811161181f57601a55005b60405162461bcd60e51b815260206004820152601b60248201527f496e76616c696420646973636f756e742070657263656e7461676500000000006044820152606490fd5b60803660031901126104985760043561187c81610721565b60243561188881610721565b6064359167ffffffffffffffff83116104985736602384011215610498576118bd61095c933690602481600401359101610d67565b916044359161290a565b34610498576020366003190112610498576004356118e481611696565b6118ec612b94565b60ff8019601f54169115151617601f55600080f35b346104985760203660031901126104985761191a612b94565b600435600d55005b9181601f840112156104985782359167ffffffffffffffff8311610498576020808501948460051b01011161049857565b346104985760403660031901126104985767ffffffffffffffff60043581811161049857611985903690600401611922565b90916024359081116104985761199f903690600401611922565b9190926119aa612b94565b60005b8281106119b657005b6119c181848461294d565b35906119cc82610721565b6119d781868861294d565b356119e0612b94565b6001546002549003600019019080820180921161071757600193611a0b611a1093600c541015612b50565b612eef565b016119ad565b34610498576020366003190112610498576105d66111db600435612a19565b3461049857606036600319011261049857600435602435611a5581610721565b611a5d612b94565b6001600160a01b03611a6e83612c68565b1615611ab9576000828152601d6020526040902080546001600160a01b0319166001600160a01b03909216919091179055611ab660443591600052601e602052604060002090565b55005b60405162461bcd60e51b8152602060048201526014602482015273151bdad95b88191bd95cc81b9bdd08195e1a5cdd60621b6044820152606490fd5b34610498576000366003190112610498576020600e54604051908152f35b34610498576020366003190112610498576000600435611b3281612e4c565b601854602090611270906001600160a01b0316611b50811515612673565b61124084601954611b62811515612b04565b6123a7565b34610498576000366003190112610498576020600c54604051908152f35b3461049857602036600319011261049857600435611ba281610721565b611baa612b94565b601b80546001600160a01b0319166001600160a01b0392909216919091179055005b34610498576000366003190112610498576001546002546080910360001901600c5490600d5490600f5491604051938452602084015260408301526060820152f35b3461049857604036600319011261049857600435611c2b81610721565b602435611c36612b94565b6001546002549003600019019181830180931161071757611a0b61095c93600c541015612b50565b346104985760008060031936011261065f57604051908060155490611c82826110bf565b808552916020916001918281169081156106325750600114611cae576105d6866105ca81880382610d29565b9350601584527f55f448fdea98c4d29eb340757ef0a66cd03dbb9538908a6a81d96026b71ec4755b838510611cf3575050505081016020016105ca826105d6386105ba565b8054868601840152938201938101611cd6565b3461049857604036600319011261049857602060ff611d62600435611d2a81610721565b60243590611d3782610721565b60018060a01b03166000526008845260406000209060018060a01b0316600052602052604060002090565b54166040519015158152f35b3461049857602036600319011261049857600435611d8b81610721565b611d93612b94565b601880546001600160a01b0319166001600160a01b0392909216919091179055005b3461049857600036600319011261049857601b546040516001600160a01b039091168152602090f35b3461049857611dec36610d9e565b611df4612b94565b805167ffffffffffffffff8111610d2457611e1981611e14600b546110bf565b6125c6565b602080601f8311600114611e4f57508190611e4a93600092610e4c5750508160011b916000199060031b1c19161790565b600b55005b90601f19831693611e82600b6000527f0175b7a638427703f0dbe7bb9bbf987a2551717b34e79f33b5b1008d1fa01db990565b926000905b868210611ebe5750508360019510611ea5575b505050811b01600b55005b015160001960f88460031b161c19169055388080611e9a565b80600185968294968601518155019501930190611e87565b3461049857602036600319011261049857600435611ef381610721565b611efb612b94565b6001600160a01b039081168015611f4957600080546001600160a01b03198116831782559092167f8be0079c531659141344cd1fd0a4f28419497f9722a3daafe3b4186f6b6457e08380a380f35b604051631e4fbdf760e01b815260006004820152602490fd5b34610498576020806003193601126104985760043590611f8182610721565b60008054909290611f9a906001600160a01b0316610b0a565b3314801561211e575b80156120f8575b611fb390612434565b6040516370a0823160e01b8152306004820152906001600160a01b03168282602481845afa9182156112c65784926120d9575b50612000611ff9610a0d601254856123a7565b80936121a2565b91838161207b575b505081612013578380f35b60105460405163a9059cbb60e01b815260089190911c6001600160a01b031660048201526024810192909252829082908186816044810103925af180156112c65761205d57808380f35b8161207392903d106112bf576112b18183610d29565b503880808380f35b60115460405163a9059cbb60e01b81526001600160a01b03909116600482015260248101929092528160448188865af180156112c6576120bc575b83612008565b6120d290843d86116112bf576112b18183610d29565b50386120b6565b6120f1919250833d85116117ee576117df8183610d29565b9038611fe6565b50601054611fb3906121159060081c6001600160a01b0316610b0a565b33149050611faa565b50601154612134906001600160a01b0316610b0a565b3314611fa3565b346104985760203660031901126104985760043561215881610721565b60018060a01b031660005260208052602060ff604060002054166040519015158152f35b634e487b7160e01b600052601160045260246000fd5b9061271091820391821161071757565b9190820391821161071757565b6121b833612638565b600e5490818110156121d05781039081116107175790565b5050600090565b9190916121e382612c68565b6001600160a01b03918216939082811685900361238857600084815260076020526040902080546122276001600160a01b03881633908114908314171590565b1590565b61233a575b61223587612cf0565b612330575b506001600160a01b038516600090815260066020526040902080546000190190556001600160a01b0382166000908152600660205260409020805460010190556001600160a01b0382164260a01b17600160e11b176122a3856000526005602052604060002090565b55600160e11b8116156122e6575b501680927fddf252ad1be2c89b69c2b068fc378daa952ba7f163c4a11628f55a4df523b3ef600080a4156122e157565b612c25565b600184016122fe816000526005602052604060002090565b541561230b575b506122b1565b600154811461230557612328906000526005602052604060002090565b553880612305565b600090553861223a565b61237e612223612377336123608b60018060a01b03166000526008602052604060002090565b9060018060a01b0316600052602052604060002090565b5460ff1690565b1561222c57612c14565b612c04565b906402540be4009182810292818404149015171561071757565b8181029291811591840414171561071757565b81156123c4570490565b634e487b7160e01b600052601260045260246000fd5b156123e157565b60405162461bcd60e51b815260206004820152602560248201527f5468726573686f6c6420666f722041206d757374206265207265616368656420604482015264199a5c9cdd60da1b6064820152608490fd5b1561243b57565b60405162461bcd60e51b815260206004820152602f60248201527f4f6e6c79206f776e6572206f7220636f6d6d697373696f6e207265636970696560448201526e6e742063616e20776974686472617760881b6064820152608490fd5b604051906124a582610d08565b60008252565b3d156124d6573d906124bc82610d4b565b916124ca6040519384610d29565b82523d6000602084013e565b606090565b1561049857565b601f81116124ee575050565b600090600a6000527fc65a7bb8d6351c1cf70c95a316cc6a92839c986682d98bc35f958f4883f9d2a8906020601f850160051c8301941061254a575b601f0160051c01915b82811061253f57505050565b818155600101612533565b909250829061252a565b601f8111612560575050565b60009060156000527f55f448fdea98c4d29eb340757ef0a66cd03dbb9538908a6a81d96026b71ec475906020601f850160051c830194106125bc575b601f0160051c01915b8281106125b157505050565b8181556001016125a5565b909250829061259c565b601f81116125d2575050565b600090600b6000527f0175b7a638427703f0dbe7bb9bbf987a2551717b34e79f33b5b1008d1fa01db9906020601f850160051c8301941061262e575b601f0160051c01915b82811061262357505050565b818155600101612617565b909250829061260e565b6001600160a01b0316801561266257600052600660205267ffffffffffffffff6040600020541690565b6323d3ad8160e21b60005260046000fd5b1561267a57565b60405162461bcd60e51b815260206004820152601d60248201527f5061796d656e7420746f6b656e2061646472657373206e6f74207365740000006044820152606490fd5b90816020910312610498575161057681611696565b6040513d6000823e3d90fd5b156126e757565b60405162461bcd60e51b8152602060048201526014602482015273115490cc8c081c185e5b595b9d0819985a5b195960621b6044820152606490fd5b601c546001600160a01b03908116919082151590816127ed575b50156127a85761278161275261278693613056565b601b5461277b906127759061276f906001600160a01b0316613056565b9261238d565b9161238d565b926123a7565b6123ba565b601a5480612792575090565b610576916127a2610a0d92612192565b906123a7565b60405162461bcd60e51b815260206004820152601c60248201527f5072696365206665656420616464726573736573206e6f7420736574000000006044820152606490fd5b9050601b541615153861273d565b1561280257565b60405162461bcd60e51b8152602060048201526014602482015273496e73756666696369656e742062616c616e636560601b6044820152606490fd5b9190820180921161071757565b1561285257565b60405162461bcd60e51b815260206004820152603a60248201527f546f74616c207769746864726177616c20627920636f6d6d697373696f6e206360448201527f616e6e6f742065786365656420746865207468726573686f6c640000000000006064820152608490fd5b156128c457565b60405162461bcd60e51b815260206004820152600f60248201526e151c985b9cd9995c8819985a5b1959608a1b6044820152606490fd5b90816020910312610498575190565b9291906129188282866121d7565b803b612925575b50505050565b61292e93613232565b1561293c573880808061291f565b6368d2bf6b60e11b60005260046000fd5b919081101561295d5760051b0190565b634e487b7160e01b600052603260045260246000fd5b600a5460009291612983826110bf565b916001908181169081156129ef575060011461299e57505050565b9091929350600a6000527fc65a7bb8d6351c1cf70c95a316cc6a92839c986682d98bc35f958f4883f9d2a8906000915b8483106129dc575050500190565b81816020925485870152019201916129ce565b60ff191683525050811515909102019150565b90612a156020928281519485920161051d565b0190565b6001600160a01b03612a2a82612c68565b1615612aa75760105460ff1615612a9e57612a449061328d565b612a4f600a546110bf565b15612a9557610576612a7691612a87604051938492612a7060208501612973565b90612a02565b64173539b7b760d91b815260050190565b03601f198101835282610d29565b50610576612498565b506105766110f9565b60405162461bcd60e51b815260206004820152602f60248201527f4552433732314d657461646174613a2055524920717565727920666f72206e6f60448201526e3732bc34b9ba32b73a103a37b5b2b760891b6064820152608490fd5b15612b0b57565b60405162461bcd60e51b815260206004820152601760248201527f50726963652070657220746f6b656e206e6f74207365740000000000000000006044820152606490fd5b15612b5757565b60405162461bcd60e51b8152602060048201526015602482015274151bdd185b081cdd5c1c1b1e48195e18d959591959605a1b6044820152606490fd5b6000546001600160a01b03163303612ba857565b60405163118cdaa760e01b8152336004820152602490fd5b63ffffffff60e01b166301ffc9a760e01b8114908115612bf3575b8115612be5575090565b635b5e139f60e01b14919050565b6380ac58cd60e01b81149150612bdb565b62a1148160e81b60005260046000fd5b632ce44b5f60e11b60005260046000fd5b633a954ecd60e21b60005260046000fd5b636f96cda160e11b60005260046000fd5b63b562e8dd60e01b60005260046000fd5b622e076360e81b60005260046000fd5b60019080600111612c3657612c87816000526005602052604060002090565b54918215612ca4575b5050600160e01b8116156105765780612c36565b600154821015612c365790815b15612c905790915060001901612cd1816000526005602052604060002090565b54918215612ce9575050600160e01b8116612c365790565b9081612cb1565b6001600160a01b0316612cff57565b60ff601f541615612d7957336000526020805260ff60406000205416612d2157565b60405162461bcd60e51b815260206004820152602a60248201527f426c61636b6c697374656420656e7469746965732063616e6e6f7420657865636044820152697574652074726164657360b01b6064820152608490fd5b60405162461bcd60e51b8152602060048201526013602482015272151c98591a5b99c81a5cc8191a5cd8589b1959606a1b6044820152606490fd5b15612dbb57565b60405162461bcd60e51b815260206004820152601d60248201527f596f75206861766520746f206d696e74206174206c65617374206f6e650000006044820152606490fd5b15612e0757565b60405162461bcd60e51b815260206004820152601b60248201527f496e76616c696420616d6f756e7420746f206265206d696e74656400000000006044820152606490fd5b60015460025490036000190181810180911161071757612e7090600c541015612b50565b600f544210612eb157612ea781612e8b611138931515612db4565b612e9e81612e976121af565b1015612e00565b6113eb33612638565b600e541015612e00565b60405162461bcd60e51b81526020600482015260166024820152755075626c69632073616c65206e6f742061637469766560501b6044820152606490fd5b9060405191612efd83610d08565b6000928381526001918254841561303a576001600160a01b0382164260a01b86861460e11b1717612f38826000526005602052604060002090565b556001600160a01b0382166000818152600660205260409020805468010000000000000001880201905580156130355785820191908580805b612fe6575b50505050612f8390600155565b803b612f91575b5050505050565b82549384039083805b612fb2575b50505050540361065f5780808080612f8a565b15612fd9575b85612fca612223858786019585613198565b612fd45784612f9a565b61293c565b848210612fb85780612f9f565b1561301d575b50878683838b7fddf252ad1be2c89b69c2b068fc378daa952ba7f163c4a11628f55a4df523b3ef8180a49081612f71565b9091019082821461302e5785612fec565b8581612f76565b612c58565b612c47565b519069ffffffffffffffffffff8216820361049857565b604051633fabe5a360e21b81529060a090829060049082906001600160a01b03165afa9081156112c6576000916130da575b5060008113156130955790565b60405162461bcd60e51b815260206004820152601c60248201527f496e76616c69642070726963652066726f6d20436861696e6c696e6b000000006044820152606490fd5b905060a0813d60a01161311f575b816130f560a09383610d29565b81010312610498576131068161303f565b5061311860806020830151920161303f565b5038613088565b3d91506130e8565b9081602091031261049857516105768161049d565b610576939260809260018060a01b031682526000602083015260408201528160608201520190610540565b6001600160a01b03918216815291166020820152604081019190915260806060820181905261057692910190610540565b6131c160209160009394604051948580948193630a85bd0160e11b998a8452336004850161313c565b03926001600160a01b03165af160009181613201575b506131f3576131e46124ab565b80511561293c57805190602001fd5b6001600160e01b0319161490565b61322491925060203d60201161322b575b61321c8183610d29565b810190613127565b90386131d7565b503d613212565b926020916131c1936000604051809681958294630a85bd0160e11b9a8b85523360048601613167565b9061326582610d4b565b6132726040519182610d29565b8281528092613283601f1991610d4b565b0190602036910137565b806000917a184f03e93ff9f4daa797ed6e38ed64bf6a1f010000000000000000808210156133c3575b506d04ee2d6d415b85acef8100000000808310156133b4575b50662386f26fc10000808310156133a5575b506305f5e10080831015613396575b5061271080831015613387575b506064821015613377575b600a8092101561336d575b6001908160216133256001870161325b565b95860101905b613337575b5050505090565b600019019083906f181899199a1a9b1b9c1cb0b131b232b360811b8282061a8353049182156133685791908261332b565b613330565b9160010191613313565b9190606460029104910191613308565b600491939204910191386132fd565b600891939204910191386132f0565b601091939204910191386132e1565b602091939204910191386132cf565b6040935081049150386132b656fea26469706673582212201aa2ce904be7ac648fe7d9c56dad2990ab7836614ae137a4c316c20773c1dbe164736f6c63430008170033",
  "linkReferences": {},
  "deployedLinkReferences": {}
}