{
  "_format": "hh-sol-artifact-1",
  "contractName": "Base",
  "sourceName": "contracts/libraries/Base.sol",
  "abi": [
    {
      "inputs": [],
      "name": "owner",
      "outputs": [
        {
          "internalType": "address",
          "name": "",
          "type": "address"
        }
      ],
      "stateMutability": "view",
      "type": "function"
    }
  ],
  "bytecode": "0x60808060405234602457600080546001600160a01b03191690556082908161002a8239f35b600080fdfe6080806040526004361015601257600080fd5b600090813560e01c638da5cb5b14602857600080fd5b346048578160031936011260485790546001600160a01b03168152602090f35b5080fdfea2646970667358221220b7b083d592383a8110b6e84cb9534200a2374dcea72b1ff840f8ff4620fd74fd64736f6c63430008170033",
  "linkReferences": {},
  "deployedLinkReferences": {}
}