{
  "_format": "hh-sol-artifact-1",
  "contractName": "ERC721Merkle",
  "sourceName": "contracts/ERC721Merkle.sol",
  "abi": [
    {
      "inputs": [
        {
          "internalType": "string",
          "name": "_name",
          "type": "string"
        },
        {
          "internalType": "string",
          "name": "_symbol",
          "type": "string"
        },
        {
          "internalType": "string",
          "name": "_contractURI",
          "type": "string"
        },
        {
          "internalType": "uint256",
          "name": "_maxSupply",
          "type": "uint256"
        },
        {
          "internalType": "uint256",
          "name": "_publicPrice",
          "type": "uint256"
        },
        {
          "internalType": "string",
          "name": "_defaultBaseURI",
          "type": "string"
        },
        {
          "internalType": "string",
          "name": "_notRevealedURI",
          "type": "string"
        },
        {
          "internalType": "address payable",
          "name": "_withdrawalRecipientAddress",
          "type": "address"
        },
        {
          "internalType": "address payable",
          "name": "_comissionRecipientAddress",
          "type": "address"
        },
        {
          "internalType": "uint256",
          "name": "_fixedCommisionTreshold",
          "type": "uint256"
        },
        {
          "internalType": "uint256",
          "name": "_comissionPercentageIn10000",
          "type": "uint256"
        },
        {
          "internalType": "address payable",
          "name": "_defaultRoyaltyRecipient",
          "type": "address"
        },
        {
          "internalType": "uint256",
          "name": "_defaultRoyaltyPercentageIn10000",
          "type": "uint256"
        }
      ],
      "stateMutability": "nonpayable",
      "type": "constructor"
    },
    {
      "inputs": [],
      "name": "ApprovalCallerNotOwnerNorApproved",
      "type": "error"
    },
    {
      "inputs": [],
      "name": "ApprovalQueryForNonexistentToken",
      "type": "error"
    },
    {
      "inputs": [],
      "name": "BalanceQueryForZeroAddress",
      "type": "error"
    },
    {
      "inputs": [],
      "name": "MintERC2309QuantityExceedsLimit",
      "type": "error"
    },
    {
      "inputs": [],
      "name": "MintToZeroAddress",
      "type": "error"
    },
    {
      "inputs": [],
      "name": "MintZeroQuantity",
      "type": "error"
    },
    {
      "inputs": [],
      "name": "NotCompatibleWithSpotMints",
      "type": "error"
    },
    {
      "inputs": [
        {
          "internalType": "address",
          "name": "owner",
          "type": "address"
        }
      ],
      "name": "OwnableInvalidOwner",
      "type": "error"
    },
    {
      "inputs": [
        {
          "internalType": "address",
          "name": "account",
          "type": "address"
        }
      ],
      "name": "OwnableUnauthorizedAccount",
      "type": "error"
    },
    {
      "inputs": [],
      "name": "OwnerQueryForNonexistentToken",
      "type": "error"
    },
    {
      "inputs": [],
      "name": "OwnershipNotInitializedForExtraData",
      "type": "error"
    },
    {
      "inputs": [],
      "name": "SequentialMintExceedsLimit",
      "type": "error"
    },
    {
      "inputs": [],
      "name": "SequentialUpToTooSmall",
      "type": "error"
    },
    {
      "inputs": [],
      "name": "SpotMintTokenIdTooSmall",
      "type": "error"
    },
    {
      "inputs": [],
      "name": "TokenAlreadyExists",
      "type": "error"
    },
    {
      "inputs": [],
      "name": "TransferCallerNotOwnerNorApproved",
      "type": "error"
    },
    {
      "inputs": [],
      "name": "TransferFromIncorrectOwner",
      "type": "error"
    },
    {
      "inputs": [],
      "name": "TransferToNonERC721ReceiverImplementer",
      "type": "error"
    },
    {
      "inputs": [],
      "name": "TransferToZeroAddress",
      "type": "error"
    },
    {
      "inputs": [],
      "name": "URIQueryForNonexistentToken",
      "type": "error"
    },
    {
      "anonymous": false,
      "inputs": [
        {
          "indexed": true,
          "internalType": "address",
          "name": "owner",
          "type": "address"
        },
        {
          "indexed": true,
          "internalType": "address",
          "name": "approved",
          "type": "address"
        },
        {
          "indexed": true,
          "internalType": "uint256",
          "name": "tokenId",
          "type": "uint256"
        }
      ],
      "name": "Approval",
      "type": "event"
    },
    {
      "anonymous": false,
      "inputs": [
        {
          "indexed": true,
          "internalType": "address",
          "name": "owner",
          "type": "address"
        },
        {
          "indexed": true,
          "internalType": "address",
          "name": "operator",
          "type": "address"
        },
        {
          "indexed": false,
          "internalType": "bool",
          "name": "approved",
          "type": "bool"
        }
      ],
      "name": "ApprovalForAll",
      "type": "event"
    },
    {
      "anonymous": false,
      "inputs": [
        {
          "indexed": true,
          "internalType": "uint256",
          "name": "fromTokenId",
          "type": "uint256"
        },
        {
          "indexed": false,
          "internalType": "uint256",
          "name": "toTokenId",
          "type": "uint256"
        },
        {
          "indexed": true,
          "internalType": "address",
          "name": "from",
          "type": "address"
        },
        {
          "indexed": true,
          "internalType": "address",
          "name": "to",
          "type": "address"
        }
      ],
      "name": "ConsecutiveTransfer",
      "type": "event"
    },
    {
      "anonymous": false,
      "inputs": [],
      "name": "ContractURIUpdated",
      "type": "event"
    },
    {
      "anonymous": false,
      "inputs": [
        {
          "indexed": true,
          "internalType": "address",
          "name": "previousOwner",
          "type": "address"
        },
        {
          "indexed": true,
          "internalType": "address",
          "name": "newOwner",
          "type": "address"
        }
      ],
      "name": "OwnershipTransferred",
      "type": "event"
    },
    {
      "anonymous": false,
      "inputs": [
        {
          "indexed": true,
          "internalType": "address",
          "name": "from",
          "type": "address"
        },
        {
          "indexed": true,
          "internalType": "address",
          "name": "to",
          "type": "address"
        },
        {
          "indexed": true,
          "internalType": "uint256",
          "name": "tokenId",
          "type": "uint256"
        }
      ],
      "name": "Transfer",
      "type": "event"
    },
    {
      "inputs": [],
      "name": "ERC20DiscountIn10000",
      "outputs": [
        {
          "internalType": "uint256",
          "name": "",
          "type": "uint256"
        }
      ],
      "stateMutability": "view",
      "type": "function"
    },
    {
      "inputs": [],
      "name": "ERC20FixedPricePerToken",
      "outputs": [
        {
          "internalType": "uint256",
          "name": "",
          "type": "uint256"
        }
      ],
      "stateMutability": "view",
      "type": "function"
    },
    {
      "inputs": [],
      "name": "ERC20PriceFeedAddress",
      "outputs": [
        {
          "internalType": "address",
          "name": "",
          "type": "address"
        }
      ],
      "stateMutability": "view",
      "type": "function"
    },
    {
      "inputs": [],
      "name": "ERC20TokenAddress",
      "outputs": [
        {
          "internalType": "address",
          "name": "",
          "type": "address"
        }
      ],
      "stateMutability": "view",
      "type": "function"
    },
    {
      "inputs": [
        {
          "internalType": "address",
          "name": "_address",
          "type": "address"
        }
      ],
      "name": "addToBlacklist",
      "outputs": [],
      "stateMutability": "nonpayable",
      "type": "function"
    },
    {
      "inputs": [
        {
          "internalType": "address",
          "name": "_to",
          "type": "address"
        },
        {
          "internalType": "uint256",
          "name": "_mintAmount",
          "type": "uint256"
        }
      ],
      "name": "adminMint",
      "outputs": [],
      "stateMutability": "nonpayable",
      "type": "function"
    },
    {
      "inputs": [
        {
          "internalType": "address",
          "name": "to",
          "type": "address"
        },
        {
          "internalType": "uint256",
          "name": "tokenId",
          "type": "uint256"
        }
      ],
      "name": "approve",
      "outputs": [],
      "stateMutability": "payable",
      "type": "function"
    },
    {
      "inputs": [
        {
          "internalType": "address",
          "name": "owner",
          "type": "address"
        }
      ],
      "name": "balanceOf",
      "outputs": [
        {
          "internalType": "uint256",
          "name": "",
          "type": "uint256"
        }
      ],
      "stateMutability": "view",
      "type": "function"
    },
    {
      "inputs": [
        {
          "internalType": "address[]",
          "name": "recipients",
          "type": "address[]"
        },
        {
          "internalType": "uint256[]",
          "name": "amounts",
          "type": "uint256[]"
        }
      ],
      "name": "batchAdminMint",
      "outputs": [],
      "stateMutability": "nonpayable",
      "type": "function"
    },
    {
      "inputs": [
        {
          "internalType": "address",
          "name": "",
          "type": "address"
        }
      ],
      "name": "blacklist",
      "outputs": [
        {
          "internalType": "bool",
          "name": "",
          "type": "bool"
        }
      ],
      "stateMutability": "view",
      "type": "function"
    },
    {
      "inputs": [],
      "name": "comissionPercentageIn10000",
      "outputs": [
        {
          "internalType": "uint256",
          "name": "",
          "type": "uint256"
        }
      ],
      "stateMutability": "view",
      "type": "function"
    },
    {
      "inputs": [],
      "name": "comissionRecipientAddress",
      "outputs": [
        {
          "internalType": "address payable",
          "name": "",
          "type": "address"
        }
      ],
      "stateMutability": "view",
      "type": "function"
    },
    {
      "inputs": [],
      "name": "contractURI",
      "outputs": [
        {
          "internalType": "string",
          "name": "",
          "type": "string"
        }
      ],
      "stateMutability": "view",
      "type": "function"
    },
    {
      "inputs": [],
      "name": "defaultRoyaltyPercentageIn10000",
      "outputs": [
        {
          "internalType": "uint256",
          "name": "",
          "type": "uint256"
        }
      ],
      "stateMutability": "view",
      "type": "function"
    },
    {
      "inputs": [],
      "name": "defaultRoyaltyRecipient",
      "outputs": [
        {
          "internalType": "address payable",
          "name": "",
          "type": "address"
        }
      ],
      "stateMutability": "view",
      "type": "function"
    },
    {
      "inputs": [
        {
          "internalType": "uint256",
          "name": "tierId",
          "type": "uint256"
        }
      ],
      "name": "disableTier",
      "outputs": [],
      "stateMutability": "nonpayable",
      "type": "function"
    },
    {
      "inputs": [
        {
          "internalType": "uint256",
          "name": "tierId",
          "type": "uint256"
        }
      ],
      "name": "enableTier",
      "outputs": [],
      "stateMutability": "nonpayable",
      "type": "function"
    },
    {
      "inputs": [],
      "name": "ethPriceFeedAddress",
      "outputs": [
        {
          "internalType": "address",
          "name": "",
          "type": "address"
        }
      ],
      "stateMutability": "view",
      "type": "function"
    },
    {
      "inputs": [
        {
          "internalType": "uint256",
          "name": "tokenId",
          "type": "uint256"
        }
      ],
      "name": "getApproved",
      "outputs": [
        {
          "internalType": "address",
          "name": "",
          "type": "address"
        }
      ],
      "stateMutability": "view",
      "type": "function"
    },
    {
      "inputs": [],
      "name": "getLaunchpadDetails",
      "outputs": [
        {
          "internalType": "uint256",
          "name": "",
          "type": "uint256"
        },
        {
          "internalType": "uint256",
          "name": "",
          "type": "uint256"
        },
        {
          "internalType": "uint256",
          "name": "",
          "type": "uint256"
        },
        {
          "internalType": "uint256",
          "name": "",
          "type": "uint256"
        }
      ],
      "stateMutability": "view",
      "type": "function"
    },
    {
      "inputs": [],
      "name": "getLaunchpadDetailsERC20",
      "outputs": [
        {
          "internalType": "address",
          "name": "",
          "type": "address"
        },
        {
          "internalType": "uint256",
          "name": "",
          "type": "uint256"
        },
        {
          "internalType": "uint256",
          "name": "",
          "type": "uint256"
        }
      ],
      "stateMutability": "view",
      "type": "function"
    },
    {
      "inputs": [
        {
          "internalType": "uint256",
          "name": "tierId",
          "type": "uint256"
        },
        {
          "internalType": "address",
          "name": "user",
          "type": "address"
        },
        {
          "internalType": "bytes32[]",
          "name": "proof",
          "type": "bytes32[]"
        }
      ],
      "name": "getMintEligibility",
      "outputs": [
        {
          "internalType": "uint256",
          "name": "",
          "type": "uint256"
        }
      ],
      "stateMutability": "view",
      "type": "function"
    },
    {
      "inputs": [],
      "name": "getPublicMintEligibility",
      "outputs": [
        {
          "internalType": "uint256",
          "name": "",
          "type": "uint256"
        }
      ],
      "stateMutability": "view",
      "type": "function"
    },
    {
      "inputs": [
        {
          "internalType": "uint256",
          "name": "ethPrice",
          "type": "uint256"
        }
      ],
      "name": "getRequiredERC20TokensChainlink",
      "outputs": [
        {
          "internalType": "uint256",
          "name": "",
          "type": "uint256"
        }
      ],
      "stateMutability": "view",
      "type": "function"
    },
    {
      "inputs": [
        {
          "internalType": "uint256",
          "name": "tierId",
          "type": "uint256"
        }
      ],
      "name": "getTierDetails",
      "outputs": [
        {
          "internalType": "bytes32",
          "name": "merkleRoot",
          "type": "bytes32"
        },
        {
          "internalType": "uint256",
          "name": "price",
          "type": "uint256"
        },
        {
          "internalType": "uint256",
          "name": "maxMintAmount",
          "type": "uint256"
        },
        {
          "internalType": "uint256",
          "name": "saleStartTime",
          "type": "uint256"
        },
        {
          "internalType": "string",
          "name": "title",
          "type": "string"
        },
        {
          "internalType": "uint256",
          "name": "ERC20Price",
          "type": "uint256"
        }
      ],
      "stateMutability": "view",
      "type": "function"
    },
    {
      "inputs": [],
      "name": "getTierIds",
      "outputs": [
        {
          "internalType": "uint256[]",
          "name": "",
          "type": "uint256[]"
        }
      ],
      "stateMutability": "view",
      "type": "function"
    },
    {
      "inputs": [
        {
          "internalType": "address",
          "name": "owner",
          "type": "address"
        },
        {
          "internalType": "address",
          "name": "operator",
          "type": "address"
        }
      ],
      "name": "isApprovedForAll",
      "outputs": [
        {
          "internalType": "bool",
          "name": "",
          "type": "bool"
        }
      ],
      "stateMutability": "view",
      "type": "function"
    },
    {
      "inputs": [],
      "name": "isRevealed",
      "outputs": [
        {
          "internalType": "bool",
          "name": "",
          "type": "bool"
        }
      ],
      "stateMutability": "view",
      "type": "function"
    },
    {
      "inputs": [],
      "name": "maxSupply",
      "outputs": [
        {
          "internalType": "uint256",
          "name": "",
          "type": "uint256"
        }
      ],
      "stateMutability": "view",
      "type": "function"
    },
    {
      "inputs": [
        {
          "internalType": "uint256",
          "name": "_mintAmount",
          "type": "uint256"
        }
      ],
      "name": "mint",
      "outputs": [],
      "stateMutability": "payable",
      "type": "function"
    },
    {
      "inputs": [
        {
          "internalType": "uint256",
          "name": "_mintAmount",
          "type": "uint256"
        }
      ],
      "name": "mintWithERC20ChainlinkPrice",
      "outputs": [],
      "stateMutability": "nonpayable",
      "type": "function"
    },
    {
      "inputs": [
        {
          "internalType": "uint256",
          "name": "_mintAmount",
          "type": "uint256"
        }
      ],
      "name": "mintWithFixedERC20Price",
      "outputs": [],
      "stateMutability": "nonpayable",
      "type": "function"
    },
    {
      "inputs": [],
      "name": "name",
      "outputs": [
        {
          "internalType": "string",
          "name": "",
          "type": "string"
        }
      ],
      "stateMutability": "view",
      "type": "function"
    },
    {
      "inputs": [],
      "name": "notRevealedURI",
      "outputs": [
        {
          "internalType": "string",
          "name": "",
          "type": "string"
        }
      ],
      "stateMutability": "view",
      "type": "function"
    },
    {
      "inputs": [],
      "name": "owner",
      "outputs": [
        {
          "internalType": "address",
          "name": "",
          "type": "address"
        }
      ],
      "stateMutability": "view",
      "type": "function"
    },
    {
      "inputs": [
        {
          "internalType": "uint256",
          "name": "tokenId",
          "type": "uint256"
        }
      ],
      "name": "ownerOf",
      "outputs": [
        {
          "internalType": "address",
          "name": "",
          "type": "address"
        }
      ],
      "stateMutability": "view",
      "type": "function"
    },
    {
      "inputs": [],
      "name": "publicMaxMintAmount",
      "outputs": [
        {
          "internalType": "uint256",
          "name": "",
          "type": "uint256"
        }
      ],
      "stateMutability": "view",
      "type": "function"
    },
    {
      "inputs": [],
      "name": "publicPrice",
      "outputs": [
        {
          "internalType": "uint256",
          "name": "",
          "type": "uint256"
        }
      ],
      "stateMutability": "view",
      "type": "function"
    },
    {
      "inputs": [],
      "name": "publicSaleStartTime",
      "outputs": [
        {
          "internalType": "uint256",
          "name": "",
          "type": "uint256"
        }
      ],
      "stateMutability": "view",
      "type": "function"
    },
    {
      "inputs": [
        {
          "internalType": "address",
          "name": "_address",
          "type": "address"
        }
      ],
      "name": "removeFromBlacklist",
      "outputs": [],
      "stateMutability": "nonpayable",
      "type": "function"
    },
    {
      "inputs": [],
      "name": "renounceOwnership",
      "outputs": [],
      "stateMutability": "nonpayable",
      "type": "function"
    },
    {
      "inputs": [
        {
          "internalType": "uint256",
          "name": "_tokenId",
          "type": "uint256"
        },
        {
          "internalType": "uint256",
          "name": "_salePrice",
          "type": "uint256"
        }
      ],
      "name": "royaltyInfo",
      "outputs": [
        {
          "internalType": "address",
          "name": "",
          "type": "address"
        },
        {
          "internalType": "uint256",
          "name": "",
          "type": "uint256"
        }
      ],
      "stateMutability": "view",
      "type": "function"
    },
    {
      "inputs": [
        {
          "internalType": "address",
          "name": "from",
          "type": "address"
        },
        {
          "internalType": "address",
          "name": "to",
          "type": "address"
        },
        {
          "internalType": "uint256",
          "name": "tokenId",
          "type": "uint256"
        }
      ],
      "name": "safeTransferFrom",
      "outputs": [],
      "stateMutability": "payable",
      "type": "function"
    },
    {
      "inputs": [
        {
          "internalType": "address",
          "name": "from",
          "type": "address"
        },
        {
          "internalType": "address",
          "name": "to",
          "type": "address"
        },
        {
          "internalType": "uint256",
          "name": "tokenId",
          "type": "uint256"
        },
        {
          "internalType": "bytes",
          "name": "_data",
          "type": "bytes"
        }
      ],
      "name": "safeTransferFrom",
      "outputs": [],
      "stateMutability": "payable",
      "type": "function"
    },
    {
      "inputs": [
        {
          "internalType": "address",
          "name": "operator",
          "type": "address"
        },
        {
          "internalType": "bool",
          "name": "approved",
          "type": "bool"
        }
      ],
      "name": "setApprovalForAll",
      "outputs": [],
      "stateMutability": "nonpayable",
      "type": "function"
    },
    {
      "inputs": [
        {
          "internalType": "string",
          "name": "_baseURI",
          "type": "string"
        }
      ],
      "name": "setBaseURI",
      "outputs": [],
      "stateMutability": "nonpayable",
      "type": "function"
    },
    {
      "inputs": [
        {
          "internalType": "string",
          "name": "newURI",
          "type": "string"
        }
      ],
      "name": "setContractURI",
      "outputs": [],
      "stateMutability": "nonpayable",
      "type": "function"
    },
    {
      "inputs": [
        {
          "internalType": "address payable",
          "name": "_defaultRoyaltyRecipient",
          "type": "address"
        },
        {
          "internalType": "uint256",
          "name": "_defaultRoyaltyPercentageIn10000",
          "type": "uint256"
        }
      ],
      "name": "setDefaultRoyaltyInfo",
      "outputs": [],
      "stateMutability": "nonpayable",
      "type": "function"
    },
    {
      "inputs": [
        {
          "internalType": "uint256",
          "name": "_erc20DiscountIn10000",
          "type": "uint256"
        }
      ],
      "name": "setERC20DiscountIn10000",
      "outputs": [],
      "stateMutability": "nonpayable",
      "type": "function"
    },
    {
      "inputs": [
        {
          "internalType": "address",
          "name": "_ERC20PriceFeedAddress",
          "type": "address"
        }
      ],
      "name": "setERC20PriceFeedAddress",
      "outputs": [],
      "stateMutability": "nonpayable",
      "type": "function"
    },
    {
      "inputs": [
        {
          "internalType": "address",
          "name": "_ERC20TokenAddress",
          "type": "address"
        }
      ],
      "name": "setERC20TokenAddress",
      "outputs": [],
      "stateMutability": "nonpayable",
      "type": "function"
    },
    {
      "inputs": [
        {
          "internalType": "address",
          "name": "_ethPriceFeedAddress",
          "type": "address"
        }
      ],
      "name": "setETHPriceFeedAddress",
      "outputs": [],
      "stateMutability": "nonpayable",
      "type": "function"
    },
    {
      "inputs": [
        {
          "internalType": "uint256",
          "name": "_erc20FixedPricePerToken",
          "type": "uint256"
        }
      ],
      "name": "setErc20FixedPricePerToken",
      "outputs": [],
      "stateMutability": "nonpayable",
      "type": "function"
    },
    {
      "inputs": [
        {
          "internalType": "uint256",
          "name": "_newmaxSupply",
          "type": "uint256"
        }
      ],
      "name": "setMaxSupply",
      "outputs": [],
      "stateMutability": "nonpayable",
      "type": "function"
    },
    {
      "inputs": [
        {
          "internalType": "string",
          "name": "_notRevealedURI",
          "type": "string"
        }
      ],
      "name": "setNotRevealedURI",
      "outputs": [],
      "stateMutability": "nonpayable",
      "type": "function"
    },
    {
      "inputs": [
        {
          "internalType": "uint256",
          "name": "_publicMaxMintAmount",
          "type": "uint256"
        }
      ],
      "name": "setPublicMaxMintAmount",
      "outputs": [],
      "stateMutability": "nonpayable",
      "type": "function"
    },
    {
      "inputs": [
        {
          "internalType": "uint256",
          "name": "_newPrice",
          "type": "uint256"
        }
      ],
      "name": "setPublicPrice",
      "outputs": [],
      "stateMutability": "nonpayable",
      "type": "function"
    },
    {
      "inputs": [
        {
          "internalType": "uint256",
          "name": "_publicSaleStartTime",
          "type": "uint256"
        }
      ],
      "name": "setPublicSaleStartTime",
      "outputs": [],
      "stateMutability": "nonpayable",
      "type": "function"
    },
    {
      "inputs": [
        {
          "internalType": "uint256",
          "name": "tierId",
          "type": "uint256"
        },
        {
          "internalType": "string",
          "name": "title",
          "type": "string"
        },
        {
          "internalType": "bytes32",
          "name": "merkleRoot",
          "type": "bytes32"
        },
        {
          "internalType": "uint256",
          "name": "price",
          "type": "uint256"
        },
        {
          "internalType": "uint256",
          "name": "maxMintAmount",
          "type": "uint256"
        },
        {
          "internalType": "uint256",
          "name": "saleStartTime",
          "type": "uint256"
        }
      ],
      "name": "setTier",
      "outputs": [],
      "stateMutability": "nonpayable",
      "type": "function"
    },
    {
      "inputs": [
        {
          "internalType": "uint256",
          "name": "tierId",
          "type": "uint256"
        },
        {
          "internalType": "uint256",
          "name": "maxMintAmount",
          "type": "uint256"
        }
      ],
      "name": "setTierMaxMintAmount",
      "outputs": [],
      "stateMutability": "nonpayable",
      "type": "function"
    },
    {
      "inputs": [
        {
          "internalType": "uint256",
          "name": "tierId",
          "type": "uint256"
        },
        {
          "internalType": "bytes32",
          "name": "merkleRoot",
          "type": "bytes32"
        }
      ],
      "name": "setTierMerkleRoot",
      "outputs": [],
      "stateMutability": "nonpayable",
      "type": "function"
    },
    {
      "inputs": [
        {
          "internalType": "uint256",
          "name": "tierId",
          "type": "uint256"
        },
        {
          "internalType": "uint256",
          "name": "price",
          "type": "uint256"
        }
      ],
      "name": "setTierPrice",
      "outputs": [],
      "stateMutability": "nonpayable",
      "type": "function"
    },
    {
      "inputs": [
        {
          "internalType": "uint256",
          "name": "tierId",
          "type": "uint256"
        },
        {
          "internalType": "uint256",
          "name": "saleStartTime",
          "type": "uint256"
        }
      ],
      "name": "setTierSaleStartTime",
      "outputs": [],
      "stateMutability": "nonpayable",
      "type": "function"
    },
    {
      "inputs": [
        {
          "internalType": "uint256",
          "name": "_tokenId",
          "type": "uint256"
        },
        {
          "internalType": "address payable",
          "name": "_royaltyRecipient",
          "type": "address"
        },
        {
          "internalType": "uint256",
          "name": "_royaltyPercentage",
          "type": "uint256"
        }
      ],
      "name": "setTokenRoyaltyInfo",
      "outputs": [],
      "stateMutability": "nonpayable",
      "type": "function"
    },
    {
      "inputs": [
        {
          "internalType": "bool",
          "name": "_tradingEnabled",
          "type": "bool"
        }
      ],
      "name": "setTradingEnabled",
      "outputs": [],
      "stateMutability": "nonpayable",
      "type": "function"
    },
    {
      "inputs": [
        {
          "internalType": "bytes4",
          "name": "interfaceId",
          "type": "bytes4"
        }
      ],
      "name": "supportsInterface",
      "outputs": [
        {
          "internalType": "bool",
          "name": "",
          "type": "bool"
        }
      ],
      "stateMutability": "view",
      "type": "function"
    },
    {
      "inputs": [],
      "name": "symbol",
      "outputs": [
        {
          "internalType": "string",
          "name": "",
          "type": "string"
        }
      ],
      "stateMutability": "view",
      "type": "function"
    },
    {
      "inputs": [
        {
          "internalType": "uint256",
          "name": "",
          "type": "uint256"
        }
      ],
      "name": "tierIds",
      "outputs": [
        {
          "internalType": "uint256",
          "name": "",
          "type": "uint256"
        }
      ],
      "stateMutability": "view",
      "type": "function"
    },
    {
      "inputs": [
        {
          "internalType": "uint256",
          "name": "",
          "type": "uint256"
        }
      ],
      "name": "tiers",
      "outputs": [
        {
          "internalType": "string",
          "name": "title",
          "type": "string"
        },
        {
          "internalType": "bytes32",
          "name": "merkleRoot",
          "type": "bytes32"
        },
        {
          "internalType": "uint256",
          "name": "price",
          "type": "uint256"
        },
        {
          "internalType": "uint256",
          "name": "maxMintAmount",
          "type": "uint256"
        },
        {
          "internalType": "uint256",
          "name": "saleStartTime",
          "type": "uint256"
        }
      ],
      "stateMutability": "view",
      "type": "function"
    },
    {
      "inputs": [],
      "name": "togglePublicSaleActive",
      "outputs": [],
      "stateMutability": "nonpayable",
      "type": "function"
    },
    {
      "inputs": [],
      "name": "toggleReveal",
      "outputs": [],
      "stateMutability": "nonpayable",
      "type": "function"
    },
    {
      "inputs": [
        {
          "internalType": "uint256",
          "name": "",
          "type": "uint256"
        }
      ],
      "name": "tokenRoyaltyPercentage",
      "outputs": [
        {
          "internalType": "uint256",
          "name": "",
          "type": "uint256"
        }
      ],
      "stateMutability": "view",
      "type": "function"
    },
    {
      "inputs": [
        {
          "internalType": "uint256",
          "name": "",
          "type": "uint256"
        }
      ],
      "name": "tokenRoyaltyRecipient",
      "outputs": [
        {
          "internalType": "address payable",
          "name": "",
          "type": "address"
        }
      ],
      "stateMutability": "view",
      "type": "function"
    },
    {
      "inputs": [
        {
          "internalType": "uint256",
          "name": "tokenId",
          "type": "uint256"
        }
      ],
      "name": "tokenURI",
      "outputs": [
        {
          "internalType": "string",
          "name": "",
          "type": "string"
        }
      ],
      "stateMutability": "view",
      "type": "function"
    },
    {
      "inputs": [],
      "name": "totalSupply",
      "outputs": [
        {
          "internalType": "uint256",
          "name": "result",
          "type": "uint256"
        }
      ],
      "stateMutability": "view",
      "type": "function"
    },
    {
      "inputs": [],
      "name": "tradingEnabled",
      "outputs": [
        {
          "internalType": "bool",
          "name": "",
          "type": "bool"
        }
      ],
      "stateMutability": "view",
      "type": "function"
    },
    {
      "inputs": [
        {
          "internalType": "address",
          "name": "from",
          "type": "address"
        },
        {
          "internalType": "address",
          "name": "to",
          "type": "address"
        },
        {
          "internalType": "uint256",
          "name": "tokenId",
          "type": "uint256"
        }
      ],
      "name": "transferFrom",
      "outputs": [],
      "stateMutability": "payable",
      "type": "function"
    },
    {
      "inputs": [
        {
          "internalType": "address",
          "name": "newOwner",
          "type": "address"
        }
      ],
      "name": "transferOwnership",
      "outputs": [],
      "stateMutability": "nonpayable",
      "type": "function"
    },
    {
      "inputs": [
        {
          "internalType": "uint256",
          "name": "tierId",
          "type": "uint256"
        },
        {
          "internalType": "uint256",
          "name": "amount",
          "type": "uint256"
        },
        {
          "internalType": "bytes32[]",
          "name": "proof",
          "type": "bytes32[]"
        }
      ],
      "name": "whitelistMint",
      "outputs": [],
      "stateMutability": "payable",
      "type": "function"
    },
    {
      "inputs": [
        {
          "internalType": "uint256",
          "name": "tierId",
          "type": "uint256"
        },
        {
          "internalType": "uint256",
          "name": "amount",
          "type": "uint256"
        },
        {
          "internalType": "bytes32[]",
          "name": "proof",
          "type": "bytes32[]"
        }
      ],
      "name": "whitelistMintWithERC20ChainlinkPrice",
      "outputs": [],
      "stateMutability": "nonpayable",
      "type": "function"
    },
    {
      "inputs": [],
      "name": "withdraw",
      "outputs": [],
      "stateMutability": "nonpayable",
      "type": "function"
    },
    {
      "inputs": [
        {
          "internalType": "address",
          "name": "erc20Token",
          "type": "address"
        }
      ],
      "name": "withdrawERC20",
      "outputs": [],
      "stateMutability": "nonpayable",
      "type": "function"
    },
    {
      "inputs": [],
      "name": "withdrawFixedComission",
      "outputs": [],
      "stateMutability": "nonpayable",
      "type": "function"
    },
    {
      "inputs": [],
      "name": "withdrawalRecipientAddress",
      "outputs": [
        {
          "internalType": "address payable",
          "name": "",
          "type": "address"
        }
      ],
      "stateMutability": "view",
      "type": "function"
    }
  ],
  "bytecode": "0x608080604052346200010c5762004e3980380380916200001f8262000127565b8339808201906101a08091126200010c5782516001600160401b0393908481116200010c578362000052918301620001b9565b9260a0518581116200010c57816200006c918401620001b9565b9260c0518681116200010c578262000086918501620001b9565b9260e051926101005191610120518981116200010c5782620000aa918301620001b9565b9161014051998a116200010c57620000fc99620000c89201620001b9565b90620000d362000214565b92620000de6200022c565b9451956101c05197620000f062000244565b99610200519b620006af565b6040516141f3908162000c468239f35b600080fd5b634e487b7160e01b600052604160045260246000fd5b6080601f91909101601f19168101906001600160401b038211908210176200014e57604052565b62000111565b602081019081106001600160401b038211176200014e57604052565b601f909101601f19168101906001600160401b038211908210176200014e57604052565b60005b838110620001a85750506000910152565b818101518382015260200162000197565b81601f820112156200010c5780516001600160401b0381116200014e5760405192620001f0601f8301601f19166020018562000170565b818452602082840101116200010c5762000211916020808501910162000194565b90565b61016051906001600160a01b03821682036200010c57565b61018051906001600160a01b03821682036200010c57565b6101e051906001600160a01b03821682036200010c57565b90600182811c921680156200028e575b60208310146200027857565b634e487b7160e01b600052602260045260246000fd5b91607f16916200026c565b601f8111620002a6575050565b600090600a6000526020600020906020601f850160051c83019410620002e9575b601f0160051c01915b828110620002dd57505050565b818155600101620002d0565b9092508290620002c7565b601f811162000301575050565b600090600b6000526020600020906020601f850160051c8301941062000344575b601f0160051c01915b8281106200033857505050565b8181556001016200032b565b909250829062000322565b601f81116200035c575050565b60009060156000526020600020906020601f850160051c830194106200039f575b601f0160051c01915b8281106200039357505050565b81815560010162000386565b90925082906200037d565b601f8111620003b7575050565b60009060046000526020600020906020601f850160051c83019410620003fa575b601f0160051c01915b828110620003ee57505050565b818155600101620003e1565b9092508290620003d8565b601f811162000412575050565b60009060036000526020600020906020601f850160051c8301941062000455575b601f0160051c01915b8281106200044957505050565b8181556001016200043c565b909250829062000433565b80519091906001600160401b0381116200014e576200048c81620004866015546200025c565b6200034f565b602080601f8311600114620004d357508190620004c29394600092620004c7575b50508160011b916000199060031b1c19161790565b601555565b015190503880620004ad565b6015600052601f198316949091907f55f448fdea98c4d29eb340757ef0a66cd03dbb9538908a6a81d96026b71ec475926000905b8782106200054257505083600195961062000528575b505050811b01601555565b015160001960f88460031b161c191690553880806200051d565b8060018596829496860151815501950193019062000507565b80519091906001600160401b0381116200014e576200058781620005816004546200025c565b620003aa565b602080601f8311600114620005c157508190620005bc9394600092620004c75750508160011b916000199060031b1c19161790565b600455565b6004600052601f198316949091907f8a35acfbc15ff81a39ae7d344fd709f28e8600b4aa8c65c6b64bfe7fe36bd19b926000905b8782106200063057505083600195961062000616575b505050811b01600455565b015160001960f88460031b161c191690553880806200060b565b80600185968294968601518155019501930190620005f5565b156200065157565b60405162461bcd60e51b815260206004820152601d60248201527f496e76616c696420636f6d6d697373696f6e2070657263656e746167650000006044820152606490fd5b90620006ab6020928281519485920162000194565b0190565b620007ac969b9762000732620007d39c97620008379f9c96620007929662000726620007979a620007ce9f986200072c94620006f6620007709a62000720933391620008a1565b600019600f55620007076000601355565b6200071a600160ff19601f541617601f55565b62000a0e565b62000a1d565b62000460565b62000a2c565b6200073d8d62000b22565b62000749612710600e55565b60108054610100600160a81b03191660089290921b610100600160a81b0316919091179055565b601180546001600160a01b0319166001600160a01b0392909216919091179055565b601455565b620007a761271082111562000649565b601255565b601680546001600160a01b0319166001600160a01b0392909216919091179055565b601755565b6040516020810181620007e7828562000696565b0391620007fd601f199384810183528262000170565b51902060405160008152620008128162000154565b602081519101201491821562000839575b505060ff8019601054169115151617601055565b565b90915060405162000861816200085460208201809562000696565b0384810183528262000170565b51902090604051620008956020820192826200088885600490631b9d5b1b60e21b81520190565b0390810183528262000170565b51902014388062000823565b6001600160a01b039283168015620009f557600080546001600160a01b03198116831782559094167f8be0079c531659141344cd1fd0a4f28419497f9722a3daafe3b4186f6b6457e08580a38051906001600160401b0382116200014e576200091782620009116003546200025c565b62000405565b602090816001601f8511146200096357509180916200095093620009599692620004c75750508160011b916000199060031b1c19161790565b6003556200055b565b6200083760018055565b6003600052939492937fc2575a0e9e593c00f959f8c92f12db2869c3395a3b0502d05e2516446f71f85b93601f198616915b828210620009dc5750509160019391856200095997969410620009c2575b505050811b016003556200055b565b015160001960f88460031b161c19169055388080620009b3565b8060018697829497870151815501960194019062000995565b604051631e4fbdf760e01b815260006004820152602490fd5b62000a1862000c18565b600c55565b62000a2762000c18565b600d55565b9062000a3762000c18565b81516001600160401b0381116200014e5762000a608162000a5a600a546200025c565b62000299565b602080601f831160011462000a9a5750819062000a959394600092620004c75750508160011b916000199060031b1c19161790565b600a55565b600a600052601f198316949091907fc65a7bb8d6351c1cf70c95a316cc6a92839c986682d98bc35f958f4883f9d2a8926000905b87821062000b0957505083600195961062000aef575b505050811b01600a55565b015160001960f88460031b161c1916905538808062000ae4565b8060018596829496860151815501950193019062000ace565b9062000b2d62000c18565b81516001600160401b0381116200014e5762000b568162000b50600b546200025c565b620002f4565b602080601f831160011462000b905750819062000b8b9394600092620004c75750508160011b916000199060031b1c19161790565b600b55565b600b600052601f198316949091907f0175b7a638427703f0dbe7bb9bbf987a2551717b34e79f33b5b1008d1fa01db9926000905b87821062000bff57505083600195961062000be5575b505050811b01600b55565b015160001960f88460031b161c1916905538808062000bda565b8060018596829496860151815501950193019062000bc4565b6000546001600160a01b0316330362000c2d57565b60405163118cdaa760e01b8152336004820152602490fdfe6080604052600436101561001257600080fd5b60003560e01c8063011013c61461055757806301ffc9a714610552578063039af9eb1461054d57806306fdde0314610548578063081812fc14610543578063083d40ca1461053e578063095ea7b3146105395780630b0bfbe9146105345780630c894cfe1461052f5780630ee196f51461052a57806311131f1f1461052557806318160ddd146105205780631aef99b71461051b5780631f7fc3b21461051657806323b872dd1461051157806323ce9efa1461050c5780632a55205a146105075780632ccf7145146105025780632f285709146104fd5780633ccfd60b146104f85780633e5fe94f146104f357806342842e0e146104ee57806343d3e469146104e957806344337ea1146104e457806348313029146104df5780634ada218b146104da578063535ba42f146104d5578063537df3b6146104d057806354214f69146104cb57806355f804b3146104c65780635b5c7c48146104c15780635b8ad429146104bc5780635e6bb7bf146104b7578063600dd5ea146104b257806362b974e2146104ad5780636352211e146104a857806365831507146104a35780636bb7b1d91461049e5780636d5d40c6146104995780636f8b44b01461049457806370a082311461048f578063715018a61461048a57806372250380146104855780638034ed0614610480578063838aed021461047b578063848769de14610476578063849355dc146104715780638add9f061461046c5780638d56ef1d146104675780638da5cb5b1461046257806392affb621461045d578063938e3d7b14610458578063944964cf1461045357806395d89b411461044e578063a0712d6814610449578063a22cb46514610444578063a945bf801461043f578063ac3adb181461043a578063acaa27fc14610435578063b88d4fde14610430578063bfac4d0f1461042b578063c2e5ec0414610426578063c4be5b5914610421578063c62752551461041c578063c7dd451714610417578063c87b56dd14610412578063cc1acb9d1461040d578063cce54e4414610408578063cd05de6d14610403578063d5abeb01146103fe578063d8cde1c6146103f9578063da350c86146103f4578063e26127e8146103ef578063e58306f9146103ea578063e8a3d485146103e5578063e985e9c5146103e0578063eae483c5146103db578063ee5c2e66146103d6578063f0bc91c0146103d1578063f2c4ce1e146103cc578063f2fde38b146103c7578063f4f3b200146103c2578063f799bed4146103bd5763f9f92be4146103b857600080fd5b61292c565b6128de565b612705565b612679565b612582565b61254d565b612524565b6124dd565b612475565b6123cd565b61237d565b61233b565b6122f4565b612251565b612233565b6121df565b6121c1565b612101565b6120e2565b612020565b611fff565b611f56565b611f1c565b611ece565b611e6c565b611dfd565b611d6b565b611d4d565b611cb8565b611c29565b611b81565b611abf565b61196b565b61188b565b611862565b611835565b61180c565b6117ee565b611772565b611724565b6116d9565b6116a9565b61164e565b611627565b611606565b6115e5565b6115c7565b611562565b611533565b6114ff565b6114b2565b611464565b611433565b611415565b611312565b611262565b61121d565b6111f4565b6111d1565b6111b0565b611168565b611039565b610fb0565b610f92565b610e78565b610e39565b610ddb565b610d06565b610cdd565b610cc9565b610c56565b610c2d565b610c09565b610be6565b610bba565b610b89565b610b6b565b610ab1565b610a6d565b6109ae565b6108c5565b61083f565b61058f565b34610578576020366003190112610578576105706136ec565b600435601955005b600080fd5b6001600160e01b031981160361057857565b346105785760203660031901126105785760206004356105ae8161057d565b6001600160e01b0319811663152a902d60e11b149081156105ec575b81156105dc575b506040519015158152f35b6105e69150613718565b386105d1565b90506105f781613718565b906105ca565b90600182811c9216801561062d575b602083101461061757565b634e487b7160e01b600052602260045260246000fd5b91607f169161060c565b634e487b7160e01b600052604160045260246000fd5b602081019081106001600160401b0382111761066857604052565b610637565b90601f801991011681019081106001600160401b0382111761066857604052565b60405190600082600b54916106a2836105fd565b8083529260209060019081811690811561073057506001146106cf575b50506106cd9250038361066d565b565b915092600b6000527f0175b7a638427703f0dbe7bb9bbf987a2551717b34e79f33b5b1008d1fa01db9936000925b82841061071857506106cd94505050810160200138806106bf565b855488850183015294850194879450928101926106fd565b915050602092506106cd94915060ff191682840152151560051b82010138806106bf565b90604051918260008254610767816105fd565b908184526020946001916001811690816000146107d55750600114610796575b5050506106cd9250038361066d565b600090815285812095935091905b8183106107bd5750506106cd9350820101388080610787565b855488840185015294850194879450918301916107a4565b925050506106cd94925060ff191682840152151560051b820101388080610787565b60005b83811061080a5750506000910152565b81810151838201526020016107fa565b90602091610833815180928185528580860191016107f7565b601f01601f1916010190565b34610578576020366003190112610578576004356000526021602052610898604060002061086c81610754565b90600181015490600281015490600460038201549101549160405195869560a0875260a087019061081a565b9360208601526040850152606084015260808301520390f35b9060206108c292818152019061081a565b90565b34610578576000806003193601126109ab576040519080600354906108e9826105fd565b8085529160209160019182811690811561097e5750600114610926575b610922866109168188038261066d565b604051918291826108b1565b0390f35b9350600384527fc2575a0e9e593c00f959f8c92f12db2869c3395a3b0502d05e2516446f71f85b5b83851061096b575050505081016020016109168261092238610906565b805486860184015293820193810161094e565b90508695506109229693506020925061091694915060ff191682840152151560051b820101929338610906565b80fd5b34610578576020806003193601126105785760043580916000916001918160011115610a0e575b505050156109fd576000526007602052602060018060a01b0360406000205416604051908152f35b6333d1c03960e21b60005260046000fd5b6001548210156109d55760009391929190825b610a39575b50505050600160e01b16153880806109d5565b90919280945082526005815260408220549384610a68578015610a63576000190192919082610a21565b61296d565b610a26565b3461057857602036600319011261057857610a866136ec565b600435600052602160205260006004604082200155600080f35b6001600160a01b0381160361057857565b604036600319011261057857600435610ac981610aa0565b6024356001600160a01b0380610ade836137c0565b1690813303610b39575b600083815260076020526040812080546001600160a01b0319166001600160a01b0387161790559316907f8c5be1e5ebec7d5bd14f71427d1e84f3dd0314c0f7b2291e5b200ac8c7c3b9258480a480f35b600082815260086020908152604080832033845290915290205460ff16610ae8576367d9dca160e11b60005260046000fd5b34610578576000366003190112610578576020601754604051908152f35b3461057857600036600319011261057857610ba26136ec565b600f54421015610bb25742600f55005b600019600f55005b3461057857602036600319011261057857600435600052601e6020526020604060002054604051908152f35b34610578576000366003190112610578576020610c016129a0565b604051908152f35b34610578576000366003190112610578576001546002546020910360001901610c01565b34610578576000366003190112610578576018546040516001600160a01b039091168152602090f35b3461057857602036600319011261057857600435610c7381610aa0565b610c7b6136ec565b601c80546001600160a01b0319166001600160a01b0392909216919091179055005b606090600319011261057857600435610cb581610aa0565b90602435610cc281610aa0565b9060443590565b610cdb610cd536610c9d565b916129c8565b005b34610578576000366003190112610578576011546040516001600160a01b039091168152602090f35b34610578576040366003190112610578576004356000818152601e60205260409020548015610dd2575b6000828152601d602052604090206001600160a01b0392908390610d5c905b546001600160a01b031690565b1615610db357610d94610d8c610d82610d4f61092294600052601d602052604060002090565b935b602435612b98565b612710900490565b60408051949093166001600160a01b0316845260208401528291820190565b5060165461092290610d9490610d8c906001600160a01b031693610d84565b50601754610d30565b34610578576000366003190112610578576020601a54604051908152f35b634e487b7160e01b600052603260045260246000fd5b602254811015610e3457602260005260008051602061419e8339815191520190600090565b610df9565b346105785760203660031901126105785760043560225481101561057857602090602260005260008051602061419e8339815191520154604051908152f35b34610578576000806003193601126109ab57610e9a6013546014541115612bcb565b80546001600160a01b031633148015610f75575b8015610f4f575b610ebe90612c25565b610ece610d8c4760125490612b98565b610ed88147612993565b908281610f29575b905081610eea5780f35b601054610f2492829182918291610f149060081c6001600160a01b03165b6001600160a01b031690565b5af1610f1e612c9c565b50612ccc565b388180f35b601154610f4892829182918291610f14906001600160a01b0316610f08565b3882610ee0565b50601054610ebe90610f6c9060081c6001600160a01b0316610f08565b33149050610eb5565b50601154610f8b906001600160a01b0316610f08565b3314610eae565b34610578576000366003190112610578576020601954604051908152f35b610cdb610fbc36610c9d565b9060405192610fca8461064d565b60008452613486565b9181601f84011215610578578235916001600160401b038311610578576020808501948460051b01011161057857565b6060600319820112610578576004359160243591604435906001600160401b0382116105785761103591600401610fd3565b9091565b34610578576000611072602061110d61106a61105436611003565b9196929390936000526021602052604060002090565b928387613a74565b601854611089906001600160a01b03161515612cd3565b6110b86110a261109d866002850154612b98565b6132ac565b3360009081526005909301602052604090922090565b6110c3858254612d1f565b90556018546110dc90610f08906001600160a01b031681565b6040516323b872dd60e01b815233600482015230602482015260448101929092529094859283919082906064820190565b03925af191821561116357610cdb9261112e91600091611134575b50612d4d565b33613b2c565b611156915060203d60201161115c575b61114e818361066d565b810190612d2c565b38611128565b503d611144565b612d41565b346105785760203660031901126105785760043561118581610aa0565b61118d6136ec565b6001600160a01b031660009081526020805260409020805460ff19166001179055005b34610578576020366003190112610578576111c96136ec565b600435600e55005b3461057857600036600319011261057857602060ff601f54166040519015158152f35b34610578576000366003190112610578576016546040516001600160a01b039091168152602090f35b346105785760203660031901126105785760043561123a81610aa0565b6112426136ec565b6001600160a01b031660009081526020805260409020805460ff19169055005b3461057857600036600319011261057857602060ff601054166040519015158152f35b6001600160401b03811161066857601f01601f191660200190565b9291926112ac82611285565b916112ba604051938461066d565b829481845281830111610578578281602093846000960137010152565b602060031982011261057857600435906001600160401b0382116105785780602383011215610578578160246108c2936004013591016112a0565b3461057857611320366112d7565b6113286136ec565b80516001600160401b0381116106685761134c81611347600a546105fd565b612d90565b602080601f831160011461138e5750819061137e93600092611383575b50508160011b916000199060031b1c19161790565b600a55005b015190503880611369565b90601f198316936113c1600a6000527fc65a7bb8d6351c1cf70c95a316cc6a92839c986682d98bc35f958f4883f9d2a890565b926000905b8682106113fd57505083600195106113e4575b505050811b01600a55005b015160001960f88460031b161c191690553880806113d9565b806001859682949686015181550195019301906113c6565b34610578576000366003190112610578576020601254604051908152f35b346105785760003660031901126105785761144c6136ec565b60105460ff80821615169060ff191617601055600080f35b34610578576040366003190112610578576004356114806136ec565b600090808252602160205261149d60016040842001541515612f3c565b81526021602052602435600260408320015580f35b34610578576040366003190112610578576004356114cf81610aa0565b6114d76136ec565b601680546001600160a01b0319166001600160a01b0392909216919091179055602435601755005b3461057857602036600319011261057857600435600052601d602052602060018060a01b0360406000205416604051908152f35b346105785760203660031901126105785760206001600160a01b036115596004356137c0565b16604051908152f35b346105785760c0366003190112610578576024356001600160401b03808211610578573660238301121561057857816004013590811161057857366024828401011161057857610cdb9160a43591608435916064359160246044359201600435612f7e565b34610578576000366003190112610578576020600f54604051908152f35b34610578576020366003190112610578576115fe6136ec565b600435600f55005b346105785760203660031901126105785761161f6136ec565b600435600c55005b34610578576020366003190112610578576020610c0160043561164981610aa0565b61311a565b34610578576000806003193601126109ab576116686136ec565b80546001600160a01b03198116825581906001600160a01b03167f8be0079c531659141344cd1fd0a4f28419497f9722a3daafe3b4186f6b6457e08280a380f35b34610578576000366003190112610578576109226116c561068e565b60405191829160208352602083019061081a565b34610578576060366003190112610578576024356116f681610aa0565b6044356001600160401b0381116105785760209161171b610c01923690600401610fd3565b916004356131aa565b34610578576040366003190112610578576004356117406136ec565b600090808252602160205261175d60016040842001541515612f3c565b81526021602052602435600460408320015580f35b3461057857602036600319011261057857600060043561179181613d68565b60185460209061110d906001600160a01b03166117af811515612cd3565b6117be61109d85600d54612b98565b6040516323b872dd60e01b8152336004820152306024820152604481019190915294859283919082906064820190565b34610578576020366003190112610578576020610c016004356132ac565b3461057857600036600319011261057857601c546040516001600160a01b039091168152602090f35b346105785760003660031901126105785760105460405160089190911c6001600160a01b03168152602090f35b34610578576000366003190112610578576000546040516001600160a01b039091168152602090f35b34610578576000806003193601126109ab5780546118b1906001600160a01b0316610f08565b33148015611948575b6118c390612c25565b61193d8180808061190e6119186119136014546013546118e38183612993565b478111156119405750479485925b6118fd84471015613384565b6119078484612d1f565b11156133c7565b612d1f565b601355565b60115461192d906001600160a01b0316610f08565b5af1611937612c9c565b50613439565b80f35b9485926118f1565b506011546118c390611962906001600160a01b0316610f08565b331490506118ba565b3461057857611979366112d7565b6119816136ec565b80516001600160401b038111610668576119a5816119a06015546105fd565b612e02565b602080601f8311600114611a01575081906119d6936000926113835750508160011b916000199060031b1c19161790565b6015555b7fa5d4097edda6d87cb9329af83fb3712ef77eeb13738ffe43cc35a4ce305ad962600080a1005b90601f19831693611a3460156000527f55f448fdea98c4d29eb340757ef0a66cd03dbb9538908a6a81d96026b71ec47590565b926000905b868210611a735750508360019510611a5a575b505050811b016015556119da565b015160001960f88460031b161c19169055388080611a4c565b80600185968294968601518155019501930190611a39565b9695949192611aba9360a09592895260208901526040880152606087015260c0608087015260c086019061081a565b930152565b3461057857602036600319011261057857611ae66004356000526021602052604060002090565b6002810154604051632124d57760e21b815260048101829052909190602081602481305afa60009181611b50575b50611b47575061092260005b600183015492600381015490611b3a600482015491610754565b9160405196879687611a8b565b61092290611b20565b611b7391925060203d602011611b7a575b611b6b818361066d565b810190613477565b9038611b14565b503d611b61565b34610578576000806003193601126109ab57604051908060045490611ba5826105fd565b8085529160209160019182811690811561097e5750600114611bd157610922866109168188038261066d565b9350600484527f8a35acfbc15ff81a39ae7d344fd709f28e8600b4aa8c65c6b64bfe7fe36bd19b5b838510611c16575050505081016020016109168261092238610906565b8054868601840152938201938101611bf9565b602036600319011261057857600435611c4181613d68565b611c4d81600d54612b98565b3410611c5d57610cdb9033613b2c565b60405162461bcd60e51b815260206004820152602360248201527f436f737420697320686967686572207468616e2074686520616d6f756e742073604482015262195b9d60ea1b6064820152608490fd5b8015150361057857565b3461057857604036600319011261057857600435611cd581610aa0565b60243590611ce282611cae565b3360009081526008602090815260408083206001600160a01b038516845290915290209115159160ff1981541660ff841617905560405191825260018060a01b0316907f17307eab39ab6107e8899845ad3d59bd9653f200f220920489ca2b5937696c3160203392a3005b34610578576000366003190112610578576020600d54604051908152f35b34610578576000806003193601126109ab57600d5460405190632124d57760e21b82526004820152602081602481305afa829181611ddc575b50611dd557505b601854601954604080516001600160a01b0390931683526020830191909152810191909152606090f35b9050611dab565b611df691925060203d602011611b7a57611b6b818361066d565b9038611da4565b3461057857602036600319011261057857600435611e196136ec565b6127108111611e2757601a55005b60405162461bcd60e51b815260206004820152601b60248201527f496e76616c696420646973636f756e742070657263656e7461676500000000006044820152606490fd5b608036600319011261057857600435611e8481610aa0565b602435611e9081610aa0565b606435916001600160401b038311610578573660238401121561057857611ec4610cdb9336906024816004013591016112a0565b9160443591613486565b3461057857604036600319011261057857600435611eea6136ec565b6000908082526021602052611f0760016040842001541515612f3c565b81526021602052602435600160408320015580f35b3461057857602036600319011261057857600435611f3981611cae565b611f416136ec565b60ff8019601f54169115151617601f55600080f35b611f7c611f6236611003565b909260009492945260216020526040600020928385613a74565b611f8a600282015483612b98565b3410611fba57336000908152600590910160205260409020908154818101809111610a6357610cdb925533613b2c565b60405162461bcd60e51b815260206004820152601b60248201527f496e73756666696369656e742066756e647320666f72206d696e7400000000006044820152606490fd5b34610578576020366003190112610578576120186136ec565b600435600d55005b34610578576040366003190112610578576001600160401b0360043581811161057857612051903690600401610fd3565b90916024359081116105785761206b903690600401610fd3565b9190926120766136ec565b60005b82811061208257005b61208d8184846134c9565b359061209882610aa0565b6120a38186886134c9565b356120ac6136ec565b60015460025490036000190190808201809211610a63576001936120d76120dc93600c5410156136a8565b613b2c565b01612079565b34610578576020366003190112610578576109226116c560043561357f565b346105785760603660031901126105785760043560243561212181610aa0565b6121296136ec565b6001600160a01b0361213a836137c0565b1615612185576000828152601d6020526040902080546001600160a01b0319166001600160a01b0390921691909117905561218260443591600052601e602052604060002090565b55005b60405162461bcd60e51b8152602060048201526014602482015273151bdad95b88191bd95cc81b9bdd08195e1a5cdd60621b6044820152606490fd5b34610578576000366003190112610578576020600e54604051908152f35b346105785760203660031901126105785760006004356121fe81613d68565b60185460209061110d906001600160a01b031661221c811515612cd3565b6117be8460195461222e81151561365c565b612b98565b34610578576000366003190112610578576020600c54604051908152f35b34610578576000806003193601126109ab57604051809160225490818352602080930180926022835260008051602061419e83398151915290835b8181106122e057505050846122a291038561066d565b60405193838594850191818652518092526040850193925b8281106122c957505050500390f35b8351855286955093810193928101926001016122ba565b82548452928601926001928301920161228c565b346105785760203660031901126105785760043561231181610aa0565b6123196136ec565b601b80546001600160a01b0319166001600160a01b0392909216919091179055005b34610578576000366003190112610578576001546002546080910360001901600c5490600d5490600f5491604051938452602084015260408301526060820152f35b346105785760403660031901126105785760043561239a81610aa0565b6024356123a56136ec565b60015460025490036000190191818301809311610a63576120d7610cdb93600c5410156136a8565b34610578576000806003193601126109ab576040519080601554906123f1826105fd565b8085529160209160019182811690811561097e575060011461241d57610922866109168188038261066d565b9350601584527f55f448fdea98c4d29eb340757ef0a66cd03dbb9538908a6a81d96026b71ec4755b838510612462575050505081016020016109168261092238610906565b8054868601840152938201938101612445565b3461057857604036600319011261057857602060ff6124d160043561249981610aa0565b602435906124a682610aa0565b60018060a01b03166000526008845260406000209060018060a01b0316600052602052604060002090565b54166040519015158152f35b34610578576020366003190112610578576004356124fa81610aa0565b6125026136ec565b601880546001600160a01b0319166001600160a01b0392909216919091179055005b3461057857600036600319011261057857601b546040516001600160a01b039091168152602090f35b34610578576020366003190112610578576125666136ec565b6004356000526021602052600019600460406000200155600080f35b3461057857612590366112d7565b6125986136ec565b80516001600160401b038111610668576125bc816125b7600b546105fd565b612e74565b602080601f83116001146125f2575081906125ed936000926113835750508160011b916000199060031b1c19161790565b600b55005b90601f19831693612625600b6000527f0175b7a638427703f0dbe7bb9bbf987a2551717b34e79f33b5b1008d1fa01db990565b926000905b8682106126615750508360019510612648575b505050811b01600b55005b015160001960f88460031b161c1916905538808061263d565b8060018596829496860151815501950193019061262a565b346105785760203660031901126105785760043561269681610aa0565b61269e6136ec565b6001600160a01b0390811680156126ec57600080546001600160a01b03198116831782559092167f8be0079c531659141344cd1fd0a4f28419497f9722a3daafe3b4186f6b6457e08380a380f35b604051631e4fbdf760e01b815260006004820152602490fd5b3461057857602080600319360112610578576004359061272482610aa0565b6000805490929061273d906001600160a01b0316610f08565b331480156128c1575b801561289b575b61275690612c25565b6040516370a0823160e01b8152306004820152906001600160a01b03168282602481845afa91821561116357849261287c575b506127a361279c610d8c60125485612b98565b8093612993565b91838161281e575b5050816127b6578380f35b60105460405163a9059cbb60e01b815260089190911c6001600160a01b031660048201526024810192909252829082908186816044810103925af180156111635761280057808380f35b8161281692903d1061115c5761114e818361066d565b503880808380f35b60115460405163a9059cbb60e01b81526001600160a01b03909116600482015260248101929092528160448188865af180156111635761285f575b836127ab565b61287590843d861161115c5761114e818361066d565b5038612859565b612894919250833d8511611b7a57611b6b818361066d565b9038612789565b50601054612756906128b89060081c6001600160a01b0316610f08565b3314905061274d565b506011546128d7906001600160a01b0316610f08565b3314612746565b34610578576040366003190112610578576004356128fa6136ec565b600090808252602160205261291760016040842001541515612f3c565b81526021602052602435600360408320015580f35b346105785760203660031901126105785760043561294981610aa0565b60018060a01b031660005260208052602060ff604060002054166040519015158152f35b634e487b7160e01b600052601160045260246000fd5b90612710918203918211610a6357565b91908203918211610a6357565b6129a93361311a565b600e5490818110156129c1578103908111610a635790565b5050600090565b9190916129d4826137c0565b6001600160a01b039182169390828116859003612b795760008481526007602052604090208054612a186001600160a01b03881633908114908314171590565b1590565b612b2b575b612a2687613848565b612b21575b506001600160a01b038516600090815260066020526040902080546000190190556001600160a01b0382166000908152600660205260409020805460010190556001600160a01b0382164260a01b17600160e11b17612a94856000526005602052604060002090565b55600160e11b811615612ad7575b501680927fddf252ad1be2c89b69c2b068fc378daa952ba7f163c4a11628f55a4df523b3ef600080a415612ad257565b61377d565b60018401612aef816000526005602052604060002090565b5415612afc575b50612aa2565b6001548114612af657612b19906000526005602052604060002090565b553880612af6565b6000905538612a2b565b612b6f612a14612b6833612b518b60018060a01b03166000526008602052604060002090565b9060018060a01b0316600052602052604060002090565b5460ff1690565b15612a1d5761376c565b61375c565b906402540be40091828102928184041490151715610a6357565b81810292918115918404141715610a6357565b8115612bb5570490565b634e487b7160e01b600052601260045260246000fd5b15612bd257565b60405162461bcd60e51b815260206004820152602560248201527f5468726573686f6c6420666f722041206d757374206265207265616368656420604482015264199a5c9cdd60da1b6064820152608490fd5b15612c2c57565b60405162461bcd60e51b815260206004820152602f60248201527f4f6e6c79206f776e6572206f7220636f6d6d697373696f6e207265636970696560448201526e6e742063616e20776974686472617760881b6064820152608490fd5b60405190612c968261064d565b60008252565b3d15612cc7573d90612cad82611285565b91612cbb604051938461066d565b82523d6000602084013e565b606090565b1561057857565b15612cda57565b60405162461bcd60e51b815260206004820152601d60248201527f5061796d656e7420746f6b656e2061646472657373206e6f74207365740000006044820152606490fd5b91908201809211610a6357565b9081602091031261057857516108c281611cae565b6040513d6000823e3d90fd5b15612d5457565b60405162461bcd60e51b8152602060048201526014602482015273115490cc8c081c185e5b595b9d0819985a5b195960621b6044820152606490fd5b601f8111612d9c575050565b600090600a6000527fc65a7bb8d6351c1cf70c95a316cc6a92839c986682d98bc35f958f4883f9d2a8906020601f850160051c83019410612df8575b601f0160051c01915b828110612ded57505050565b818155600101612de1565b9092508290612dd8565b601f8111612e0e575050565b60009060156000527f55f448fdea98c4d29eb340757ef0a66cd03dbb9538908a6a81d96026b71ec475906020601f850160051c83019410612e6a575b601f0160051c01915b828110612e5f57505050565b818155600101612e53565b9092508290612e4a565b601f8111612e80575050565b600090600b6000527f0175b7a638427703f0dbe7bb9bbf987a2551717b34e79f33b5b1008d1fa01db9906020601f850160051c83019410612edc575b601f0160051c01915b828110612ed157505050565b818155600101612ec5565b9092508290612ebc565b90601f8111612ef457505050565b6000916000526020600020906020601f850160051c83019410612f32575b601f0160051c01915b828110612f2757505050565b818155600101612f1b565b9092508290612f12565b15612f4357565b60405162461bcd60e51b8152602060048201526013602482015272151a595c88191bd95cc81b9bdd08195e1a5cdd606a1b6044820152606490fd5b95929394909194612f8d6136ec565b600095878752602060216020526040882094600197888701556001600160401b03831161066857612fc883612fc288546105fd565b88612ee6565b8891601f841160011461306c57509180612ffd926004979695948b926130615750508160011b916000199060031b1c19161790565b83555b600283015560038201550155809180602254915b828110613030575b505050506130275750565b6106cd906130df565b8561304761303d83610e0f565b90549060031b1c90565b14613053578301613014565b50925050503880808061301c565b013590503880611369565b88929695949391601f19831661308788600052602060002090565b928c905b8282106130c65750509783600499106130ac575b505050811b018355613000565b0135600019600384901b60f8161c1916905538808061309f565b8a8401358555998a01998c96909401939081019061308b565b60225468010000000000000000811015610668576001810180602255811015610e3457602260005260008051602061419e8339815191520155565b6001600160a01b031680156131435760005260066020526001600160401b036040600020541690565b6323d3ad8160e21b60005260046000fd5b9092916001600160401b038411610668578360051b602092602060405161317d8285018261066d565b809781520191810192831161057857905b82821061319b5750505050565b8135815290830190830161318e565b9161321b9193612a149161321660016131cd876000526021602052604060002090565b015491604051602081019061320b816131fd8c856014916bffffffffffffffffffffffff199060601b1681520190565b03601f19810183528261066d565b519020933691613154565b613c7c565b6129c157613251826005613239846000526021602052604060002090565b019060018060a01b0316600052602052604060002090565b546003613268836000526021602052604060002090565b015411156129c1576132a56108c29260056132396003613292866000526021602052604060002090565b0154946000526021602052604060002090565b5490612993565b601c546001600160a01b0390811691908215159081613376575b50156133315761330a6132db61330f93613e22565b601b54613304906132fe906132f8906001600160a01b0316613e22565b92612b7e565b91612b7e565b92612b98565b612bab565b601a548061331b575090565b6108c29161332b610d8c92612983565b90612b98565b60405162461bcd60e51b815260206004820152601c60248201527f5072696365206665656420616464726573736573206e6f7420736574000000006044820152606490fd5b9050601b54161515386132c6565b1561338b57565b60405162461bcd60e51b8152602060048201526014602482015273496e73756666696369656e742062616c616e636560601b6044820152606490fd5b156133ce57565b60405162461bcd60e51b815260206004820152603a60248201527f546f74616c207769746864726177616c20627920636f6d6d697373696f6e206360448201527f616e6e6f742065786365656420746865207468726573686f6c640000000000006064820152608490fd5b1561344057565b60405162461bcd60e51b815260206004820152600f60248201526e151c985b9cd9995c8819985a5b1959608a1b6044820152606490fd5b90816020910312610578575190565b9291906134948282866129c8565b803b6134a1575b50505050565b6134aa93613ffe565b156134b8573880808061349b565b6368d2bf6b60e11b60005260046000fd5b9190811015610e345760051b0190565b600a54600092916134e9826105fd565b91600190818116908115613555575060011461350457505050565b9091929350600a6000527fc65a7bb8d6351c1cf70c95a316cc6a92839c986682d98bc35f958f4883f9d2a8906000915b848310613542575050500190565b8181602092548587015201920191613534565b60ff191683525050811515909102019150565b9061357b602092828151948592016107f7565b0190565b6001600160a01b03613590826137c0565b16156135ff5760105460ff16156135f6576135aa90614059565b6135b5600a546105fd565b156135ed576108c26135dc916131fd6040519384926135d6602085016134d9565b90613568565b64173539b7b760d91b815260050190565b506108c2612c89565b506108c261068e565b60405162461bcd60e51b815260206004820152602f60248201527f4552433732314d657461646174613a2055524920717565727920666f72206e6f60448201526e3732bc34b9ba32b73a103a37b5b2b760891b6064820152608490fd5b1561366357565b60405162461bcd60e51b815260206004820152601760248201527f50726963652070657220746f6b656e206e6f74207365740000000000000000006044820152606490fd5b156136af57565b60405162461bcd60e51b8152602060048201526015602482015274151bdd185b081cdd5c1c1b1e48195e18d959591959605a1b6044820152606490fd5b6000546001600160a01b0316330361370057565b60405163118cdaa760e01b8152336004820152602490fd5b63ffffffff60e01b166301ffc9a760e01b811490811561374b575b811561373d575090565b635b5e139f60e01b14919050565b6380ac58cd60e01b81149150613733565b62a1148160e81b60005260046000fd5b632ce44b5f60e11b60005260046000fd5b633a954ecd60e21b60005260046000fd5b636f96cda160e11b60005260046000fd5b63b562e8dd60e01b60005260046000fd5b622e076360e81b60005260046000fd5b6001908060011161378e576137df816000526005602052604060002090565b549182156137fc575b5050600160e01b8116156108c2578061378e565b60015482101561378e5790815b156137e85790915060001901613829816000526005602052604060002090565b54918215613841575050600160e01b811661378e5790565b9081613809565b6001600160a01b031661385757565b60ff601f5416156138d157336000526020805260ff6040600020541661387957565b60405162461bcd60e51b815260206004820152602a60248201527f426c61636b6c697374656420656e7469746965732063616e6e6f7420657865636044820152697574652074726164657360b01b6064820152608490fd5b60405162461bcd60e51b8152602060048201526013602482015272151c98591a5b99c81a5cc8191a5cd8589b1959606a1b6044820152606490fd5b1561391357565b60405162461bcd60e51b815260206004820152601260248201527154696572206973206e6f742061637469766560701b6044820152606490fd5b1561395457565b60405162461bcd60e51b8152602060048201526015602482015274151a595c881cd85b19481b9bdd081cdd185c9d1959605a1b6044820152606490fd5b1561399857565b60405162461bcd60e51b815260206004820152602160248201527f4e6f7420696e2070726573616c65206c69737420666f722074686973207469656044820152603960f91b6064820152608490fd5b156139ee57565b60405162461bcd60e51b815260206004820152601c60248201527f457863656564732074696572206d6178206d696e7420616d6f756e74000000006044820152606490fd5b15613a3a57565b60405162461bcd60e51b815260206004820152601260248201527145786365656473206d617820737570706c7960701b6044820152606490fd5b90613b09613b1191613aec613ae76106cd97613b2297613216600186015491613a9e831515612f3c565b613abc6004880154613ab460001982141561390c565b42101561394d565b6040513360601b6bffffffffffffffffffffffff1916602082019081529061320b81603481016131fd565b613991565b6003810154336000908152600590920160205260409091206132a5565b8211156139e7565b600154600254900360001901612d1f565b600c541015613a33565b9060405191613b3a8361064d565b60009283815260019182548415613c77576001600160a01b0382164260a01b86861460e11b1717613b75826000526005602052604060002090565b556001600160a01b038216600081815260066020526040902080546801000000000000000188020190558015613c725785820191908580805b613c23575b50505050613bc090600155565b803b613bce575b5050505050565b82549384039083805b613bef575b5050505054036109ab5780808080613bc7565b15613c16575b85613c07612a14858786019585613f64565b613c115784613bd7565b6134b8565b848210613bf55780613bdc565b15613c5a575b50878683838b7fddf252ad1be2c89b69c2b068fc378daa952ba7f163c4a11628f55a4df523b3ef8180a49081613bae565b90910190828214613c6b5785613c29565b8581613bb3565b6137b0565b61379f565b9091906000915b8151831015613cc9576020808460051b84010151916000838210600014613cb9575060005252600160406000205b920191613c83565b9060409260019483525220613cb1565b9150501490565b15613cd757565b60405162461bcd60e51b815260206004820152601d60248201527f596f75206861766520746f206d696e74206174206c65617374206f6e650000006044820152606490fd5b15613d2357565b60405162461bcd60e51b815260206004820152601b60248201527f496e76616c696420616d6f756e7420746f206265206d696e74656400000000006044820152606490fd5b600154600254900360001901818101809111610a6357613d8c90600c5410156136a8565b600f544210613dcd57613dc381613da76106cd931515613cd0565b613dba81613db36129a0565b1015613d1c565b61190e3361311a565b600e541015613d1c565b60405162461bcd60e51b81526020600482015260166024820152755075626c69632073616c65206e6f742061637469766560501b6044820152606490fd5b519069ffffffffffffffffffff8216820361057857565b604051633fabe5a360e21b81529060a090829060049082906001600160a01b03165afa90811561116357600091613ea6575b506000811315613e615790565b60405162461bcd60e51b815260206004820152601c60248201527f496e76616c69642070726963652066726f6d20436861696e6c696e6b000000006044820152606490fd5b905060a0813d60a011613eeb575b81613ec160a0938361066d565b8101031261057857613ed281613e0b565b50613ee4608060208301519201613e0b565b5038613e54565b3d9150613eb4565b9081602091031261057857516108c28161057d565b6108c2939260809260018060a01b03168252600060208301526040820152816060820152019061081a565b6001600160a01b0391821681529116602082015260408101919091526080606082018190526108c29291019061081a565b613f8d60209160009394604051948580948193630a85bd0160e11b998a84523360048501613f08565b03926001600160a01b03165af160009181613fcd575b50613fbf57613fb0612c9c565b8051156134b857805190602001fd5b6001600160e01b0319161490565b613ff091925060203d602011613ff7575b613fe8818361066d565b810190613ef3565b9038613fa3565b503d613fde565b92602091613f8d936000604051809681958294630a85bd0160e11b9a8b85523360048601613f33565b9061403182611285565b61403e604051918261066d565b828152809261404f601f1991611285565b0190602036910137565b806000917a184f03e93ff9f4daa797ed6e38ed64bf6a1f0100000000000000008082101561418f575b506d04ee2d6d415b85acef810000000080831015614180575b50662386f26fc1000080831015614171575b506305f5e10080831015614162575b5061271080831015614153575b506064821015614143575b600a80921015614139575b6001908160216140f160018701614027565b95860101905b614103575b5050505090565b600019019083906f181899199a1a9b1b9c1cb0b131b232b360811b8282061a835304918215614134579190826140f7565b6140fc565b91600101916140df565b91906064600291049101916140d4565b600491939204910191386140c9565b600891939204910191386140bc565b601091939204910191386140ad565b6020919392049101913861409b565b60409350810491503861408256fe61035b26e3e9eee00e0d72fd1ee8ddca6894550dca6916ea2ac6baa90d11e510a26469706673582212201629e1fcc2c28bb6d8213daab443630c0a968729b2f089a4b1f394852351ebf664736f6c63430008170033",
  "linkReferences": {},
  "deployedLinkReferences": {}
}