{
  "_format": "hh-sol-artifact-1",
  "contractName": "DiamondInit",
  "sourceName": "contracts/diamond/upgradeInitializers/DiamondInit.sol",
  "abi": [
    {
      "inputs": [],
      "name": "init",
      "outputs": [],
      "stateMutability": "nonpayable",
      "type": "function"
    }
  ],
  "bytecode": "0x608080604052346100155760ec908161001b8239f35b600080fdfe6004361015600c57600080fd5b6000803560e01c63e1c7392a14602157600080fd5b3460b3578060031936011260b3576301ffc9a760e01b81527fc8fcad8db84d3cc18b4c41d551ea0ee66dd599cde068d998e57d5e09332c131e60205260408082208054600160ff1991821681179092556307e4c70760e21b845282842080548216831790556348e2b09360e01b845282842080548216831790556307f5828d60e41b8452918320805490921617905580f35b80fdfea26469706673582212209347fe579007f58ec1a0a7268177ae1a280c4accdf86163e6748345ac26871ee64736f6c63430008170033",
  "linkReferences": {},
  "deployedLinkReferences": {}
}