{
  "_format": "hh-sol-artifact-1",
  "contractName": "SpendLimit",
  "sourceName": "contracts/libraries/SpendLimit.sol",
  "abi": [
    {
      "inputs": [],
      "stateMutability": "nonpayable",
      "type": "constructor"
    },
    {
      "inputs": [
        {
          "internalType": "address",
          "name": "",
          "type": "address"
        }
      ],
      "name": "limits",
      "outputs": [
        {
          "internalType": "uint256",
          "name": "limit",
          "type": "uint256"
        },
        {
          "internalType": "uint256",
          "name": "available",
          "type": "uint256"
        },
        {
          "internalType": "uint256",
          "name": "resetTime",
          "type": "uint256"
        },
        {
          "internalType": "bool",
          "name": "isEnabled",
          "type": "bool"
        }
      ],
      "stateMutability": "view",
      "type": "function"
    },
    {
      "inputs": [],
      "name": "owner",
      "outputs": [
        {
          "internalType": "address",
          "name": "",
          "type": "address"
        }
      ],
      "stateMutability": "view",
      "type": "function"
    },
    {
      "inputs": [
        {
          "internalType": "address",
          "name": "_token",
          "type": "address"
        }
      ],
      "name": "removeSpendingLimit",
      "outputs": [],
      "stateMutability": "nonpayable",
      "type": "function"
    },
    {
      "inputs": [
        {
          "internalType": "address",
          "name": "_token",
          "type": "address"
        },
        {
          "internalType": "uint256",
          "name": "_amount",
          "type": "uint256"
        }
      ],
      "name": "setSpendingLimit",
      "outputs": [],
      "stateMutability": "nonpayable",
      "type": "function"
    }
  ],
  "bytecode": "0x6080806040523461002d57600080546001600160a01b03191690556201518060015561036290816100338239f35b600080fdfe6080604090808252600436101561001557600080fd5b600090813560e01c90816320d7bec1146101e1575080638da5cb5b146101b9578063a97c0a1e146101385763c9a815bd1461004f57600080fd5b34610135578160031936011261013557610067610240565b81546001600160a01b0393602435929185163314801561012c575b61008b9061025b565b82156100f85761009a826102d5565b156100ed576001544201948542116100d95760039495925b16855260026020528420918083556001830155600282015501600160ff1982541617905580f35b634e487b7160e01b85526011600452602485fd5b6003939442926100b2565b5162461bcd60e51b815260206004820152600e60248201526d125b9d985b1a5908185b5bdd5b9d60921b6044820152606490fd5b50333014610082565b80fd5b5090346101b55760203660031901126101b557600390610156610240565b83546001600160a01b0391908216331480156101ac575b6101769061025b565b610187610182826102d5565b610298565b168352600260205282208281558260018201558260028201550160ff19815416905580f35b5033301461016d565b5080fd5b5090346101b557816003193601126101b557905490516001600160a01b039091168152602090f35b9050823461023c57602036600319011261023c5760809281906001600160a01b0361020a610240565b168152600260205220805491600182015460ff6003600285015494015416938552602085015283015215156060820152f35b8280fd5b600435906001600160a01b038216820361025657565b600080fd5b1561026257565b60405162461bcd60e51b815260206004820152600e60248201526d139bdd08185d5d1a1bdc9a5e995960921b6044820152606490fd5b1561029f57565b60405162461bcd60e51b815260206004820152600e60248201526d496e76616c69642055706461746560901b6044820152606490fd5b6001600160a01b03166000908152600260205260409020600381015460ff161561032657806103139154600182015414908115610318575b50610298565b600190565b60029150015442113861030d565b5060009056fea2646970667358221220ad75df755c33443f92797ba2560a490bf96c24e88fab762f22acae9f6b10625164736f6c63430008170033",
  "linkReferences": {},
  "deployedLinkReferences": {}
}