{
  "_format": "hh-sol-artifact-1",
  "contractName": "Storefront",
  "sourceName": "contracts/Storefront.sol",
  "abi": [
    {
      "inputs": [
        {
          "internalType": "string",
          "name": "name",
          "type": "string"
        },
        {
          "internalType": "string",
          "name": "symbol",
          "type": "string"
        },
        {
          "internalType": "uint256",
          "name": "_mintPrice",
          "type": "uint256"
        },
        {
          "internalType": "string",
          "name": "_contractURI",
          "type": "string"
        }
      ],
      "stateMutability": "nonpayable",
      "type": "constructor"
    },
    {
      "inputs": [],
      "name": "ApprovalCallerNotOwnerNorApproved",
      "type": "error"
    },
    {
      "inputs": [],
      "name": "ApprovalQueryForNonexistentToken",
      "type": "error"
    },
    {
      "inputs": [],
      "name": "BalanceQueryForZeroAddress",
      "type": "error"
    },
    {
      "inputs": [],
      "name": "MintERC2309QuantityExceedsLimit",
      "type": "error"
    },
    {
      "inputs": [],
      "name": "MintToZeroAddress",
      "type": "error"
    },
    {
      "inputs": [],
      "name": "MintZeroQuantity",
      "type": "error"
    },
    {
      "inputs": [],
      "name": "NotCompatibleWithSpotMints",
      "type": "error"
    },
    {
      "inputs": [
        {
          "internalType": "address",
          "name": "owner",
          "type": "address"
        }
      ],
      "name": "OwnableInvalidOwner",
      "type": "error"
    },
    {
      "inputs": [
        {
          "internalType": "address",
          "name": "account",
          "type": "address"
        }
      ],
      "name": "OwnableUnauthorizedAccount",
      "type": "error"
    },
    {
      "inputs": [],
      "name": "OwnerQueryForNonexistentToken",
      "type": "error"
    },
    {
      "inputs": [],
      "name": "OwnershipNotInitializedForExtraData",
      "type": "error"
    },
    {
      "inputs": [],
      "name": "SequentialMintExceedsLimit",
      "type": "error"
    },
    {
      "inputs": [],
      "name": "SequentialUpToTooSmall",
      "type": "error"
    },
    {
      "inputs": [],
      "name": "SpotMintTokenIdTooSmall",
      "type": "error"
    },
    {
      "inputs": [],
      "name": "TokenAlreadyExists",
      "type": "error"
    },
    {
      "inputs": [],
      "name": "TransferCallerNotOwnerNorApproved",
      "type": "error"
    },
    {
      "inputs": [],
      "name": "TransferFromIncorrectOwner",
      "type": "error"
    },
    {
      "inputs": [],
      "name": "TransferToNonERC721ReceiverImplementer",
      "type": "error"
    },
    {
      "inputs": [],
      "name": "TransferToZeroAddress",
      "type": "error"
    },
    {
      "inputs": [],
      "name": "URIQueryForNonexistentToken",
      "type": "error"
    },
    {
      "anonymous": false,
      "inputs": [
        {
          "indexed": true,
          "internalType": "address",
          "name": "owner",
          "type": "address"
        },
        {
          "indexed": true,
          "internalType": "address",
          "name": "approved",
          "type": "address"
        },
        {
          "indexed": true,
          "internalType": "uint256",
          "name": "tokenId",
          "type": "uint256"
        }
      ],
      "name": "Approval",
      "type": "event"
    },
    {
      "anonymous": false,
      "inputs": [
        {
          "indexed": true,
          "internalType": "address",
          "name": "owner",
          "type": "address"
        },
        {
          "indexed": true,
          "internalType": "address",
          "name": "operator",
          "type": "address"
        },
        {
          "indexed": false,
          "internalType": "bool",
          "name": "approved",
          "type": "bool"
        }
      ],
      "name": "ApprovalForAll",
      "type": "event"
    },
    {
      "anonymous": false,
      "inputs": [
        {
          "indexed": true,
          "internalType": "uint256",
          "name": "fromTokenId",
          "type": "uint256"
        },
        {
          "indexed": false,
          "internalType": "uint256",
          "name": "toTokenId",
          "type": "uint256"
        },
        {
          "indexed": true,
          "internalType": "address",
          "name": "from",
          "type": "address"
        },
        {
          "indexed": true,
          "internalType": "address",
          "name": "to",
          "type": "address"
        }
      ],
      "name": "ConsecutiveTransfer",
      "type": "event"
    },
    {
      "anonymous": false,
      "inputs": [
        {
          "indexed": true,
          "internalType": "address",
          "name": "previousOwner",
          "type": "address"
        },
        {
          "indexed": true,
          "internalType": "address",
          "name": "newOwner",
          "type": "address"
        }
      ],
      "name": "OwnershipTransferred",
      "type": "event"
    },
    {
      "anonymous": false,
      "inputs": [
        {
          "indexed": true,
          "internalType": "address",
          "name": "from",
          "type": "address"
        },
        {
          "indexed": true,
          "internalType": "address",
          "name": "to",
          "type": "address"
        },
        {
          "indexed": true,
          "internalType": "uint256",
          "name": "tokenId",
          "type": "uint256"
        }
      ],
      "name": "Transfer",
      "type": "event"
    },
    {
      "inputs": [
        {
          "internalType": "address",
          "name": "to",
          "type": "address"
        },
        {
          "internalType": "uint256",
          "name": "tokenId",
          "type": "uint256"
        }
      ],
      "name": "approve",
      "outputs": [],
      "stateMutability": "payable",
      "type": "function"
    },
    {
      "inputs": [
        {
          "internalType": "address",
          "name": "owner",
          "type": "address"
        }
      ],
      "name": "balanceOf",
      "outputs": [
        {
          "internalType": "uint256",
          "name": "",
          "type": "uint256"
        }
      ],
      "stateMutability": "view",
      "type": "function"
    },
    {
      "inputs": [],
      "name": "contractURI",
      "outputs": [
        {
          "internalType": "string",
          "name": "",
          "type": "string"
        }
      ],
      "stateMutability": "view",
      "type": "function"
    },
    {
      "inputs": [
        {
          "internalType": "uint256",
          "name": "tokenId",
          "type": "uint256"
        }
      ],
      "name": "getApproved",
      "outputs": [
        {
          "internalType": "address",
          "name": "",
          "type": "address"
        }
      ],
      "stateMutability": "view",
      "type": "function"
    },
    {
      "inputs": [
        {
          "internalType": "address",
          "name": "owner",
          "type": "address"
        },
        {
          "internalType": "address",
          "name": "operator",
          "type": "address"
        }
      ],
      "name": "isApprovedForAll",
      "outputs": [
        {
          "internalType": "bool",
          "name": "",
          "type": "bool"
        }
      ],
      "stateMutability": "view",
      "type": "function"
    },
    {
      "inputs": [
        {
          "internalType": "string",
          "name": "cid",
          "type": "string"
        }
      ],
      "name": "mint",
      "outputs": [],
      "stateMutability": "payable",
      "type": "function"
    },
    {
      "inputs": [],
      "name": "mintPrice",
      "outputs": [
        {
          "internalType": "uint256",
          "name": "",
          "type": "uint256"
        }
      ],
      "stateMutability": "view",
      "type": "function"
    },
    {
      "inputs": [],
      "name": "name",
      "outputs": [
        {
          "internalType": "string",
          "name": "",
          "type": "string"
        }
      ],
      "stateMutability": "view",
      "type": "function"
    },
    {
      "inputs": [],
      "name": "owner",
      "outputs": [
        {
          "internalType": "address",
          "name": "",
          "type": "address"
        }
      ],
      "stateMutability": "view",
      "type": "function"
    },
    {
      "inputs": [
        {
          "internalType": "uint256",
          "name": "tokenId",
          "type": "uint256"
        }
      ],
      "name": "ownerOf",
      "outputs": [
        {
          "internalType": "address",
          "name": "",
          "type": "address"
        }
      ],
      "stateMutability": "view",
      "type": "function"
    },
    {
      "inputs": [],
      "name": "renounceOwnership",
      "outputs": [],
      "stateMutability": "nonpayable",
      "type": "function"
    },
    {
      "inputs": [
        {
          "internalType": "address",
          "name": "from",
          "type": "address"
        },
        {
          "internalType": "address",
          "name": "to",
          "type": "address"
        },
        {
          "internalType": "uint256",
          "name": "tokenId",
          "type": "uint256"
        }
      ],
      "name": "safeTransferFrom",
      "outputs": [],
      "stateMutability": "payable",
      "type": "function"
    },
    {
      "inputs": [
        {
          "internalType": "address",
          "name": "from",
          "type": "address"
        },
        {
          "internalType": "address",
          "name": "to",
          "type": "address"
        },
        {
          "internalType": "uint256",
          "name": "tokenId",
          "type": "uint256"
        },
        {
          "internalType": "bytes",
          "name": "_data",
          "type": "bytes"
        }
      ],
      "name": "safeTransferFrom",
      "outputs": [],
      "stateMutability": "payable",
      "type": "function"
    },
    {
      "inputs": [
        {
          "internalType": "address",
          "name": "operator",
          "type": "address"
        },
        {
          "internalType": "bool",
          "name": "approved",
          "type": "bool"
        }
      ],
      "name": "setApprovalForAll",
      "outputs": [],
      "stateMutability": "nonpayable",
      "type": "function"
    },
    {
      "inputs": [
        {
          "internalType": "string",
          "name": "_newContractURI",
          "type": "string"
        }
      ],
      "name": "setContractURI",
      "outputs": [],
      "stateMutability": "nonpayable",
      "type": "function"
    },
    {
      "inputs": [
        {
          "internalType": "uint256",
          "name": "_newMintPrice",
          "type": "uint256"
        }
      ],
      "name": "setMintPrice",
      "outputs": [],
      "stateMutability": "nonpayable",
      "type": "function"
    },
    {
      "inputs": [
        {
          "internalType": "bytes4",
          "name": "interfaceId",
          "type": "bytes4"
        }
      ],
      "name": "supportsInterface",
      "outputs": [
        {
          "internalType": "bool",
          "name": "",
          "type": "bool"
        }
      ],
      "stateMutability": "view",
      "type": "function"
    },
    {
      "inputs": [],
      "name": "symbol",
      "outputs": [
        {
          "internalType": "string",
          "name": "",
          "type": "string"
        }
      ],
      "stateMutability": "view",
      "type": "function"
    },
    {
      "inputs": [
        {
          "internalType": "uint256",
          "name": "tokenId",
          "type": "uint256"
        }
      ],
      "name": "tokenURI",
      "outputs": [
        {
          "internalType": "string",
          "name": "",
          "type": "string"
        }
      ],
      "stateMutability": "view",
      "type": "function"
    },
    {
      "inputs": [],
      "name": "totalSupply",
      "outputs": [
        {
          "internalType": "uint256",
          "name": "result",
          "type": "uint256"
        }
      ],
      "stateMutability": "view",
      "type": "function"
    },
    {
      "inputs": [
        {
          "internalType": "address",
          "name": "from",
          "type": "address"
        },
        {
          "internalType": "address",
          "name": "to",
          "type": "address"
        },
        {
          "internalType": "uint256",
          "name": "tokenId",
          "type": "uint256"
        }
      ],
      "name": "transferFrom",
      "outputs": [],
      "stateMutability": "payable",
      "type": "function"
    },
    {
      "inputs": [
        {
          "internalType": "address",
          "name": "newOwner",
          "type": "address"
        }
      ],
      "name": "transferOwnership",
      "outputs": [],
      "stateMutability": "nonpayable",
      "type": "function"
    },
    {
      "inputs": [],
      "name": "withdraw",
      "outputs": [],
      "stateMutability": "nonpayable",
      "type": "function"
    }
  ],
  "bytecode": "0x608060405234620000a85762001ce0803803806200001d81620000c3565b928339810190608081830312620000a85780516001600160401b039290838111620000a8578162000050918401620000ef565b916020810151848111620000a857826200006c918301620000ef565b906040810151926060820151958611620000a8576200009895620000919201620000ef565b9262000498565b6040516116af9081620006318239f35b600080fd5b634e487b7160e01b600052604160045260246000fd5b6040519190601f01601f191682016001600160401b03811183821017620000e957604052565b620000ad565b919080601f84011215620000a85782516001600160401b038111620000e95760209062000125601f8201601f19168301620000c3565b92818452828287010111620000a85760005b8181106200014d57508260009394955001015290565b858101830151848201840152820162000137565b90600182811c9216801562000193575b60208310146200017d57565b634e487b7160e01b600052602260045260246000fd5b91607f169162000171565b601f8111620001ab575050565b60009060026000526020600020906020601f850160051c83019410620001ee575b601f0160051c01915b828110620001e257505050565b818155600101620001d5565b9092508290620001cc565b601f811162000206575050565b60009060036000526020600020906020601f850160051c8301941062000249575b601f0160051c01915b8281106200023d57505050565b81815560010162000230565b909250829062000227565b601f811162000261575050565b600090600c6000526020600020906020601f850160051c83019410620002a4575b601f0160051c01915b8281106200029857505050565b8181556001016200028b565b909250829062000282565b80519091906001600160401b038111620000e957620002db81620002d560035462000161565b620001f9565b602080601f8311600114620003225750819062000311939460009262000316575b50508160011b916000199060031b1c19161790565b600355565b015190503880620002fc565b6003600052601f198316949091907fc2575a0e9e593c00f959f8c92f12db2869c3395a3b0502d05e2516446f71f85b926000905b8782106200039157505083600195961062000377575b505050811b01600355565b015160001960f88460031b161c191690553880806200036c565b8060018596829496860151815501950193019062000356565b80519091906001600160401b038111620000e957620003d681620003d0600c5462000161565b62000254565b602080601f831160011462000410575081906200040b9394600092620003165750508160011b916000199060031b1c19161790565b600c55565b600c600052601f198316949091907fdf6966c971051c3d54ec59162606531493a51404a002842f56009d7e5cf4a8c7926000905b8782106200047f57505083600195961062000465575b505050811b01600c55565b015160001960f88460031b161c191690553880806200045a565b8060018596829496860151815501950193019062000444565b8051929392906001600160401b038211620000e957620004c582620004bf60025462000161565b6200019e565b602090816001601f85111462000555575091806200050092620005099594600092620003165750508160011b916000199060031b1c19161790565b600255620002af565b620005146001600055565b33156200053c57620005346200053a926200052f33620005e7565b600b55565b620003aa565b565b604051631e4fbdf760e01b815260006004820152602490fd5b60026000529190601f1984167f405787fa12a823e0f2b7631cc41b3ba8828b3321ca811111fa75cd3aa3bb5ace936000905b828210620005ce5750509160019391856200050997969410620005b4575b505050811b01600255620002af565b015160001960f88460031b161c19169055388080620005a5565b8060018697829497870151815501960194019062000587565b600a80546001600160a01b039283166001600160a01b0319821681179092559091167f8be0079c531659141344cd1fd0a4f28419497f9722a3daafe3b4186f6b6457e0600080a356fe6080604052600436101561001257600080fd5b60003560e01c806301ffc9a71461018757806306fdde0314610182578063081812fc1461017d578063095ea7b31461017857806318160ddd1461017357806323b872dd1461016e5780633ccfd60b1461016957806342842e0e146101645780636352211e1461015f5780636817c76c1461015a57806370a0823114610155578063715018a6146101505780638da5cb5b1461014b578063938e3d7b1461014657806395d89b4114610141578063a22cb4651461013c578063b88d4fde14610137578063c87b56dd14610132578063d85d3d271461012d578063e8a3d48514610128578063e985e9c514610123578063f2fde38b1461011e5763f4a0a5281461011957600080fd5b610e92565b610e04565b610da7565b610cff565b610b46565b610a62565b610a07565b6108b1565b610809565b6106d5565b6106ac565b61064e565b6105f3565b6105d5565b6105a6565b610583565b6104fb565b6104e7565b61048b565b6103d5565b610356565b61026d565b6101a3565b6001600160e01b031981160361019e57565b600080fd5b3461019e57602036600319011261019e5760206004356101c28161018c565b63ffffffff60e01b166301ffc9a760e01b8114908115610200575b81156101ef575b506040519015158152f35b635b5e139f60e01b149050386101e4565b6380ac58cd60e01b811491506101dd565b60005b8381106102245750506000910152565b8181015183820152602001610214565b9060209161024d81518092818552858086019101610211565b601f01601f1916010190565b90602061026a928181520190610234565b90565b3461019e576000806003193601126103535760405190806002549061029182610cc5565b8085529160209160019182811690811561032657506001146102ce575b6102ca866102be81880382610992565b60405191829182610259565b0390f35b9350600284527f405787fa12a823e0f2b7631cc41b3ba8828b3321ca811111fa75cd3aa3bb5ace5b838510610313575050505081016020016102be826102ca386102ae565b80548686018401529382019381016102f6565b90508695506102ca969350602092506102be94915060ff191682840152151560051b8201019293386102ae565b80fd5b3461019e57602036600319011261019e5760043561037381611270565b15610398576000526006602052602060018060a01b0360406000205416604051908152f35b6333d1c03960e21b60005260046000fd5b600435906001600160a01b038216820361019e57565b602435906001600160a01b038216820361019e57565b604036600319011261019e576103e96103a9565b6001600160a01b0390602435908261040083611343565b16803303610459575b600093838552600660205260408520921691826bffffffffffffffffffffffff60a01b8254161790557f8c5be1e5ebec7d5bd14f71427d1e84f3dd0314c0f7b2291e5b200ac8c7c3b9258480a480f35b600081815260076020908152604080832033845290915290205460ff16610409576367d9dca160e11b60005260046000fd5b3461019e57600036600319011261019e576000546001546040519103600019018152602090f35b606090600319011261019e576001600160a01b0390600435828116810361019e5791602435908116810361019e579060443590565b6104f96104f3366104b2565b91610eb3565b005b3461019e57600080600319360112610353576105156113cb565b47801561054857600a54610545918391829182918291906001600160a01b03165af161053f61105c565b5061108c565b80f35b60405162461bcd60e51b8152602060048201526013602482015272273790333ab732399030bb30b4b630b136329760691b6044820152606490fd5b6104f961058f366104b2565b906040519261059d84610955565b60008452611193565b3461019e57602036600319011261019e5760206001600160a01b036105cc600435611343565b16604051908152f35b3461019e57600036600319011261019e576020600b54604051908152f35b3461019e57602036600319011261019e576001600160a01b036106146103a9565b16801561063d576000526005602052602067ffffffffffffffff60406000205416604051908152f35b6323d3ad8160e21b60005260046000fd5b3461019e57600080600319360112610353576106686113cb565b600a80546001600160a01b0319811690915581906001600160a01b03167f8be0079c531659141344cd1fd0a4f28419497f9722a3daafe3b4186f6b6457e08280a380f35b3461019e57600036600319011261019e57600a546040516001600160a01b039091168152602090f35b3461019e5760208060031936011261019e5767ffffffffffffffff60043581811161019e573660238201121561019e57806004013591821161019e57602490366024848301011161019e576107286113cb565b61073c83610737600c54610cc5565b6110cb565b600091601f8411600114610782575061076f93506000919083610774575b50508160011b916000199060031b1c19161790565b600c55005b60249250010135388061075a565b600c60005291601f1984167fdf6966c971051c3d54ec59162606531493a51404a002842f56009d7e5cf4a8c79382905b8282106107ee5750506001955084116107d1575b505050811b01600c55005b0160240135600019600384901b60f8161c191690553880806107c6565b909294876001819284898901013581550196019301906107b2565b3461019e576000806003193601126103535760405190806003549061082d82610cc5565b808552916020916001918281169081156103265750600114610859576102ca866102be81880382610992565b9350600384527fc2575a0e9e593c00f959f8c92f12db2869c3395a3b0502d05e2516446f71f85b5b83851061089e575050505081016020016102be826102ca386102ae565b8054868601840152938201938101610881565b3461019e57604036600319011261019e576108ca6103a9565b6024359081151580920361019e573360009081526007602090815260408083206001600160a01b0385168452909152902060ff1981541660ff841617905560405191825260018060a01b0316907f17307eab39ab6107e8899845ad3d59bd9653f200f220920489ca2b5937696c3160203392a3005b634e487b7160e01b600052604160045260246000fd5b6020810190811067ffffffffffffffff82111761097157604052565b61093f565b6040810190811067ffffffffffffffff82111761097157604052565b90601f8019910116810190811067ffffffffffffffff82111761097157604052565b67ffffffffffffffff811161097157601f01601f191660200190565b9291926109dc826109b4565b916109ea6040519384610992565b82948184528183011161019e578281602093846000960137010152565b608036600319011261019e57610a1b6103a9565b610a236103bf565b6064359167ffffffffffffffff831161019e573660238401121561019e57610a586104f99336906024816004013591016109d0565b9160443591611193565b3461019e57602036600319011261019e57600435610a7f81611270565b15610ae957610ad56102be6102ca92610adb610ac560405192610aa184610976565b6007845266697066733a2f2f60c81b60208501526000526008602052604060002090565b60405194859360208501906111d6565b906111ed565b03601f198101835282610992565b60405162461bcd60e51b815260206004820152602f60248201527f4552433732314d657461646174613a2055524920717565727920666f72206e6f60448201526e3732bc34b9ba32b73a103a37b5b2b760891b6064820152608490fd5b602036600319011261019e5760043567ffffffffffffffff811161019e573660238201121561019e57610b839036906024816004013591016109d0565b600b543410610c8057604051610b9881610955565b600080825280549091904260a01b3317600160e11b17610bc2826000526004602052604060002090565b5533600081815260056020526040902080546801000000000000000101905515610c7b57600193600182018295806001905b610c36575b505084610c0b9394959650558261152b565b333b610c15578280f35b610c2791610c239133611468565b1590565b610c315738808280f35b6111c5565b15610c6a575b85818833897fddf252ad1be2c89b69c2b068fc378daa952ba7f163c4a11628f55a4df523b3ef8180a4610bf4565b80960195818703610c3c5780610bf9565b6112f0565b60405162461bcd60e51b815260206004820152601b60248201527f496e73756666696369656e742066756e647320746f206d696e742e00000000006044820152606490fd5b90600182811c92168015610cf5575b6020831014610cdf57565b634e487b7160e01b600052602260045260246000fd5b91607f1691610cd4565b3461019e57600080600319360112610353576040519080600c5490610d2382610cc5565b808552916020916001918281169081156103265750600114610d4f576102ca866102be81880382610992565b9350600c84527fdf6966c971051c3d54ec59162606531493a51404a002842f56009d7e5cf4a8c75b838510610d94575050505081016020016102be826102ca386102ae565b8054868601840152938201938101610d77565b3461019e57604036600319011261019e57602060ff610df8610dc76103a9565b610dcf6103bf565b6001600160a01b0391821660009081526007865260408082209290931681526020919091522090565b54166040519015158152f35b3461019e57602036600319011261019e57610e1d6103a9565b610e256113cb565b6001600160a01b03908116908115610e7957600a54826bffffffffffffffffffffffff60a01b821617600a55167f8be0079c531659141344cd1fd0a4f28419497f9722a3daafe3b4186f6b6457e0600080a3005b604051631e4fbdf760e01b815260006004820152602490fd5b3461019e57602036600319011261019e57610eab6113cb565b600435600b55005b919091610ebf82611343565b6001600160a01b0391821693908281168590036110575760008481526006602052604090208054610eff6001600160a01b03881633908114908314171590565b611009575b610fff575b506001600160a01b038516600090815260056020526040902080546000190190556001600160a01b0382166000908152600560205260409020805460010190556001600160a01b0382164260a01b17600160e11b17610f72856000526004602052604060002090565b55600160e11b811615610fb5575b501680927fddf252ad1be2c89b69c2b068fc378daa952ba7f163c4a11628f55a4df523b3ef600080a415610fb057565b611321565b60018401610fcd816000526004602052604060002090565b5415610fda575b50610f80565b6000548114610fd457610ff7906000526004602052604060002090565b553880610fd4565b6000905538610f09565b61104d610c236110463361102f8b60018060a01b03166000526007602052604060002090565b9060018060a01b0316600052602052604060002090565b5460ff1690565b15610f0457611310565b611300565b3d15611087573d9061106d826109b4565b9161107b6040519384610992565b82523d6000602084013e565b606090565b1561109357565b60405162461bcd60e51b815260206004820152601060248201526f2a3930b739b332b9103330b4b632b21760811b6044820152606490fd5b601f81116110d7575050565b600090600c6000527fdf6966c971051c3d54ec59162606531493a51404a002842f56009d7e5cf4a8c7906020601f850160051c83019410611133575b601f0160051c01915b82811061112857505050565b81815560010161111c565b9092508290611113565b90601f811161114b57505050565b6000916000526020600020906020601f850160051c83019410611189575b601f0160051c01915b82811061117e57505050565b818155600101611172565b9092508290611169565b9291906111a1828286610eb3565b803b6111ae575b50505050565b6111b793611502565b156111c557388080806111a8565b6368d2bf6b60e11b60005260046000fd5b906111e960209282815194859201610211565b0190565b6000929181546111fc81610cc5565b9260019180831690811561125557506001146112185750505050565b9091929394506000526020906020600020906000915b85831061124457505050500190388080806111a8565b80548584015291830191810161122e565b60ff19168452505050811515909102019150388080806111a8565b60009190600190838183111561128557505050565b8054821061129257505050565b9293509082815b6112ab575b505050600160e01b161590565b9091809350815260049283602052604082205493846112ea5781156112d7575060001901919081611299565b634e487b7160e01b835260119052602482fd5b5061129e565b622e076360e81b60005260046000fd5b62a1148160e81b60005260046000fd5b632ce44b5f60e11b60005260046000fd5b633a954ecd60e21b60005260046000fd5b636f96cda160e11b60005260046000fd5b6001908060011161133257611362816000526004602052604060002090565b5491821561137f575b5050600160e01b81161561026a5780611332565b6000548210156113325790815b1561136b57909150600019016113ac816000526004602052604060002090565b549182156113c4575050600160e01b81166113325790565b908161138c565b600a546001600160a01b031633036113df57565b60405163118cdaa760e01b8152336004820152602490fd5b9081602091031261019e575161026a8161018c565b61026a939260809260018060a01b031682526000602083015260408201528160608201520190610234565b6001600160a01b03918216815291166020820152604081019190915260806060820181905261026a92910190610234565b61149160209160009394604051948580948193630a85bd0160e11b998a8452336004850161140c565b03926001600160a01b03165af1600091816114d1575b506114c3576114b461105c565b8051156111c557805190602001fd5b6001600160e01b0319161490565b6114f491925060203d6020116114fb575b6114ec8183610992565b8101906113f7565b90386114a7565b503d6114e2565b92602091611491936000604051809681958294630a85bd0160e11b9a8b85523360048601611437565b91909161153781611270565b1561161f576000526020600860205260406000209083519067ffffffffffffffff8211610971576115728261156c8554610cc5565b8561113d565b602090601f83116001146115b4575081906115a59394956000926115a95750508160011b916000199060031b1c19161790565b9055565b01519050388061075a565b90601f198316956115ca85600052602060002090565b926000905b888210611607575050836001959697106115ee575b505050811b019055565b015160001960f88460031b161c191690553880806115e4565b806001859682949686015181550195019301906115cf565b60405162461bcd60e51b815260206004820152602c60248201527f4552433732314d657461646174613a2055524920736574206f66206e6f6e657860448201526b34b9ba32b73a103a37b5b2b760a11b6064820152608490fdfea264697066735822122091fe1be4105349ffda87eee2a9fc17d3a9faacefc13d354743d760c9310d273064736f6c63430008170033",
  "linkReferences": {},
  "deployedLinkReferences": {}
}