{
  "_format": "hh-sol-artifact-1",
  "contractName": "Guardians",
  "sourceName": "contracts/libraries/Guardians.sol",
  "abi": [
    {
      "inputs": [
        {
          "internalType": "address",
          "name": "_owner",
          "type": "address"
        },
        {
          "internalType": "address",
          "name": "_registryAddress",
          "type": "address"
        }
      ],
      "stateMutability": "nonpayable",
      "type": "constructor"
    },
    {
      "anonymous": false,
      "inputs": [],
      "name": "AccountLocked",
      "type": "event"
    },
    {
      "anonymous": false,
      "inputs": [],
      "name": "AccountUnlocked",
      "type": "event"
    },
    {
      "anonymous": false,
      "inputs": [
        {
          "indexed": true,
          "internalType": "address",
          "name": "newGuardian",
          "type": "address"
        }
      ],
      "name": "GuardianAdded",
      "type": "event"
    },
    {
      "anonymous": false,
      "inputs": [
        {
          "indexed": true,
          "internalType": "address",
          "name": "guardian",
          "type": "address"
        }
      ],
      "name": "GuardianAdditionCancelled",
      "type": "event"
    },
    {
      "anonymous": false,
      "inputs": [
        {
          "indexed": true,
          "internalType": "address",
          "name": "owner",
          "type": "address"
        },
        {
          "indexed": true,
          "internalType": "bool",
          "name": "initiated",
          "type": "bool"
        }
      ],
      "name": "GuardianAdditionInitiated",
      "type": "event"
    },
    {
      "anonymous": false,
      "inputs": [
        {
          "indexed": true,
          "internalType": "address",
          "name": "guardian",
          "type": "address"
        }
      ],
      "name": "GuardianRemovalCancelled",
      "type": "event"
    },
    {
      "anonymous": false,
      "inputs": [
        {
          "indexed": true,
          "internalType": "address",
          "name": "owner",
          "type": "address"
        },
        {
          "indexed": true,
          "internalType": "bool",
          "name": "initiated",
          "type": "bool"
        }
      ],
      "name": "GuardianRemovalInitiated",
      "type": "event"
    },
    {
      "anonymous": false,
      "inputs": [
        {
          "indexed": true,
          "internalType": "address",
          "name": "guardian",
          "type": "address"
        }
      ],
      "name": "GuardianRemoved",
      "type": "event"
    },
    {
      "anonymous": false,
      "inputs": [
        {
          "indexed": true,
          "internalType": "address",
          "name": "guardian",
          "type": "address"
        },
        {
          "indexed": true,
          "internalType": "address",
          "name": "newSigner",
          "type": "address"
        }
      ],
      "name": "GuardianVotedForSignerChange",
      "type": "event"
    },
    {
      "anonymous": false,
      "inputs": [
        {
          "indexed": true,
          "internalType": "address",
          "name": "oldOwner",
          "type": "address"
        },
        {
          "indexed": true,
          "internalType": "address",
          "name": "newOwner",
          "type": "address"
        }
      ],
      "name": "SignerChanged",
      "type": "event"
    },
    {
      "anonymous": false,
      "inputs": [
        {
          "indexed": true,
          "internalType": "address",
          "name": "voter",
          "type": "address"
        },
        {
          "indexed": true,
          "internalType": "address",
          "name": "guardianToRemove",
          "type": "address"
        }
      ],
      "name": "VotedForGuardianRemoval",
      "type": "event"
    },
    {
      "inputs": [
        {
          "internalType": "address[]",
          "name": "newGuardians",
          "type": "address[]"
        }
      ],
      "name": "addGuardians",
      "outputs": [],
      "stateMutability": "nonpayable",
      "type": "function"
    },
    {
      "inputs": [],
      "name": "cancelGuardianAddition",
      "outputs": [],
      "stateMutability": "nonpayable",
      "type": "function"
    },
    {
      "inputs": [],
      "name": "cancelGuardianRemoval",
      "outputs": [],
      "stateMutability": "nonpayable",
      "type": "function"
    },
    {
      "inputs": [
        {
          "internalType": "address",
          "name": "newSigner",
          "type": "address"
        }
      ],
      "name": "changeSigner",
      "outputs": [],
      "stateMutability": "nonpayable",
      "type": "function"
    },
    {
      "inputs": [
        {
          "internalType": "address[]",
          "name": "guardiansToRemove",
          "type": "address[]"
        }
      ],
      "name": "executeGuardianRemoval",
      "outputs": [],
      "stateMutability": "nonpayable",
      "type": "function"
    },
    {
      "inputs": [
        {
          "internalType": "address",
          "name": "",
          "type": "address"
        }
      ],
      "name": "explicitRemovalVote",
      "outputs": [
        {
          "internalType": "address",
          "name": "",
          "type": "address"
        }
      ],
      "stateMutability": "view",
      "type": "function"
    },
    {
      "inputs": [],
      "name": "guardianAdditionCancellationTimestamp",
      "outputs": [
        {
          "internalType": "uint256",
          "name": "",
          "type": "uint256"
        }
      ],
      "stateMutability": "view",
      "type": "function"
    },
    {
      "inputs": [],
      "name": "guardianAdditionTimestamp",
      "outputs": [
        {
          "internalType": "uint256",
          "name": "",
          "type": "uint256"
        }
      ],
      "stateMutability": "view",
      "type": "function"
    },
    {
      "inputs": [],
      "name": "guardianRemovalCancellationTimestamp",
      "outputs": [
        {
          "internalType": "uint256",
          "name": "",
          "type": "uint256"
        }
      ],
      "stateMutability": "view",
      "type": "function"
    },
    {
      "inputs": [],
      "name": "guardianRemovalTimestamp",
      "outputs": [
        {
          "internalType": "uint256",
          "name": "",
          "type": "uint256"
        }
      ],
      "stateMutability": "view",
      "type": "function"
    },
    {
      "inputs": [],
      "name": "guardiansCount",
      "outputs": [
        {
          "internalType": "uint256",
          "name": "",
          "type": "uint256"
        }
      ],
      "stateMutability": "view",
      "type": "function"
    },
    {
      "inputs": [
        {
          "internalType": "uint256",
          "name": "",
          "type": "uint256"
        }
      ],
      "name": "guardiansList",
      "outputs": [
        {
          "internalType": "address",
          "name": "",
          "type": "address"
        }
      ],
      "stateMutability": "view",
      "type": "function"
    },
    {
      "inputs": [
        {
          "internalType": "address",
          "name": "",
          "type": "address"
        }
      ],
      "name": "guardiansSignerChoice",
      "outputs": [
        {
          "internalType": "address",
          "name": "",
          "type": "address"
        }
      ],
      "stateMutability": "view",
      "type": "function"
    },
    {
      "inputs": [
        {
          "internalType": "address",
          "name": "",
          "type": "address"
        }
      ],
      "name": "guardiansUnlockAgreementCount",
      "outputs": [
        {
          "internalType": "uint256",
          "name": "",
          "type": "uint256"
        }
      ],
      "stateMutability": "view",
      "type": "function"
    },
    {
      "inputs": [
        {
          "internalType": "address",
          "name": "",
          "type": "address"
        }
      ],
      "name": "guardiansUnlockVote",
      "outputs": [
        {
          "internalType": "bool",
          "name": "",
          "type": "bool"
        }
      ],
      "stateMutability": "view",
      "type": "function"
    },
    {
      "inputs": [
        {
          "internalType": "address",
          "name": "",
          "type": "address"
        }
      ],
      "name": "isGuardian",
      "outputs": [
        {
          "internalType": "bool",
          "name": "",
          "type": "bool"
        }
      ],
      "stateMutability": "view",
      "type": "function"
    },
    {
      "inputs": [],
      "name": "isLocked",
      "outputs": [
        {
          "internalType": "bool",
          "name": "",
          "type": "bool"
        }
      ],
      "stateMutability": "view",
      "type": "function"
    },
    {
      "inputs": [],
      "name": "lockAccount",
      "outputs": [],
      "stateMutability": "nonpayable",
      "type": "function"
    },
    {
      "inputs": [],
      "name": "owner",
      "outputs": [
        {
          "internalType": "address",
          "name": "",
          "type": "address"
        }
      ],
      "stateMutability": "view",
      "type": "function"
    },
    {
      "inputs": [],
      "name": "registry",
      "outputs": [
        {
          "internalType": "contract IRegistry",
          "name": "",
          "type": "address"
        }
      ],
      "stateMutability": "view",
      "type": "function"
    },
    {
      "inputs": [
        {
          "internalType": "address",
          "name": "guardianToRemove",
          "type": "address"
        }
      ],
      "name": "removeGuardianExplicitly",
      "outputs": [],
      "stateMutability": "nonpayable",
      "type": "function"
    },
    {
      "inputs": [],
      "name": "unlockAccount",
      "outputs": [],
      "stateMutability": "nonpayable",
      "type": "function"
    }
  ],
  "bytecode": "0x6080346200038a5762001b2e906001600160401b03601f38849003908101601f1916830190828211848310176200038f57808491604096879485528339810103126200038a576200005082620003a5565b90620000606020809401620003a5565b600080546001600160a01b03199081168255620151806002556003805460ff1990811690915560048381556001805484166001600160a01b0396871617815589519598949791969591939092828b018781118482101762000377578b52838352858301948636873783511562000364578a16855288845b6200019f575b5050508782541693843b156200019b579290978794928a51998a956304416e6960e21b87526024870191818b8901525180925260448701949388905b8382106200017d575050505050508383809203925af1801562000173576200014b575b84516117489081620003e68239f35b8311620001605750508152388080806200013c565b634e487b7160e01b825260419052602490fd5b85513d85823e3d90fd5b8551811687528c99508d985095820195948201949084019062000119565b8780fd5b83518110156200035e578a620001b68286620003ba565b5116156200030f578a620001cb8286620003ba565b51168a52600c80885260ff8d8c205416620002cc578b620001ed8387620003ba565b51168b5287528b8a2085838254161790558a6200020b8286620003ba565b5116600580549068010000000000000000821015620002b957878201808255821015620002a6578c52888c2001908482541617905588546000198114620002935785939291848092018b558c620002638288620003ba565b51167f038596bb31e2e7d3d9f184d4c98b310103f6d7f5830e5eec32bffe6f1728f9698d80a201909192620000d7565b634e487b7160e01b8b5260118a5260248bfd5b634e487b7160e01b8d5260328c5260248dfd5b634e487b7160e01b8d5260418c5260248dfd5b8c5162461bcd60e51b8152808b01899052601a60248201527f4164647265737320616c7265616479206120677561726469616e0000000000006044820152606490fd5b8b5162461bcd60e51b8152808a01889052602360248201527f43616e6e6f7420616464207a65726f206164647265737320617320677561726460448201526234b0b760e91b6064820152608490fd5b620000dd565b634e487b7160e01b8a526032895260248afd5b634e487b7160e01b8a526041895260248afd5b600080fd5b634e487b7160e01b600052604160045260246000fd5b51906001600160a01b03821682036200038a57565b8051821015620003cf5760209160051b010190565b634e487b7160e01b600052603260045260246000fdfe608060408181526004918236101561001657600080fd5b600092833560e01c91826263af0614610aba5750816306e1976c14610a0f5781630c68ba21146109d15781630fd03fd6146109995781631105b9a41461092957816311d7b2fe14610728578163146104dc146106e75781631da2bb72146106ac57816320b9921b1461068a57816329a12c521461063157816336c82fbc14610613578163429aad90146105d85781634bd6b267146105b95781637b1039991461059057816381ec291f14610537578163888a5c7e146105185781638da5cb5b146104f057816392ab1750146104b2578163a4e2d6341461048e578163aad2b7231461015457508063b6d3c346146101375763df37b2141461011657600080fd5b346101335781600319360112610133576020906008549051908152f35b5080fd5b82346101515761014e61014936610b37565b61124b565b80f35b80fd5b90503461048a576020908160031936011261048657610171610ad6565b92338552600c835261018860ff8287205416610c24565b338552600c835260ff81862054161561043357338552600a808452818620546001600160a01b0395861695919490821686146103de57338752600a815282872080546001600160a01b0319908116881790915560058054909689939291848a8789835b85851061039e5750505050505086549360019485810180911161038b57851c1161035b578392858b54169861023d885161022481610b1b565b8681528336818301378b61023782610e14565b52611540565b8a848d5416178c558a8c52600c825260ff888d2054161561032f575b90879392918c979688905b6102e5575b505050505050541692833b156101335760248691838551968794859363a6f9dae160e01b85528401525af19081156102dc57506102c9575b507feeb293e1f8f3a9db91ade748726387ed1352ca78f5430c5f06fe3d1e1ad505798380a380f35b6102d590939193610af1565b91386102a1565b513d86823e3d90fd5b909192939497825482101561032857908798879892889361030584610bd7565b90549060031b1c16815286865220868154169055019088949392918d9897610264565b9794610269565b610356885161033d81610b1b565b8681528336818301378c61035082610e14565b5261135b565b610259565b5050505050505050337ff7a840461203e112d07cdffecdb4cd2ac85d95a0c3ad5309549834f854ecfea58380a380f35b634e487b7160e01b8c526011895260248cfd5b826103a886610bd7565b90549060031b1c168152868952205416146103ca575b6001018a87898e6101eb565b946103d6600191610db4565b9590506103be565b8360849184519162461bcd60e51b8352820152602a60248201527f477561726469616e2068617320616c72656164792061677265656420746f20746044820152693434b99039b4b3b732b960b11b6064820152fd5b91608492519162461bcd60e51b8352820152602960248201527f4f6e6c7920677561726469616e732063616e20616772656520746f206368616e60448201526833b29039b4b3b732b960b91b6064820152fd5b8380fd5b8280fd5b50503461013357816003193601126101335760209060ff6003541690519015158152f35b5050346101335760203660031901126101335760209160ff9082906001600160a01b036104dd610ad6565b168152600e855220541690519015158152f35b505034610133578160031936011261013357905490516001600160a01b039091168152602090f35b5050346101335781600319360112610133576020906007549051908152f35b50503461013357816003193601126101335760ff61056091338452600c60205283205416610c24565b8060065542600855337f3c2b7a5bd80fdc221297ec8cc00ec693806a93aa8b4ad7b8fe914897a18690a28280a280f35b50503461013357816003193601126101335760015490516001600160a01b039091168152602090f35b5050346101335781600319360112610133576020906009549051908152f35b505034610133576020366003190112610133576020916001600160a01b0390829082610602610ad6565b168152600d85522054169051908152f35b90503461048a578260031936011261048a5760209250549051908152f35b50503461013357816003193601126101335760ff61065a91338452600c60205283205416610c24565b8060075542600955337fab5290a8672594e8936ac21854becb855b1a55be64b55dfe5a097e6a98deb9e38280a280f35b83346101515760203660031901126101515761014e6106a7610ad6565b610e7a565b505034610133576020366003190112610133576020916001600160a01b03908290826106d6610ad6565b168152600a85522054169051908152f35b90503461048a57602036600319011261048a5735916005548310156101515750610712602092610bd7565b905491519160018060a01b039160031b1c168152f35b9190503461048a578260031936011261048a573383526020600c815260ff9161075660ff8287205416610c24565b60039160ff60035416156108ef57338652600e90600e815260ff83882054166108a157338752600e81528287209360019660ff199588878254161790558890896005988a600554925b8d8a8583106108625750505050505080549089820180921161084f5750881c11156107c8578780f35b8695856003541660035588965b610811575b50505050505050507f75c393fc77f0b8c4db92092965eb5860f2c3bacbd8f2ab5d31db20068e4409208180a1388080808080808780f35b805487101561084a5787876108268299610bd7565b905490851b1c6001600160a01b03168b52858552868b2080548916905501966107d5565b6107da565b634e487b7160e01b8b526011905260248afd5b849161086d84610bd7565b9054908b1b1c6001600160a01b031681528b8b52205416610891575b018b9061079f565b9461089b90610db4565b94610889565b8560849184519162461bcd60e51b83528201526024808201527f477561726469616e2068617320616c726561647920766f74656420746f20756e6044820152636c6f636b60e01b6064820152fd5b8490606492519162461bcd60e51b835282015260156024820152741058d8dbdd5b9d081a5cc81b9bdd081b1bd8dad959605a1b6044820152fd5b90503461048a5761093936610b37565b9160018060a01b0384541633148015610990575b1561095c578361014e84610cde565b906020606492519162461bcd60e51b8352820152600e60248201526d139bdd08185d5d1a1bdc9a5e995960921b6044820152fd5b5030331461094d565b5050346101335760203660031901126101335760209181906001600160a01b036109c1610ad6565b168152600b845220549051908152f35b5050346101335760203660031901126101335760209160ff9082906001600160a01b036109fc610ad6565b168152600c855220541690519015158152f35b90503461048a578260031936011261048a57338352600c602052610a3860ff8385205416610c24565b6003549160ff8316610a775760ff198316600117600355837f6315bfbb3e4bfb0dc09b4d5295f60e362ba0f8ac48838a712a9233ab407287a98180a180f35b906020606492519162461bcd60e51b8352820152601960248201527f4163636f756e7420697320616c7265616479206c6f636b6564000000000000006044820152fd5b8490346101335781600319360112610133576020906006548152f35b600435906001600160a01b0382168203610aec57565b600080fd5b67ffffffffffffffff8111610b0557604052565b634e487b7160e01b600052604160045260246000fd5b6040810190811067ffffffffffffffff821117610b0557604052565b602080600319830112610aec5767ffffffffffffffff91600435838111610aec5781602382011215610aec57806004013590848211610b05578160051b9160405195601f19603f85011687019087821090821117610b0557604052855260246020860192820101928311610aec57602401905b828210610bb8575050505090565b81356001600160a01b0381168103610aec578152908301908301610baa565b600554811015610c0e5760056000527f036b6384b5eca791c62761152d0c79bb0604c104a5fb6f4eb0703f3154bb3db00190600090565b634e487b7160e01b600052603260045260246000fd5b15610c2b57565b60405162461bcd60e51b815260206004820152601860248201527f43616c6c6572206973206e6f74206120677561726469616e00000000000000006044820152606490fd5b91908203918211610c7d57565b634e487b7160e01b600052601160045260246000fd5b15610c9a57565b606460405162461bcd60e51b815260206004820152602060248201527f3234682073696e6365206c6173742063616e63656c206e6f74207061737365646044820152fd5b60016004541115610da95760065415610d605762015180610d0160065442610c70565b10610d1b57610d0f9061135b565b60006006556000600855565b60405162461bcd60e51b815260206004820152601f60248201527f323468206e6f74207061737365642073696e636520696e6974696174696f6e006044820152606490fd5b50610d7b62015180610d7460085442610c70565b1015610c93565b426006556001337f6eea9eab64b31fe2c54a45c1aafac804dabd5cd1f353d14a81869b25a85ab87f600080a3565b610db29061135b565b565b6000198114610c7d5760010190565b6005548015610df15760001901610dd981610bd7565b81549060018060a01b039060031b1b19169055600555565b634e487b7160e01b600052603160045260246000fd5b8015610c7d576000190190565b805115610c0e5760200190565b8051821015610c0e5760209160051b010190565b602090602060408183019282815285518094520193019160005b828110610e5d575050505090565b83516001600160a01b031685529381019392810192600101610e4f565b9060009160018060a01b0380911692838152602090600c825260409060ff8282205416156111fc578533146111c35783815416331480156111af575b1561115d57338152600d808452828220938454948887871614611152576001600160a01b03199586168917905587337f97c0e68f7fd62c769a1b31a23dd2a4a0e52daee083ad3e40bf50e25a1082b0c88580a3829583600590600554905b8181106111125750506004998a54986001998a81018091116110ff578a1c1115610f46575b5050505050505050509050565b808652600c8452868620805460ff1916905585895b61105a575b50610f6b8b54610e07565b8b55807fb8107d0c6b40be480ce3172ee66ba6d64b71f6b1685a851340036e6e2e3e3c528780a2865190610f9e82610b1b565b898252843681840137610fb082610e14565b528289541690813b15611056578691610fde91838a519e8f948593849263f1abc3cd60e01b84528301610e35565b03925af1998a1561104c5788999a611039575b5084975b611001575b8998610f39565b805488101561103457888883611017839b610bd7565b90549060031b1c1687528585528787208981541690550197610ff5565b610ffa565b61104590959195610af1565b9338610ff1565b86513d87823e3d90fd5b8680fd5b89848454808410156110f7578461107085610bd7565b939054600394851b1c161461108a57505080910190610f5b565b90915060001981019081116110e357856110d593926110ab6110b793610bd7565b9054911b1c1691610bd7565b90919060018060a01b038084549260031b9316831b921b1916179055565b6110dd610dc3565b38610f60565b50634e487b7160e01b885260118d52602488fd5b505050610f60565b634e487b7160e01b885260118d52602488fd5b8361111c82610bd7565b90549060031b1c1687528585528b8489892054161461113e575b600101610f14565b9861114a600191610db4565b999050611136565b505050505050509050565b815162461bcd60e51b815260048101849052602560248201527f4f6e6c79206f776e6572206f7220677561726469616e732063616e2063616c6c604482015264207468697360d81b6064820152608490fd5b50338152600c835260ff8282205416610eb6565b815162461bcd60e51b815260048101849052601260248201527121b0b73737ba103932b6b7bb329039b2b63360711b6044820152606490fd5b815162461bcd60e51b815260048101849052602260248201527f50726f76696465642061646472657373206973206e6f7420612067756172646960448201526130b760f11b6064820152608490fd5b6000546001600160a01b0316330361131657600754156112d4576202a30061127560075442610c70565b1061128f5761128390611540565b60006007556000600955565b60405162461bcd60e51b815260206004820152601f60248201527f343868206e6f74207061737365642073696e636520696e6974696174696f6e006044820152606490fd5b506112e862015180610d7460095442610c70565b426007556001337fdd5c78143a65c9d8149b3be811924ea0f503a9123c7e4ac843ca846130237900600080a3565b60405162461bcd60e51b815260206004820152601960248201527f4f6e6c7920746865206f776e65722063616e2072656d6f7665000000000000006044820152606490fd5b9060005b82518110156114dd576001600160a01b03908161137c8286610e21565b51161561148c578161138e8286610e21565b5116600052600c60209080825260409160ff83600020541661144957846113b58589610e21565b511660005252600020916001928360ff19825416179055806113d78387610e21565b511660059081549468010000000000000000861015610b055785611404936110b792600198019055610bd7565b60046114108154610db4565b905561141c8286610e21565b51167f038596bb31e2e7d3d9f184d4c98b310103f6d7f5830e5eec32bffe6f1728f969600080a20161135f565b60649083519062461bcd60e51b82526004820152601a60248201527f4164647265737320616c7265616479206120677561726469616e0000000000006044820152fd5b60405162461bcd60e51b815260206004820152602360248201527f43616e6e6f7420616464207a65726f206164647265737320617320677561726460448201526234b0b760e91b6064820152608490fd5b506001549091906001600160a01b0316803b15610aec576040516304416e6960e21b815291600091839182908490829061151a9060048301610e35565b03925af180156115345761152b5750565b610db290610af1565b6040513d6000823e3d90fd5b906000915b80518310156116d5576001600160a01b03806115618584610e21565b5116600052600c60209181835260409160ff8360002054161561169857816115898887610e21565b511660005283528160002060ff1981541690556004936115a98554610e07565b8555600095865b6005548082101561168a578990856115c784610bd7565b919054816115d76003968a610e21565b511692851b1c16146115ed5750506001016115b0565b909193985060009997969594929919810190811161167557916110b7916110ab6116179594610bd7565b61161f610dc3565b60015b15611634575050506001019190611545565b5162461bcd60e51b815291820152601a60248201527f477561726469616e206e6f7420666f756e6420696e206c697374000000000000604482015260649150fd5b601187634e487b7160e01b6000525260246000fd5b505096949392915094611622565b825162461bcd60e51b815260048101859052601660248201527520b2323932b9b9903737ba10309033bab0b93234b0b760511b6044820152606490fd5b600154919250906001600160a01b0316803b15610aec5760405163f1abc3cd60e01b815291600091839182908490829061151a9060048301610e3556fea26469706673582212205851c9acbed2f2bb030238d005cc8f63207008ab17fe95e3a975bb6d25938e0f64736f6c63430008170033",
  "linkReferences": {},
  "deployedLinkReferences": {}
}