{
  "_format": "hh-sol-artifact-1",
  "contractName": "DiamondMultiInit",
  "sourceName": "contracts/diamond/upgradeInitializers/DiamondMultiInit.sol",
  "abi": [
    {
      "inputs": [
        {
          "internalType": "uint256",
          "name": "_addressesLength",
          "type": "uint256"
        },
        {
          "internalType": "uint256",
          "name": "_calldataLength",
          "type": "uint256"
        }
      ],
      "name": "AddressAndCalldataLengthDoNotMatch",
      "type": "error"
    },
    {
      "inputs": [
        {
          "internalType": "address",
          "name": "_initializationContractAddress",
          "type": "address"
        },
        {
          "internalType": "bytes",
          "name": "_calldata",
          "type": "bytes"
        }
      ],
      "name": "InitializationFunctionReverted",
      "type": "error"
    },
    {
      "inputs": [
        {
          "internalType": "address",
          "name": "_contractAddress",
          "type": "address"
        },
        {
          "internalType": "string",
          "name": "_message",
          "type": "string"
        }
      ],
      "name": "NoBytecodeAtAddress",
      "type": "error"
    },
    {
      "inputs": [
        {
          "internalType": "address[]",
          "name": "_addresses",
          "type": "address[]"
        },
        {
          "internalType": "bytes[]",
          "name": "_calldata",
          "type": "bytes[]"
        }
      ],
      "name": "multiInit",
      "outputs": [],
      "stateMutability": "nonpayable",
      "type": "function"
    }
  ],
  "bytecode": "0x608080604052346100165761037c908161001c8239f35b600080fdfe6080806040526004908136101561001557600080fd5b600091823560e01c636e02fa3c1461002c57600080fd5b3461015b57604036600319011261015b5767ffffffffffffffff9080358281116101575761005d903690830161015f565b93906024803585811161015357610077903690860161015f565b94909385880361013a5750875b87811061008f578880f35b600581901b8481013591906001600160a01b0383168303610124578782101561012857860135601e198736030181121561012457860191823592898411610120576020918c83830193863603851361011c576100f26100ed886101d1565b610195565b938785528188369201011161011c578660019761011696838701378401015261022d565b01610084565b5080fd5b8b80fd5b8a80fd5b634e487b7160e01b8b5260328452848bfd5b85886044936339a070b360e11b84528301526024820152fd5b8780fd5b8480fd5b8280fd5b9181601f840112156101905782359167ffffffffffffffff8311610190576020808501948460051b01011161019057565b600080fd5b6040519190601f01601f1916820167ffffffffffffffff8111838210176101bb57604052565b634e487b7160e01b600052604160045260246000fd5b67ffffffffffffffff81116101bb57601f01601f191660200190565b919082519283825260005b848110610219575050826000602080949584010152601f8019910116010190565b6020818301810151848301820152016101f8565b6001600160a01b03811680156103415760409182516060810181811067ffffffffffffffff8211176101bb578452602881527f4c69624469616d6f6e644375743a205f696e6974206164647265737320686173602082015267206e6f20636f646560c01b84820152813b1561031957506000809185519060208701905af4923d15610311573d936102c06100ed866101d1565b9485523d6000602087013e5b156102d75750505050565b8351156102e657835160208501fd5b61030d90835193849363192105d760e01b85526004850152602484015260448301906101ed565b0390fd5b6060936102cc565b61030d9150835193849363919834b960e01b85526004850152602484015260448301906101ed565b50505056fea26469706673582212202e3d5b972cf23c65249f30ec82957ae8d5992870de6e62380e9ac1efeeff99d064736f6c63430008170033",
  "linkReferences": {},
  "deployedLinkReferences": {}
}