{
  "_format": "hh-sol-artifact-1",
  "contractName": "ManagementFacet",
  "sourceName": "contracts/diamond/facets/custom/ManagementFacet.sol",
  "abi": [
    {
      "inputs": [
        {
          "internalType": "address",
          "name": "_user",
          "type": "address"
        },
        {
          "internalType": "address",
          "name": "_contractOwner",
          "type": "address"
        }
      ],
      "name": "NotContractOwner",
      "type": "error"
    },
    {
      "anonymous": false,
      "inputs": [],
      "name": "MarketplacePaused",
      "type": "event"
    },
    {
      "anonymous": false,
      "inputs": [
        {
          "indexed": false,
          "internalType": "uint256",
          "name": "newPlatformFee",
          "type": "uint256"
        }
      ],
      "name": "PlatformFeeUpdated",
      "type": "event"
    },
    {
      "anonymous": false,
      "inputs": [
        {
          "indexed": false,
          "internalType": "uint256",
          "name": "newPremiumFee",
          "type": "uint256"
        }
      ],
      "name": "PremiumDiscountUpdated",
      "type": "event"
    },
    {
      "anonymous": false,
      "inputs": [
        {
          "indexed": false,
          "internalType": "address",
          "name": "newPremiumNftAddress",
          "type": "address"
        }
      ],
      "name": "PremiumNFTAddressUpdated",
      "type": "event"
    },
    {
      "anonymous": false,
      "inputs": [
        {
          "indexed": false,
          "internalType": "address",
          "name": "newWETHAddress",
          "type": "address"
        }
      ],
      "name": "WETHAddressUpdated",
      "type": "event"
    },
    {
      "inputs": [],
      "name": "getPremiumNftAddress",
      "outputs": [
        {
          "internalType": "address",
          "name": "",
          "type": "address"
        }
      ],
      "stateMutability": "view",
      "type": "function"
    },
    {
      "inputs": [
        {
          "internalType": "bool",
          "name": "_paused",
          "type": "bool"
        }
      ],
      "name": "setMarketplacePaused",
      "outputs": [],
      "stateMutability": "nonpayable",
      "type": "function"
    },
    {
      "inputs": [
        {
          "internalType": "uint256",
          "name": "_platformFee",
          "type": "uint256"
        }
      ],
      "name": "setPlatformFee",
      "outputs": [],
      "stateMutability": "nonpayable",
      "type": "function"
    },
    {
      "inputs": [
        {
          "internalType": "uint256",
          "name": "_premiumDiscount",
          "type": "uint256"
        }
      ],
      "name": "setPremiumDiscount",
      "outputs": [],
      "stateMutability": "nonpayable",
      "type": "function"
    },
    {
      "inputs": [
        {
          "internalType": "address",
          "name": "_premiumNftAddress",
          "type": "address"
        }
      ],
      "name": "setPremiumNftAddress",
      "outputs": [],
      "stateMutability": "nonpayable",
      "type": "function"
    },
    {
      "inputs": [
        {
          "internalType": "address",
          "name": "_wethAddress",
          "type": "address"
        }
      ],
      "name": "setWETHAddress",
      "outputs": [],
      "stateMutability": "nonpayable",
      "type": "function"
    },
    {
      "inputs": [
        {
          "internalType": "address",
          "name": "erc20Token",
          "type": "address"
        }
      ],
      "name": "withdrawERC20",
      "outputs": [],
      "stateMutability": "nonpayable",
      "type": "function"
    },
    {
      "inputs": [],
      "name": "withdrawETH",
      "outputs": [],
      "stateMutability": "nonpayable",
      "type": "function"
    },
    {
      "stateMutability": "payable",
      "type": "receive"
    }
  ],
  "bytecode": "0x608080604052346100165761063e908161001c8239f35b600080fdfe60406080815260048036101561001f575b5050361561001d57600080fd5b005b600091823560e01c806312e8e2c3146104b557806324838bb11461046d578063418d0cdf146103f25780636a4234eb146103655780636b0e78b2146102d8578063d13f1b3e1461025d578063e086e5ec146101c55763f4f3b200146100845750610010565b346101c157602090816003193601126101a85782356001600160a01b0381811694918590036101bd576100b56105b4565b7fc8fcad8db84d3cc18b4c41d551ea0ee66dd599cde068d998e57d5e09332c131f541690858351956370a0823160e01b875230838801528587602481845afa9687156101b3578297610177575b50916044918694938651988995869463a9059cbb60e01b865285015260248401525af190811561016e5750610135578280f35b81813d8311610167575b610149818361057c565b810103126101635751801515036101605738808280f35b80fd5b5080fd5b503d61013f565b513d85823e3d90fd5b9193929096508582813d83116101ac575b610192818361057c565b810103126101a857905195919290916044610102565b8380fd5b503d610188565b85513d84823e3d90fd5b8580fd5b8280fd5b508290346101635781600319360112610163576101e06105b4565b8180808060018060a01b037fc8fcad8db84d3cc18b4c41d551ea0ee66dd599cde068d998e57d5e09332c131f541647905af1503d15610257573d9267ffffffffffffffff8411610244575060206102419293601f801991011601905161057c565b80f35b634e487b7160e01b835260419052602482fd5b50905080f35b5090346101c15760203660031901126101c1577f2c524758b986b6dd8f808fae54ddaeefca71c51da0cfa80257573d916c1a5d3691602091359061029f6105b4565b6102ad611388831115610530565b817fc48fed42ba98a7f089dad48ac4009ba5d776a9dfb9f8c82b0294ff480536a1d55551908152a180f35b5090346101c15760203660031901126101c157356001600160a01b03811691908290036101c1577f82fa38e103a1854b7bd7beb5378206402f18973632cb0a18d4a26578735334109160209161032c6105b4565b7fc48fed42ba98a7f089dad48ac4009ba5d776a9dfb9f8c82b0294ff480536a1d380546001600160a01b0319168317905551908152a180f35b5090346101c15760203660031901126101c157356001600160a01b03811691908290036101c1577ffc5755c22596fa578affa58453e4bfd3f4abb6c6a803957bd9a21e48cd61bc87916020916103b96105b4565b7fc48fed42ba98a7f089dad48ac4009ba5d776a9dfb9f8c82b0294ff480536a1d280546001600160a01b0319168317905551908152a180f35b5050346101635760203660031901126101635735801515809103610163576104186105b4565b7fc48fed42ba98a7f089dad48ac4009ba5d776a9dfb9f8c82b0294ff480536a1d89060ff801983541691161790557ff9ecce735cbdc09411aea95fac8e250d8ba45591e555673cff75969cd66739118180a180f35b8382346101635781600319360112610163577fc48fed42ba98a7f089dad48ac4009ba5d776a9dfb9f8c82b0294ff480536a1d35490516001600160a01b039091168152602090f35b5090346101c15760203660031901126101c1577f45610d581145924dd7090a5017e5f2b1d6f42213bb2e95707ff86846bbfcb1ca9160209135906104f76105b4565b610505612710831115610530565b817fc48fed42ba98a7f089dad48ac4009ba5d776a9dfb9f8c82b0294ff480536a1d45551908152a180f35b1561053757565b60405162461bcd60e51b815260206004820152601960248201527f4665652065786365656473206d6178696d756d206c696d6974000000000000006044820152606490fd5b90601f8019910116810190811067ffffffffffffffff82111761059e57604052565b634e487b7160e01b600052604160045260246000fd5b7fc8fcad8db84d3cc18b4c41d551ea0ee66dd599cde068d998e57d5e09332c131f546001600160a01b0316338190036105ea5750565b6044906040519063ff4127cb60e01b82523360048301526024820152fdfea2646970667358221220fef1c25d2603f539689112bbe68a0eccd19c9d9693bd95e6631f983a50731c6864736f6c63430008170033",
  "linkReferences": {},
  "deployedLinkReferences": {}
}