{
  "_format": "hh-sol-artifact-1",
  "contractName": "ERC20Template",
  "sourceName": "contracts/ERC20Template.sol",
  "abi": [
    {
      "inputs": [
        {
          "internalType": "string",
          "name": "name",
          "type": "string"
        },
        {
          "internalType": "string",
          "name": "symbol",
          "type": "string"
        }
      ],
      "stateMutability": "nonpayable",
      "type": "constructor"
    },
    {
      "inputs": [
        {
          "internalType": "address",
          "name": "spender",
          "type": "address"
        },
        {
          "internalType": "uint256",
          "name": "allowance",
          "type": "uint256"
        },
        {
          "internalType": "uint256",
          "name": "needed",
          "type": "uint256"
        }
      ],
      "name": "ERC20InsufficientAllowance",
      "type": "error"
    },
    {
      "inputs": [
        {
          "internalType": "address",
          "name": "sender",
          "type": "address"
        },
        {
          "internalType": "uint256",
          "name": "balance",
          "type": "uint256"
        },
        {
          "internalType": "uint256",
          "name": "needed",
          "type": "uint256"
        }
      ],
      "name": "ERC20InsufficientBalance",
      "type": "error"
    },
    {
      "inputs": [
        {
          "internalType": "address",
          "name": "approver",
          "type": "address"
        }
      ],
      "name": "ERC20InvalidApprover",
      "type": "error"
    },
    {
      "inputs": [
        {
          "internalType": "address",
          "name": "receiver",
          "type": "address"
        }
      ],
      "name": "ERC20InvalidReceiver",
      "type": "error"
    },
    {
      "inputs": [
        {
          "internalType": "address",
          "name": "sender",
          "type": "address"
        }
      ],
      "name": "ERC20InvalidSender",
      "type": "error"
    },
    {
      "inputs": [
        {
          "internalType": "address",
          "name": "spender",
          "type": "address"
        }
      ],
      "name": "ERC20InvalidSpender",
      "type": "error"
    },
    {
      "anonymous": false,
      "inputs": [
        {
          "indexed": true,
          "internalType": "address",
          "name": "owner",
          "type": "address"
        },
        {
          "indexed": true,
          "internalType": "address",
          "name": "spender",
          "type": "address"
        },
        {
          "indexed": false,
          "internalType": "uint256",
          "name": "value",
          "type": "uint256"
        }
      ],
      "name": "Approval",
      "type": "event"
    },
    {
      "anonymous": false,
      "inputs": [
        {
          "indexed": true,
          "internalType": "address",
          "name": "dst",
          "type": "address"
        },
        {
          "indexed": false,
          "internalType": "uint256",
          "name": "wad",
          "type": "uint256"
        }
      ],
      "name": "Deposit",
      "type": "event"
    },
    {
      "anonymous": false,
      "inputs": [
        {
          "indexed": true,
          "internalType": "address",
          "name": "from",
          "type": "address"
        },
        {
          "indexed": true,
          "internalType": "address",
          "name": "to",
          "type": "address"
        },
        {
          "indexed": false,
          "internalType": "uint256",
          "name": "value",
          "type": "uint256"
        }
      ],
      "name": "Transfer",
      "type": "event"
    },
    {
      "anonymous": false,
      "inputs": [
        {
          "indexed": true,
          "internalType": "address",
          "name": "src",
          "type": "address"
        },
        {
          "indexed": false,
          "internalType": "uint256",
          "name": "wad",
          "type": "uint256"
        }
      ],
      "name": "Withdrawal",
      "type": "event"
    },
    {
      "inputs": [
        {
          "internalType": "address",
          "name": "to",
          "type": "address"
        },
        {
          "internalType": "uint256",
          "name": "amount",
          "type": "uint256"
        }
      ],
      "name": "adminMint",
      "outputs": [],
      "stateMutability": "nonpayable",
      "type": "function"
    },
    {
      "inputs": [
        {
          "internalType": "address",
          "name": "owner",
          "type": "address"
        },
        {
          "internalType": "address",
          "name": "spender",
          "type": "address"
        }
      ],
      "name": "allowance",
      "outputs": [
        {
          "internalType": "uint256",
          "name": "",
          "type": "uint256"
        }
      ],
      "stateMutability": "view",
      "type": "function"
    },
    {
      "inputs": [
        {
          "internalType": "address",
          "name": "spender",
          "type": "address"
        },
        {
          "internalType": "uint256",
          "name": "value",
          "type": "uint256"
        }
      ],
      "name": "approve",
      "outputs": [
        {
          "internalType": "bool",
          "name": "",
          "type": "bool"
        }
      ],
      "stateMutability": "nonpayable",
      "type": "function"
    },
    {
      "inputs": [
        {
          "internalType": "address",
          "name": "account",
          "type": "address"
        }
      ],
      "name": "balanceOf",
      "outputs": [
        {
          "internalType": "uint256",
          "name": "",
          "type": "uint256"
        }
      ],
      "stateMutability": "view",
      "type": "function"
    },
    {
      "inputs": [],
      "name": "decimals",
      "outputs": [
        {
          "internalType": "uint8",
          "name": "",
          "type": "uint8"
        }
      ],
      "stateMutability": "view",
      "type": "function"
    },
    {
      "inputs": [],
      "name": "deposit",
      "outputs": [],
      "stateMutability": "payable",
      "type": "function"
    },
    {
      "inputs": [],
      "name": "name",
      "outputs": [
        {
          "internalType": "string",
          "name": "",
          "type": "string"
        }
      ],
      "stateMutability": "view",
      "type": "function"
    },
    {
      "inputs": [],
      "name": "owner",
      "outputs": [
        {
          "internalType": "address",
          "name": "",
          "type": "address"
        }
      ],
      "stateMutability": "view",
      "type": "function"
    },
    {
      "inputs": [],
      "name": "symbol",
      "outputs": [
        {
          "internalType": "string",
          "name": "",
          "type": "string"
        }
      ],
      "stateMutability": "view",
      "type": "function"
    },
    {
      "inputs": [],
      "name": "totalSupply",
      "outputs": [
        {
          "internalType": "uint256",
          "name": "",
          "type": "uint256"
        }
      ],
      "stateMutability": "view",
      "type": "function"
    },
    {
      "inputs": [
        {
          "internalType": "address",
          "name": "to",
          "type": "address"
        },
        {
          "internalType": "uint256",
          "name": "value",
          "type": "uint256"
        }
      ],
      "name": "transfer",
      "outputs": [
        {
          "internalType": "bool",
          "name": "",
          "type": "bool"
        }
      ],
      "stateMutability": "nonpayable",
      "type": "function"
    },
    {
      "inputs": [
        {
          "internalType": "address",
          "name": "from",
          "type": "address"
        },
        {
          "internalType": "address",
          "name": "to",
          "type": "address"
        },
        {
          "internalType": "uint256",
          "name": "value",
          "type": "uint256"
        }
      ],
      "name": "transferFrom",
      "outputs": [
        {
          "internalType": "bool",
          "name": "",
          "type": "bool"
        }
      ],
      "stateMutability": "nonpayable",
      "type": "function"
    },
    {
      "inputs": [
        {
          "internalType": "uint256",
          "name": "wad",
          "type": "uint256"
        }
      ],
      "name": "withdraw",
      "outputs": [],
      "stateMutability": "nonpayable",
      "type": "function"
    }
  ],
  "bytecode": "0x6080604052346200032f5762000de2803803806200001d8162000334565b9283398101906040818303126200032f5780516001600160401b03908181116200032f57836200004f9184016200035a565b91602093848201518381116200032f576200006b92016200035a565b82518281116200022f576003918254916001958684811c9416801562000324575b888510146200030e578190601f94858111620002b8575b508890858311600114620002515760009262000245575b505060001982861b1c191690861b1783555b80519384116200022f5760049586548681811c9116801562000224575b828210146200020f57838111620001c4575b50809285116001146200015657509383949184926000956200014a575b50501b92600019911b1c19161790555b600580546001600160a01b03191633179055604051610a159081620003cd8239f35b01519350388062000118565b92919084601f1981168860005285600020956000905b89838310620001a957505050106200018e575b50505050811b01905562000128565b01519060f884600019921b161c19169055388080806200017f565b8587015189559097019694850194889350908101906200016c565b87600052816000208480880160051c82019284891062000205575b0160051c019087905b828110620001f8575050620000fb565b60008155018790620001e8565b92508192620001df565b602288634e487b7160e01b6000525260246000fd5b90607f1690620000e9565b634e487b7160e01b600052604160045260246000fd5b015190503880620000ba565b90889350601f19831691876000528a6000209260005b8c828210620002a1575050841162000288575b505050811b018355620000cc565b015160001983881b60f8161c191690553880806200027a565b8385015186558c9790950194938401930162000267565b90915085600052886000208580850160051c8201928b861062000304575b918a91869594930160051c01915b828110620002f4575050620000a3565b600081558594508a9101620002e4565b92508192620002d6565b634e487b7160e01b600052602260045260246000fd5b93607f16936200008c565b600080fd5b6040519190601f01601f191682016001600160401b038111838210176200022f57604052565b919080601f840112156200032f5782516001600160401b0381116200022f5760209062000390601f8201601f1916830162000334565b928184528282870101116200032f5760005b818110620003b857508260009394955001015290565b8581018301518482018401528201620003a256fe6080604081815260048036101561001557600080fd5b600092833560e01c90816306fdde03146106e657508063095ea7b31461063d57806318160ddd1461061e57806323b872dd146105285780632e1a7d4d14610370578063313ce5671461035457806370a082311461031d5780638da5cb5b146102f457806395d89b41146101ee578063a9059cbb146101bd578063d0e30db014610179578063dd62ed3e1461012c5763e58306f9146100b257600080fd5b346101285781600319360112610128576100ca610821565b6005549092906001600160a01b031633036100ef57836100ec60243585610968565b80f35b906020606492519162461bcd60e51b8352820152601360248201527213db9b1e481bdddb995c8818d85b881b5a5b9d606a1b6044820152fd5b8280fd5b5050346101755780600319360112610175578060209261014a610821565b61015261083c565b6001600160a01b0391821683526001865283832091168252845220549051908152f35b5080fd5b505081600319360112610175576101903433610968565b513481527fe1fffcc4923d04b559f4d29a8bfc6cda04eb5b0d3c460751c2402c5c5cc9109c60203392a280f35b5050346101755780600319360112610175576020906101e76101dd610821565b602435903361088a565b5160018152f35b5091903461017557816003193601126101755780519180938054916001908360011c92600185169485156102ea575b60209586861081146102d7578589529081156102b3575060011461025b575b610257878761024d828c0383610852565b51918291826107d8565b0390f35b81529295507f8a35acfbc15ff81a39ae7d344fd709f28e8600b4aa8c65c6b64bfe7fe36bd19b5b8284106102a057505050826102579461024d9282010194388061023c565b8054868501880152928601928101610282565b60ff19168887015250505050151560051b830101925061024d82610257388061023c565b634e487b7160e01b845260228352602484fd5b93607f169361021d565b50503461017557816003193601126101755760055490516001600160a01b039091168152602090f35b5050346101755760203660031901126101755760209181906001600160a01b03610345610821565b16815280845220549051908152f35b5050346101755781600319360112610175576020905160128152f35b5090346101285760209081600319360112610524578235928347106104e3578480808087335af13d156104de573d67ffffffffffffffff81116104cb578351906103c3601f8201601f1916870183610852565b815286853d92013e5b33156104b55733865285845282862054858110610489578590338852878652038387205584600254036002558583518681527fddf252ad1be2c89b69c2b068fc378daa952ba7f163c4a11628f55a4df523b3ef863392a3156104565750907f7fcf532c15f0a6db0bd6d0e038bea71d30d808c7d98cb3bf7268a95bf5081b6591519283523392a280f35b82606492519162461bcd60e51b8352820152600f60248201526e151c985b9cd9995c8819985a5b1959608a1b6044820152fd5b835163391434e360e21b8152338185019081526020810192909252604082018790529081906060010390fd5b50846024925191634b637e8f60e11b8352820152fd5b634e487b7160e01b875260418352602487fd5b6103cc565b82606492519162461bcd60e51b8352820152601d60248201527f496e73756666696369656e7420636f6e74726163742062616c616e63650000006044820152fd5b8380fd5b50823461061b57606036600319011261061b57610543610821565b61054b61083c565b916044359360018060a01b038316808352600160205286832033845260205286832054916000198303610587575b6020886101e789898961088a565b8683106105ef5781156105d85733156105c1575082526001602090815286832033845281529186902090859003905582906101e787610579565b8751634a1406b160e11b8152908101849052602490fd5b875163e602df0560e01b8152908101849052602490fd5b8751637dc7a0d960e11b8152339181019182526020820193909352604081018790528291506060010390fd5b80fd5b5050346101755781600319360112610175576020906002549051908152f35b5034610128578160031936011261012857610656610821565b6024359033156106cf576001600160a01b03169182156106b857508083602095338152600187528181208582528752205582519081527f8c5be1e5ebec7d5bd14f71427d1e84f3dd0314c0f7b2291e5b200ac8c7c3b925843392a35160018152f35b8351634a1406b160e11b8152908101859052602490fd5b835163e602df0560e01b8152808401869052602490fd5b9291905034610524578360031936011261052457600354600181811c91869082811680156107ce575b60209586861082146107bb57508488529081156107995750600114610740575b610257868661024d828b0383610852565b929550600383527fc2575a0e9e593c00f959f8c92f12db2869c3395a3b0502d05e2516446f71f85b5b82841061078657505050826102579461024d92820101943861072f565b8054868501880152928601928101610769565b60ff191687860152505050151560051b830101925061024d826102573861072f565b634e487b7160e01b845260229052602483fd5b93607f169361070f565b6020808252825181830181905290939260005b82811061080d57505060409293506000838284010152601f8019910116010190565b8181018601518482016040015285016107eb565b600435906001600160a01b038216820361083757565b600080fd5b602435906001600160a01b038216820361083757565b90601f8019910116810190811067ffffffffffffffff82111761087457604052565b634e487b7160e01b600052604160045260246000fd5b916001600160a01b0380841692831561094f57169283156109365760009083825281602052604082205490838210610904575091604082827fddf252ad1be2c89b69c2b068fc378daa952ba7f163c4a11628f55a4df523b3ef958760209652828652038282205586815220818154019055604051908152a3565b60405163391434e360e21b81526001600160a01b03919091166004820152602481019190915260448101839052606490fd5b60405163ec442f0560e01b815260006004820152602490fd5b604051634b637e8f60e11b815260006004820152602490fd5b6001600160a01b031690811561093657600254908082018092116109c95760207fddf252ad1be2c89b69c2b068fc378daa952ba7f163c4a11628f55a4df523b3ef9160009360025584845283825260408420818154019055604051908152a3565b634e487b7160e01b600052601160045260246000fdfea26469706673582212209eca29d33c0ba7bb39a0dc145d074375eb23702940198ad2178fc4a3f45f5eb564736f6c63430008170033",
  "linkReferences": {},
  "deployedLinkReferences": {}
}