{
  "_format": "hh-sol-artifact-1",
  "contractName": "DiamondCutFacet",
  "sourceName": "contracts/diamond/facets/DiamondCutFacet.sol",
  "abi": [
    {
      "inputs": [
        {
          "internalType": "bytes4",
          "name": "_selector",
          "type": "bytes4"
        }
      ],
      "name": "CannotAddFunctionToDiamondThatAlreadyExists",
      "type": "error"
    },
    {
      "inputs": [
        {
          "internalType": "bytes4[]",
          "name": "_selectors",
          "type": "bytes4[]"
        }
      ],
      "name": "CannotAddSelectorsToZeroAddress",
      "type": "error"
    },
    {
      "inputs": [
        {
          "internalType": "bytes4",
          "name": "_selector",
          "type": "bytes4"
        }
      ],
      "name": "CannotRemoveFunctionThatDoesNotExist",
      "type": "error"
    },
    {
      "inputs": [
        {
          "internalType": "bytes4",
          "name": "_selector",
          "type": "bytes4"
        }
      ],
      "name": "CannotRemoveImmutableFunction",
      "type": "error"
    },
    {
      "inputs": [
        {
          "internalType": "bytes4",
          "name": "_selector",
          "type": "bytes4"
        }
      ],
      "name": "CannotReplaceFunctionThatDoesNotExists",
      "type": "error"
    },
    {
      "inputs": [
        {
          "internalType": "bytes4",
          "name": "_selector",
          "type": "bytes4"
        }
      ],
      "name": "CannotReplaceFunctionWithTheSameFunctionFromTheSameFacet",
      "type": "error"
    },
    {
      "inputs": [
        {
          "internalType": "bytes4[]",
          "name": "_selectors",
          "type": "bytes4[]"
        }
      ],
      "name": "CannotReplaceFunctionsFromFacetWithZeroAddress",
      "type": "error"
    },
    {
      "inputs": [
        {
          "internalType": "bytes4",
          "name": "_selector",
          "type": "bytes4"
        }
      ],
      "name": "CannotReplaceImmutableFunction",
      "type": "error"
    },
    {
      "inputs": [
        {
          "internalType": "uint8",
          "name": "_action",
          "type": "uint8"
        }
      ],
      "name": "IncorrectFacetCutAction",
      "type": "error"
    },
    {
      "inputs": [
        {
          "internalType": "address",
          "name": "_initializationContractAddress",
          "type": "address"
        },
        {
          "internalType": "bytes",
          "name": "_calldata",
          "type": "bytes"
        }
      ],
      "name": "InitializationFunctionReverted",
      "type": "error"
    },
    {
      "inputs": [
        {
          "internalType": "address",
          "name": "_contractAddress",
          "type": "address"
        },
        {
          "internalType": "string",
          "name": "_message",
          "type": "string"
        }
      ],
      "name": "NoBytecodeAtAddress",
      "type": "error"
    },
    {
      "inputs": [
        {
          "internalType": "address",
          "name": "_facetAddress",
          "type": "address"
        }
      ],
      "name": "NoSelectorsProvidedForFacetForCut",
      "type": "error"
    },
    {
      "inputs": [
        {
          "internalType": "address",
          "name": "_user",
          "type": "address"
        },
        {
          "internalType": "address",
          "name": "_contractOwner",
          "type": "address"
        }
      ],
      "name": "NotContractOwner",
      "type": "error"
    },
    {
      "inputs": [
        {
          "internalType": "address",
          "name": "_facetAddress",
          "type": "address"
        }
      ],
      "name": "RemoveFacetAddressMustBeZeroAddress",
      "type": "error"
    },
    {
      "anonymous": false,
      "inputs": [
        {
          "components": [
            {
              "internalType": "address",
              "name": "facetAddress",
              "type": "address"
            },
            {
              "internalType": "enum IDiamond.FacetCutAction",
              "name": "action",
              "type": "uint8"
            },
            {
              "internalType": "bytes4[]",
              "name": "functionSelectors",
              "type": "bytes4[]"
            }
          ],
          "indexed": false,
          "internalType": "struct IDiamond.FacetCut[]",
          "name": "_diamondCut",
          "type": "tuple[]"
        },
        {
          "indexed": false,
          "internalType": "address",
          "name": "_init",
          "type": "address"
        },
        {
          "indexed": false,
          "internalType": "bytes",
          "name": "_calldata",
          "type": "bytes"
        }
      ],
      "name": "DiamondCut",
      "type": "event"
    },
    {
      "anonymous": false,
      "inputs": [
        {
          "components": [
            {
              "internalType": "address",
              "name": "facetAddress",
              "type": "address"
            },
            {
              "internalType": "enum IDiamond.FacetCutAction",
              "name": "action",
              "type": "uint8"
            },
            {
              "internalType": "bytes4[]",
              "name": "functionSelectors",
              "type": "bytes4[]"
            }
          ],
          "indexed": false,
          "internalType": "struct IDiamond.FacetCut[]",
          "name": "_diamondCut",
          "type": "tuple[]"
        },
        {
          "indexed": false,
          "internalType": "address",
          "name": "_init",
          "type": "address"
        },
        {
          "indexed": false,
          "internalType": "bytes",
          "name": "_calldata",
          "type": "bytes"
        }
      ],
      "name": "DiamondCut",
      "type": "event"
    },
    {
      "inputs": [
        {
          "components": [
            {
              "internalType": "address",
              "name": "facetAddress",
              "type": "address"
            },
            {
              "internalType": "enum IDiamond.FacetCutAction",
              "name": "action",
              "type": "uint8"
            },
            {
              "internalType": "bytes4[]",
              "name": "functionSelectors",
              "type": "bytes4[]"
            }
          ],
          "internalType": "struct IDiamond.FacetCut[]",
          "name": "_diamondCut",
          "type": "tuple[]"
        },
        {
          "internalType": "address",
          "name": "_init",
          "type": "address"
        },
        {
          "internalType": "bytes",
          "name": "_calldata",
          "type": "bytes"
        }
      ],
      "name": "diamondCut",
      "outputs": [],
      "stateMutability": "nonpayable",
      "type": "function"
    }
  ],
  "bytecode": "0x6080806040523461001657610d34908161001c8239f35b600080fdfe608080604052600436101561001357600080fd5b60003560e01c631f931c1c1461002857600080fd5b346109ee5760603660031901126109ee5767ffffffffffffffff600435116109ee573660236004350112156109ee5767ffffffffffffffff60043560040135116109ee573660246004356004013560051b6004350101116109ee576024356001600160a01b03811690036109ee5767ffffffffffffffff604435116109ee573660236044350112156109ee5767ffffffffffffffff60443560040135116109ee57366024604435600401356044350101116109ee577fc8fcad8db84d3cc18b4c41d551ea0ee66dd599cde068d998e57d5e09332c131f546001600160a01b031690338290036109f35761012861012360043560040135610a73565b610a4d565b6020816004356004013581520180602460043501905b60246004356004013560051b600435010182106108b457828461016961012360443560040135610a8b565b60443560048101358083529192919060240160208401376000602060443560040135840101526000915b81518310156107985760406101a88484610aa7565b510151906001600160a01b036101be8585610aa7565b5151169282511561077f5760206101d58683610aa7565b510151600381101561076957806103f1575083156103d25761ffff600080516020610cdf83398151915254169161024a61020d610a2d565b602481527f4c69624469616d6f6e644375743a2041646420666163657420686173206e6f20602082015263636f646560e01b604082015286610c7f565b6000925b84518410156103bc576001600160e01b031961026a8587610aa7565b51166000818152600080516020610cbf83398151915260205260409020546001600160a01b03166103a4576102fc6102a0610a0d565b88815261ffff841660208083019182526000858152600080516020610cbf833981519152909152604090209151825491516001600160b01b03199092166001600160a01b03919091161760a09190911b61ffff60a01b16179055565b600080516020610cdf83398151915254906801000000000000000082101561038e5761035d90610340600193848101600080516020610cdf83398151915255610b11565b90919063ffffffff83549160031b9260e01c831b921b1916179055565b61ffff808316146103785761ffff600192160193019261024e565b634e487b7160e01b600052601160045260246000fd5b634e487b7160e01b600052604160045260246000fd5b6024906040519063ebbf5d0760e01b82526004820152fd5b50949150949250600191505b0191929092610193565b6040516302b8da0760e21b8152806103ed8560048301610b5d565b0390fd5b93959293909190600181036105535750851561053857610453610412610a2d565b602881527f4c69624469616d6f6e644375743a205265706c61636520666163657420686173602082015267206e6f20636f646560c01b604082015287610c7f565b60005b8451811015610529576001600160e01b03196104728287610aa7565b51166000818152600080516020610cbf83398151915260205260409020546001600160a01b0316308114610510578881146104f757156104df576000908152600080516020610cbf8339815191526020526040902080546001600160a01b03191688179055600101610456565b60249060405190637479f93960e01b82526004820152fd5b604051631ac6ce8d60e11b815260048101839052602490fd5b604051632901806d60e11b815260048101839052602490fd5b509390945060019192506103c8565b60405163cd98a96f60e01b8152806103ed8660048301610b5d565b6002810361074d5750600080516020610cdf833981519152549580610735575060005b8451811015610529576001600160e01b03196105928287610aa7565b51169081600052600080516020610cbf8339815191526020526040600020976105b9610a0d565b98546001600160a01b038116808b5260a09190911c61ffff1660208b01521561071c5788516001600160a01b031630146107035780156103785760001901978861ffff60208301511603610688575b50600080516020610cdf83398151915254918215610672576001926000190161063081610b11565b63ffffffff82549160031b1b19169055600080516020610cdf83398151915255600052600080516020610cbf8339815191526020526000604081205501610576565b634e487b7160e01b600052603160045260246000fd5b6106fd9061ffff602061069a8c610b11565b90549060031b1c60e01b926106b784610340858585015116610b11565b01516001600160e01b03199092166000908152600080516020610cbf83398151915260205260409020805461ffff60a01b19169190921660a01b61ffff60a01b16179055565b88610608565b604051630df5fd6160e31b815260048101849052602490fd5b604051637a08a22d60e01b815260048101849052602490fd5b6024906040519063d091bc8160e01b82526004820152fd5b604051633ff4d20f60e11b815260ff9091166004820152602490fd5b634e487b7160e01b600052602160045260246000fd5b60405163e767f91f60e01b815260048101859052602490fd5b91506040519060608201906060835251809152608082019060808160051b84010194916000905b82821061081d576024356001600160a01b03166020860152848703604086015261081b867f8faa70878671ccd212d20771b795c50af8fd3ff6cf27f4bde57e5d4de0aeb67387806108108c85610ad1565b0390a1602435610ba3565b005b848703607f19018152835180516001600160a01b03168852602081015194979394929391929060038210156107695760409160208401520151906060604082015260206080835192836060820152019201906000905b808210610891575050506020806001929801920192019092916107bf565b82516001600160e01b031916845260209384019390920191600190910190610873565b813567ffffffffffffffff81116109ee5760606004358201360360231901126109ee576040519081606081011067ffffffffffffffff60608401111761038e57606082016040526004358101602401356001600160a01b03811681036109ee578252600360448260043501013510156109ee576004358101604481013560208401526064013567ffffffffffffffff81116109ee57366043828460043501010112156109ee57602481836004350101013561097161012382610a73565b9260208483815201903660448460051b868460043501010101116109ee5760448482600435010101915b60448460051b86846004350101010183106109cb575050505050918160209360408594015281520191019061013e565b82356001600160e01b0319811690036109ee57823581526020928301920161099b565b600080fd5b60449163ff4127cb60e01b82523360048301526024820152fd5b604051906040820182811067ffffffffffffffff82111761038e57604052565b604051906060820182811067ffffffffffffffff82111761038e57604052565b6040519190601f01601f1916820167ffffffffffffffff81118382101761038e57604052565b67ffffffffffffffff811161038e5760051b60200190565b67ffffffffffffffff811161038e57601f01601f191660200190565b8051821015610abb5760209160051b010190565b634e487b7160e01b600052603260045260246000fd5b919082519283825260005b848110610afd575050826000602080949584010152601f8019910116010190565b602081830181015184830182015201610adc565b90600080516020610cdf8339815191528054831015610abb57600052601c8260031c7fc0d727610ea16241eff4447d08bb1b4595f7d2ec4515282437a13b7d0df4b922019260021b1690565b602090602060408183019282815285518094520193019160005b828110610b85575050505090565b83516001600160e01b03191685529381019392810192600101610b77565b6001600160a01b03811691908215610c7a5760008091610c05610bc4610a2d565b602881527f4c69624469616d6f6e644375743a205f696e6974206164647265737320686173602082015267206e6f20636f646560c01b604082015282610c7f565b83519060208501905af4913d15610c72573d92610c2461012385610a8b565b9384523d6000602086013e5b15610c3a57505050565b825115610c4957825160208401fd5b6103ed60405192839263192105d760e01b84526004840152604060248401526044830190610ad1565b606092610c30565b505050565b803b15610c8a575050565b6040805163919834b960e01b81526001600160a01b03909216600483015260248201529081906103ed906044830190610ad156fec8fcad8db84d3cc18b4c41d551ea0ee66dd599cde068d998e57d5e09332c131cc8fcad8db84d3cc18b4c41d551ea0ee66dd599cde068d998e57d5e09332c131da2646970667358221220c3b2e76635e95fd320a97d511c8f2e1c0b37e878bef06dd1474884616ef795e464736f6c63430008170033",
  "linkReferences": {},
  "deployedLinkReferences": {}
}