{
  "_format": "hh-sol-artifact-1",
  "contractName": "TransactFacet",
  "sourceName": "contracts/diamond/facets/custom/TransactFacet.sol",
  "abi": [
    {
      "inputs": [],
      "name": "ECDSAInvalidSignature",
      "type": "error"
    },
    {
      "inputs": [
        {
          "internalType": "uint256",
          "name": "length",
          "type": "uint256"
        }
      ],
      "name": "ECDSAInvalidSignatureLength",
      "type": "error"
    },
    {
      "inputs": [
        {
          "internalType": "bytes32",
          "name": "s",
          "type": "bytes32"
        }
      ],
      "name": "ECDSAInvalidSignatureS",
      "type": "error"
    },
    {
      "inputs": [],
      "name": "ReentrancyGuardReentrantCall",
      "type": "error"
    },
    {
      "anonymous": false,
      "inputs": [
        {
          "indexed": false,
          "internalType": "bytes32",
          "name": "orderHash",
          "type": "bytes32"
        },
        {
          "indexed": true,
          "internalType": "address",
          "name": "offerer",
          "type": "address"
        },
        {
          "indexed": false,
          "internalType": "uint8",
          "name": "orderType",
          "type": "uint8"
        }
      ],
      "name": "OrderCanceled",
      "type": "event"
    },
    {
      "anonymous": false,
      "inputs": [
        {
          "indexed": true,
          "internalType": "address",
          "name": "offerer",
          "type": "address"
        },
        {
          "indexed": false,
          "internalType": "uint256",
          "name": "canceledAt",
          "type": "uint256"
        }
      ],
      "name": "OrderCanceledAll",
      "type": "event"
    },
    {
      "anonymous": false,
      "inputs": [
        {
          "indexed": false,
          "internalType": "bytes32",
          "name": "orderHash",
          "type": "bytes32"
        },
        {
          "indexed": true,
          "internalType": "address",
          "name": "nftReceiver",
          "type": "address"
        },
        {
          "indexed": true,
          "internalType": "address",
          "name": "nftSeller",
          "type": "address"
        },
        {
          "indexed": true,
          "internalType": "address",
          "name": "nftAddress",
          "type": "address"
        },
        {
          "indexed": false,
          "internalType": "uint256",
          "name": "tokenId",
          "type": "uint256"
        },
        {
          "indexed": false,
          "internalType": "uint8",
          "name": "orderType",
          "type": "uint8"
        },
        {
          "indexed": false,
          "internalType": "uint256",
          "name": "price",
          "type": "uint256"
        },
        {
          "indexed": false,
          "internalType": "uint256",
          "name": "platformFee",
          "type": "uint256"
        }
      ],
      "name": "OrderFulfilled",
      "type": "event"
    },
    {
      "inputs": [
        {
          "components": [
            {
              "components": [
                {
                  "internalType": "address payable",
                  "name": "offerer",
                  "type": "address"
                },
                {
                  "internalType": "enum TransactFacet.BasicOrderType",
                  "name": "orderType",
                  "type": "uint8"
                },
                {
                  "components": [
                    {
                      "internalType": "enum TransactFacet.ItemType",
                      "name": "itemType",
                      "type": "uint8"
                    },
                    {
                      "internalType": "address",
                      "name": "tokenAddress",
                      "type": "address"
                    },
                    {
                      "internalType": "uint256",
                      "name": "identifier",
                      "type": "uint256"
                    },
                    {
                      "internalType": "uint256",
                      "name": "amount",
                      "type": "uint256"
                    }
                  ],
                  "internalType": "struct TransactFacet.Item",
                  "name": "offer",
                  "type": "tuple"
                },
                {
                  "components": [
                    {
                      "internalType": "enum TransactFacet.ItemType",
                      "name": "itemType",
                      "type": "uint8"
                    },
                    {
                      "internalType": "address",
                      "name": "tokenAddress",
                      "type": "address"
                    },
                    {
                      "internalType": "uint256",
                      "name": "identifier",
                      "type": "uint256"
                    },
                    {
                      "internalType": "uint256",
                      "name": "amount",
                      "type": "uint256"
                    }
                  ],
                  "internalType": "struct TransactFacet.Item",
                  "name": "consideration",
                  "type": "tuple"
                },
                {
                  "internalType": "address payable",
                  "name": "royaltyReceiver",
                  "type": "address"
                },
                {
                  "internalType": "uint256",
                  "name": "royaltyPercentageIn10000",
                  "type": "uint256"
                },
                {
                  "internalType": "uint256",
                  "name": "startTime",
                  "type": "uint256"
                },
                {
                  "internalType": "uint256",
                  "name": "endTime",
                  "type": "uint256"
                },
                {
                  "internalType": "uint256",
                  "name": "createdTime",
                  "type": "uint256"
                }
              ],
              "internalType": "struct TransactFacet.OrderParameters",
              "name": "parameters",
              "type": "tuple"
            },
            {
              "internalType": "bytes",
              "name": "signature",
              "type": "bytes"
            }
          ],
          "internalType": "struct TransactFacet.Order",
          "name": "order",
          "type": "tuple"
        },
        {
          "internalType": "uint256",
          "name": "royaltyPercentageIn10000",
          "type": "uint256"
        },
        {
          "internalType": "uint256",
          "name": "nftIdentifier",
          "type": "uint256"
        }
      ],
      "name": "acceptCollectionOffer",
      "outputs": [],
      "stateMutability": "nonpayable",
      "type": "function"
    },
    {
      "inputs": [
        {
          "components": [
            {
              "components": [
                {
                  "internalType": "address payable",
                  "name": "offerer",
                  "type": "address"
                },
                {
                  "internalType": "enum TransactFacet.BasicOrderType",
                  "name": "orderType",
                  "type": "uint8"
                },
                {
                  "components": [
                    {
                      "internalType": "enum TransactFacet.ItemType",
                      "name": "itemType",
                      "type": "uint8"
                    },
                    {
                      "internalType": "address",
                      "name": "tokenAddress",
                      "type": "address"
                    },
                    {
                      "internalType": "uint256",
                      "name": "identifier",
                      "type": "uint256"
                    },
                    {
                      "internalType": "uint256",
                      "name": "amount",
                      "type": "uint256"
                    }
                  ],
                  "internalType": "struct TransactFacet.Item",
                  "name": "offer",
                  "type": "tuple"
                },
                {
                  "components": [
                    {
                      "internalType": "enum TransactFacet.ItemType",
                      "name": "itemType",
                      "type": "uint8"
                    },
                    {
                      "internalType": "address",
                      "name": "tokenAddress",
                      "type": "address"
                    },
                    {
                      "internalType": "uint256",
                      "name": "identifier",
                      "type": "uint256"
                    },
                    {
                      "internalType": "uint256",
                      "name": "amount",
                      "type": "uint256"
                    }
                  ],
                  "internalType": "struct TransactFacet.Item",
                  "name": "consideration",
                  "type": "tuple"
                },
                {
                  "internalType": "address payable",
                  "name": "royaltyReceiver",
                  "type": "address"
                },
                {
                  "internalType": "uint256",
                  "name": "royaltyPercentageIn10000",
                  "type": "uint256"
                },
                {
                  "internalType": "uint256",
                  "name": "startTime",
                  "type": "uint256"
                },
                {
                  "internalType": "uint256",
                  "name": "endTime",
                  "type": "uint256"
                },
                {
                  "internalType": "uint256",
                  "name": "createdTime",
                  "type": "uint256"
                }
              ],
              "internalType": "struct TransactFacet.OrderParameters",
              "name": "parameters",
              "type": "tuple"
            },
            {
              "internalType": "bytes",
              "name": "signature",
              "type": "bytes"
            }
          ],
          "internalType": "struct TransactFacet.Order",
          "name": "order",
          "type": "tuple"
        },
        {
          "internalType": "uint256",
          "name": "royaltyPercentageIn10000",
          "type": "uint256"
        }
      ],
      "name": "acceptOrder",
      "outputs": [],
      "stateMutability": "payable",
      "type": "function"
    },
    {
      "inputs": [
        {
          "components": [
            {
              "components": [
                {
                  "internalType": "address payable",
                  "name": "offerer",
                  "type": "address"
                },
                {
                  "internalType": "enum TransactFacet.BasicOrderType",
                  "name": "orderType",
                  "type": "uint8"
                },
                {
                  "components": [
                    {
                      "internalType": "enum TransactFacet.ItemType",
                      "name": "itemType",
                      "type": "uint8"
                    },
                    {
                      "internalType": "address",
                      "name": "tokenAddress",
                      "type": "address"
                    },
                    {
                      "internalType": "uint256",
                      "name": "identifier",
                      "type": "uint256"
                    },
                    {
                      "internalType": "uint256",
                      "name": "amount",
                      "type": "uint256"
                    }
                  ],
                  "internalType": "struct TransactFacet.Item",
                  "name": "offer",
                  "type": "tuple"
                },
                {
                  "components": [
                    {
                      "internalType": "enum TransactFacet.ItemType",
                      "name": "itemType",
                      "type": "uint8"
                    },
                    {
                      "internalType": "address",
                      "name": "tokenAddress",
                      "type": "address"
                    },
                    {
                      "internalType": "uint256",
                      "name": "identifier",
                      "type": "uint256"
                    },
                    {
                      "internalType": "uint256",
                      "name": "amount",
                      "type": "uint256"
                    }
                  ],
                  "internalType": "struct TransactFacet.Item",
                  "name": "consideration",
                  "type": "tuple"
                },
                {
                  "internalType": "address payable",
                  "name": "royaltyReceiver",
                  "type": "address"
                },
                {
                  "internalType": "uint256",
                  "name": "royaltyPercentageIn10000",
                  "type": "uint256"
                },
                {
                  "internalType": "uint256",
                  "name": "startTime",
                  "type": "uint256"
                },
                {
                  "internalType": "uint256",
                  "name": "endTime",
                  "type": "uint256"
                },
                {
                  "internalType": "uint256",
                  "name": "createdTime",
                  "type": "uint256"
                }
              ],
              "internalType": "struct TransactFacet.OrderParameters",
              "name": "parameters",
              "type": "tuple"
            },
            {
              "internalType": "bytes",
              "name": "signature",
              "type": "bytes"
            }
          ],
          "internalType": "struct TransactFacet.Order[]",
          "name": "orders",
          "type": "tuple[]"
        },
        {
          "internalType": "uint256[]",
          "name": "royaltyPercentagesIn10000",
          "type": "uint256[]"
        }
      ],
      "name": "batchAcceptOrder",
      "outputs": [],
      "stateMutability": "payable",
      "type": "function"
    },
    {
      "inputs": [],
      "name": "cancelAllOrders",
      "outputs": [],
      "stateMutability": "nonpayable",
      "type": "function"
    },
    {
      "inputs": [
        {
          "components": [
            {
              "components": [
                {
                  "internalType": "address payable",
                  "name": "offerer",
                  "type": "address"
                },
                {
                  "internalType": "enum TransactFacet.BasicOrderType",
                  "name": "orderType",
                  "type": "uint8"
                },
                {
                  "components": [
                    {
                      "internalType": "enum TransactFacet.ItemType",
                      "name": "itemType",
                      "type": "uint8"
                    },
                    {
                      "internalType": "address",
                      "name": "tokenAddress",
                      "type": "address"
                    },
                    {
                      "internalType": "uint256",
                      "name": "identifier",
                      "type": "uint256"
                    },
                    {
                      "internalType": "uint256",
                      "name": "amount",
                      "type": "uint256"
                    }
                  ],
                  "internalType": "struct TransactFacet.Item",
                  "name": "offer",
                  "type": "tuple"
                },
                {
                  "components": [
                    {
                      "internalType": "enum TransactFacet.ItemType",
                      "name": "itemType",
                      "type": "uint8"
                    },
                    {
                      "internalType": "address",
                      "name": "tokenAddress",
                      "type": "address"
                    },
                    {
                      "internalType": "uint256",
                      "name": "identifier",
                      "type": "uint256"
                    },
                    {
                      "internalType": "uint256",
                      "name": "amount",
                      "type": "uint256"
                    }
                  ],
                  "internalType": "struct TransactFacet.Item",
                  "name": "consideration",
                  "type": "tuple"
                },
                {
                  "internalType": "address payable",
                  "name": "royaltyReceiver",
                  "type": "address"
                },
                {
                  "internalType": "uint256",
                  "name": "royaltyPercentageIn10000",
                  "type": "uint256"
                },
                {
                  "internalType": "uint256",
                  "name": "startTime",
                  "type": "uint256"
                },
                {
                  "internalType": "uint256",
                  "name": "endTime",
                  "type": "uint256"
                },
                {
                  "internalType": "uint256",
                  "name": "createdTime",
                  "type": "uint256"
                }
              ],
              "internalType": "struct TransactFacet.OrderParameters",
              "name": "parameters",
              "type": "tuple"
            },
            {
              "internalType": "bytes",
              "name": "signature",
              "type": "bytes"
            }
          ],
          "internalType": "struct TransactFacet.Order",
          "name": "order",
          "type": "tuple"
        }
      ],
      "name": "cancelOrder",
      "outputs": [],
      "stateMutability": "nonpayable",
      "type": "function"
    },
    {
      "inputs": [
        {
          "components": [
            {
              "internalType": "address payable",
              "name": "offerer",
              "type": "address"
            },
            {
              "internalType": "enum TransactFacet.BasicOrderType",
              "name": "orderType",
              "type": "uint8"
            },
            {
              "components": [
                {
                  "internalType": "enum TransactFacet.ItemType",
                  "name": "itemType",
                  "type": "uint8"
                },
                {
                  "internalType": "address",
                  "name": "tokenAddress",
                  "type": "address"
                },
                {
                  "internalType": "uint256",
                  "name": "identifier",
                  "type": "uint256"
                },
                {
                  "internalType": "uint256",
                  "name": "amount",
                  "type": "uint256"
                }
              ],
              "internalType": "struct TransactFacet.Item",
              "name": "offer",
              "type": "tuple"
            },
            {
              "components": [
                {
                  "internalType": "enum TransactFacet.ItemType",
                  "name": "itemType",
                  "type": "uint8"
                },
                {
                  "internalType": "address",
                  "name": "tokenAddress",
                  "type": "address"
                },
                {
                  "internalType": "uint256",
                  "name": "identifier",
                  "type": "uint256"
                },
                {
                  "internalType": "uint256",
                  "name": "amount",
                  "type": "uint256"
                }
              ],
              "internalType": "struct TransactFacet.Item",
              "name": "consideration",
              "type": "tuple"
            },
            {
              "internalType": "address payable",
              "name": "royaltyReceiver",
              "type": "address"
            },
            {
              "internalType": "uint256",
              "name": "royaltyPercentageIn10000",
              "type": "uint256"
            },
            {
              "internalType": "uint256",
              "name": "startTime",
              "type": "uint256"
            },
            {
              "internalType": "uint256",
              "name": "endTime",
              "type": "uint256"
            },
            {
              "internalType": "uint256",
              "name": "createdTime",
              "type": "uint256"
            }
          ],
          "internalType": "struct TransactFacet.OrderParameters",
          "name": "orderParameters",
          "type": "tuple"
        }
      ],
      "name": "createOrderHash",
      "outputs": [
        {
          "internalType": "bytes32",
          "name": "",
          "type": "bytes32"
        }
      ],
      "stateMutability": "view",
      "type": "function"
    },
    {
      "inputs": [],
      "name": "domain",
      "outputs": [
        {
          "internalType": "string",
          "name": "name",
          "type": "string"
        },
        {
          "internalType": "string",
          "name": "version",
          "type": "string"
        },
        {
          "internalType": "uint256",
          "name": "chainId",
          "type": "uint256"
        },
        {
          "internalType": "address",
          "name": "verifyingContract",
          "type": "address"
        }
      ],
      "stateMutability": "view",
      "type": "function"
    },
    {
      "inputs": [],
      "name": "getDomainSeparator",
      "outputs": [
        {
          "internalType": "bytes32",
          "name": "",
          "type": "bytes32"
        }
      ],
      "stateMutability": "view",
      "type": "function"
    },
    {
      "inputs": [
        {
          "internalType": "address",
          "name": "user",
          "type": "address"
        }
      ],
      "name": "isPremiumHolder",
      "outputs": [
        {
          "internalType": "bool",
          "name": "",
          "type": "bool"
        }
      ],
      "stateMutability": "view",
      "type": "function"
    },
    {
      "inputs": [
        {
          "components": [
            {
              "components": [
                {
                  "internalType": "address payable",
                  "name": "offerer",
                  "type": "address"
                },
                {
                  "internalType": "enum TransactFacet.BasicOrderType",
                  "name": "orderType",
                  "type": "uint8"
                },
                {
                  "components": [
                    {
                      "internalType": "enum TransactFacet.ItemType",
                      "name": "itemType",
                      "type": "uint8"
                    },
                    {
                      "internalType": "address",
                      "name": "tokenAddress",
                      "type": "address"
                    },
                    {
                      "internalType": "uint256",
                      "name": "identifier",
                      "type": "uint256"
                    },
                    {
                      "internalType": "uint256",
                      "name": "amount",
                      "type": "uint256"
                    }
                  ],
                  "internalType": "struct TransactFacet.Item",
                  "name": "offer",
                  "type": "tuple"
                },
                {
                  "components": [
                    {
                      "internalType": "enum TransactFacet.ItemType",
                      "name": "itemType",
                      "type": "uint8"
                    },
                    {
                      "internalType": "address",
                      "name": "tokenAddress",
                      "type": "address"
                    },
                    {
                      "internalType": "uint256",
                      "name": "identifier",
                      "type": "uint256"
                    },
                    {
                      "internalType": "uint256",
                      "name": "amount",
                      "type": "uint256"
                    }
                  ],
                  "internalType": "struct TransactFacet.Item",
                  "name": "consideration",
                  "type": "tuple"
                },
                {
                  "internalType": "address payable",
                  "name": "royaltyReceiver",
                  "type": "address"
                },
                {
                  "internalType": "uint256",
                  "name": "royaltyPercentageIn10000",
                  "type": "uint256"
                },
                {
                  "internalType": "uint256",
                  "name": "startTime",
                  "type": "uint256"
                },
                {
                  "internalType": "uint256",
                  "name": "endTime",
                  "type": "uint256"
                },
                {
                  "internalType": "uint256",
                  "name": "createdTime",
                  "type": "uint256"
                }
              ],
              "internalType": "struct TransactFacet.OrderParameters",
              "name": "parameters",
              "type": "tuple"
            },
            {
              "internalType": "bytes",
              "name": "signature",
              "type": "bytes"
            }
          ],
          "internalType": "struct TransactFacet.Order",
          "name": "order",
          "type": "tuple"
        },
        {
          "internalType": "bytes32",
          "name": "orderHash",
          "type": "bytes32"
        }
      ],
      "name": "validateOrder",
      "outputs": [
        {
          "internalType": "bool",
          "name": "",
          "type": "bool"
        }
      ],
      "stateMutability": "view",
      "type": "function"
    },
    {
      "inputs": [
        {
          "internalType": "bytes32",
          "name": "fullHash",
          "type": "bytes32"
        },
        {
          "internalType": "bytes",
          "name": "_signature",
          "type": "bytes"
        },
        {
          "internalType": "address",
          "name": "signer",
          "type": "address"
        }
      ],
      "name": "verifySignature",
      "outputs": [
        {
          "internalType": "bool",
          "name": "",
          "type": "bool"
        }
      ],
      "stateMutability": "view",
      "type": "function"
    }
  ],
  "bytecode": "0x6080806040523461001b57600160005561257d90816100218239f35b600080fdfe6040608081526004908136101561001557600080fd5b600091823560e01c908163018eeaa514610aba578163028afabf14610a2e578163288adf7b146109ef5781632952ea961461088e57816331cd419914610837578163525f1af9146105dd5781635bbf056d146103d5578163c2fb26a6146101bc578163c49366e41461017f578163e6025984146100c2575063ed24911d1461009c57600080fd5b346100be57816003193601126100be576020906100b76116e1565b9051908152f35b5080fd5b9190503461017b57606036600319011261017b5781356001600160401b03811161017757610170926100f691369101610d69565b61011260ff600080516020612528833981519152541615610e21565b61011a611986565b61012481516111c7565b9161013260243584846119a9565b50610156600260208451015161014781610e62565b61015081610e62565b146115af565b600160208351015260443590606083510151015251611a7f565b6001815580f35b8380fd5b8280fd5b90503461017b57602036600319011261017b5735916001600160a01b03831683036101b957506101b060209261163e565b90519015158152f35b80fd5b5050346100be57816003193601126100be57805190827fc48fed42ba98a7f089dad48ac4009ba5d776a9dfb9f8c82b0294ff480536a1d68054908461020083611604565b9687825260209788936001956001811690816000146103b4575060011461035b575b505061023092500385610bc0565b82519180917fc48fed42ba98a7f089dad48ac4009ba5d776a9dfb9f8c82b0294ff480536a1d79182549261026384611604565b808752936001811690811561033757506001146102e3575b505050506102c894610292836102d5930384610bc0565b7fc48fed42ba98a7f089dad48ac4009ba5d776a9dfb9f8c82b0294ff480536a1d154928451968796608088526080880190610dfc565b9186830390870152610dfc565b918301523060608301520390f35b815292507f9b577b1dca36d251fc0d10a64d6ba6744cdf4dd6331a4b8f4cd5f72aa612ee995b828410610324575050508101840184610292836102d561027b565b8054858501890152928701928101610309565b60ff19168a88015250505050151560051b82018501905084610292836102d561027b565b8652859150847fa7c590f74a9713156d45a9875fbfc880128193c469bf7a6f2b9cfd8e4a4689ef5b82841061039d575050509161023092820101879238610222565b80548a850187015289945092850192869101610383565b91505061023094925060ff191682840152151560051b820101879238610222565b9190503461017b5760209060031982813601126105d95783356001600160401b0380821161054b5781860195610200833603948501126105d55761042b60ff600080516020612528833981519152541615610e21565b61043d6104383689610c58565b6111c7565b968789527fc48fed42ba98a7f089dad48ac4009ba5d776a9dfb9f8c82b0294ff480536a1d99182885260ff878b20541661059a5761047a826115f0565b6001600160a01b0396903390881603610557576101e486013590602219018112156105535785019081013593841161054f5760240191833603831361054f576104e96104e4602495886104db610501976104d3886115f0565b933691610d14565b9116908c611488565b610ece565b888a528752858920805460ff191660011790556115f0565b91013593600385101561054b5760ff8561053b7f852e66ec76c64e001ca496b09325650f6c3d0df0c38d607e0a2ce8996fb4d68997610e62565b855197885216908601521692a280f35b8680fd5b8980fd5b8a80fd5b875162461bcd60e51b81528083018a9052601d60248201527f4f6e6c79206f7264657265722063616e2063616e63656c206f726465720000006044820152606490fd5b865162461bcd60e51b8152908101889052601560248201527413dc99195c88185b1c9958591e4818db185a5b5959605a1b6044820152606490fd5b8780fd5b8480fd5b90508160031936011261017b578035906001600160401b03908183116105d957366023840112156105d957828101359360249061061986610dc2565b9461062682519687610bc0565b868652602096838888019160051b8301019136831161054f57848101915b83831061080d5750505050813593841161054b573660238501121561054b57838301359361067185610dc2565b9461067e83519687610bc0565b808652838887019160051b8301019136831161054f5784899101915b8383106107fd57505050506106c160ff600080516020612528833981519152541615610e21565b6106c9611986565b84518451036107a5575050508380945b8351861015610709576107016001916060806106f58a89611562565b5151015101519061158c565b9501946106d9565b8461071685923414610e82565b825b825181101561079d578061074e8361073260019487611562565b5151015161073f81610e62565b61074881610e62565b156115af565b61079761076561075e8387611562565b51516111c7565b6107856107728488611562565b518261077e868c611562565b51916119a9565b506107908387611562565b5151611a7f565b01610718565b836001815580f35b5162461bcd60e51b8152918201859052602e908201527f4f726465727320616e6420726f79616c74792070657263656e7461676573206c60448201526d0cadccee8d040dad2e6dac2e8c6d60931b6064820152608490fd5b823581529181019189910161069a565b8235888111610833578a916108288392893691870101610d69565b815201920191610644565b8b80fd5b90503461017b57606036600319011261017b576024356001600160401b038111610177576108689036908301610d4b565b604435939091906001600160a01b03851685036101b95750926101b09160209435611488565b90503461017b576101e036600319011261017b578151926108ae84610b60565b6001600160a01b03918035838116810361017b578552602435600381101561017b57602086015260803660431901126100be5783516001600160401b039060808101828111828210176109dc57865260443560038110156105d957815260643585811681036105d95760208201526084358682015260a43560608201528686015260803660c319011261017b5784519160808301918211838310176109c95750845260c435600381101561017b57815260e435838116810361017b576020820152610104358482015261012435606082015260608501526101443591821682036101b95750826100b791608060209501526101643560a08201526101843560c08201526101a43560e08201526101c4356101008201526111c7565b634e487b7160e01b845260419052602483fd5b634e487b7160e01b855260418452602485fd5b8284346101b957816003193601126101b9578235906001600160401b0382116101b95750610a256020936101b092369101610d69565b60243590610f28565b5050346100be57816003193601126100be57610a5c60ff600080516020612528833981519152541615610e21565b3360009081527fc48fed42ba98a7f089dad48ac4009ba5d776a9dfb9f8c82b0294ff480536a1da60205260409020429055514281527f880fe312b748e1148d1aeb9b7d22f2213cc31844fa038526e4fce9e4d63d951560203392a280f35b9136600319011290506100be5780356001600160401b03811161017b5761017091610ae791369101610d69565b610b0360ff600080516020612528833981519152541615610e21565b610b0b611986565b602081510151610b1a81610e62565b610b2381610e62565b15610b48575b610b3381516111c7565b90610b4160243583836119a9565b5051611a7f565b610b5b6060808351015101513414610e82565b610b29565b61012081019081106001600160401b03821117610b7c57604052565b634e487b7160e01b600052604160045260246000fd5b6001600160401b038111610b7c57604052565b608081019081106001600160401b03821117610b7c57604052565b90601f801991011681019081106001600160401b03821117610b7c57604052565b35906001600160a01b0382168203610bf557565b600080fd5b9190826080910312610bf557604051608081018181106001600160401b03821117610b7c57604052809280356003811015610bf55760609182918452610c4260208201610be1565b6020850152604081013560408501520135910152565b9190916101e081840312610bf55760405190610c7382610b60565b8193610c7e82610be1565b83526020820135916003831015610bf557610cba6101c092610100946020870152610cac8160408501610bfa565b604087015260c08301610bfa565b6060850152610ccc6101408201610be1565b608085015261016081013560a085015261018081013560c08501526101a081013560e08501520135910152565b6001600160401b038111610b7c57601f01601f191660200190565b929192610d2082610cf9565b91610d2e6040519384610bc0565b829481845281830111610bf5578281602093846000960137010152565b9080601f83011215610bf557816020610d6693359101610d14565b90565b91909161020081840312610bf55760408051916001600160401b0391830182811184821017610b7c576040528294610da18183610c58565b84526101e0820135928311610bf557602092610dbd9201610d4b565b910152565b6001600160401b038111610b7c5760051b60200190565b60005b838110610dec5750506000910152565b8181015183820152602001610ddc565b90602091610e1581518092818552858086019101610dd9565b601f01601f1916010190565b15610e2857565b60405162461bcd60e51b815260206004820152601260248201527110dbdb9d1c9858dd081a5cc81c185d5cd95960721b6044820152606490fd5b60031115610e6c57565b634e487b7160e01b600052602160045260246000fd5b15610e8957565b60405162461bcd60e51b815260206004820152601860248201527f496e636f7272656374204554482076616c75652073656e7400000000000000006044820152606490fd5b15610ed557565b60405162461bcd60e51b815260206004820152602560248201527f496e76616c6964207369676e6174757265206f7220696e636f7272656374207360448201526434b3b732b960d91b6064820152608490fd5b6020918282015190610f4a6104e460018060a01b039384865151169084611488565b6000527fc48fed42ba98a7f089dad48ac4009ba5d776a9dfb9f8c82b0294ff480536a1d9835260ff6040600020541661109757815151166001600160a01b031660009081527fc48fed42ba98a7f089dad48ac4009ba5d776a9dfb9f8c82b0294ff480536a1da602052604090205461010082510151111561105e5760c0815101514210611019575160e001514211610fe25750600190565b6064906040519062461bcd60e51b82526004820152601060248201526f13dc99195c881a5cc8195e1c1a5c995960821b6044820152fd5b60405162461bcd60e51b815260048101839052601860248201527f4f72646572206973206e6f7420737461727465642079657400000000000000006044820152606490fd5b60405162461bcd60e51b815260048101839052601160248201527013dc99195c881a5cc818d85b98d95b1959607a1b6044820152606490fd5b60405162461bcd60e51b815260048101849052602160248201527f4f7264657220616c726561647920636c61696d6564206f722063616e63656c656044820152601960fa1b6064820152608490fd5b604051906110f382610ba5565b604b82526a32353620616d6f756e742960a81b6060837f4974656d2875696e7438206974656d547970652c6164647265737320746f6b6560208201527f6e416464726573732c75696e74323536206964656e7469666965722c75696e7460408201520152565b6111616110e6565b60405161118b6020828161117e8183019687815193849201610dd9565b8101038084520182610bc0565b51902090565b9192608093969594919660a084019784526111ab81610e62565b60208401526001600160a01b0316604083015260608201520152565b6111cf6116e1565b90604080519060e08201926001600160401b039383811085821117610b7c57825260bd8352602092838101907f4f72646572506172616d65746572732861646472657373206f6666657265722c82527f75696e7438206f72646572547970652c4974656d206f666665722c4974656d20848201527f636f6e73696465726174696f6e2c6164647265737320726f79616c747952656360608201527f65697665722c75696e7432353620726f79616c747950657263656e746167654960808201527f6e31303030302c75696e7432353620737461727454696d652c75696e7432353660a08201527f20656e6454696d652c75696e74323536206372656174656454696d652900000060c082015261131f856112e76110e6565b9286519384916112ff84840197889251928391610dd9565b820161131382518093868085019101610dd9565b01038084520182610bc0565b51902081518483015191926001600160a01b0391821692919061134183610e62565b611349611159565b91868201928861137f8551519561135f87610e62565b518483820151169060608c820151910151918c5198899586019687611191565b0393611393601f1995868101835282610bc0565b5190209261139f611159565b906113e460608501918b6113d88c855151956113ba87610e62565b5188848201511660608383015192015192519788958601998a611191565b03908101835282610bc0565b5190209060808301511660a08301519160c08401519460e08501519661010080960151988b519c8d019a8b528b8d015261141d81610e62565b60608c015260808b015260a08a015260c089015260e08801528601526101208501526101409081850152835261016083019383851090851117610b7c57836101a29252825190209161018081019461190160f01b865261018282015201526042815261118b81610ba5565b9190813b6114b75761149d906114a6936123ec565b90939193612428565b6001600160a01b0391821691161490565b6020906114e8926040518080958194630b135d3f60e11b988984526004840152604060248401526044830190610dfc565b03916001600160a01b03165afa90811561155657600091611513575b506001600160e01b0319161490565b6020813d60201161154e575b8161152c60209383610bc0565b810103126100be5751906001600160e01b0319821682036101b9575038611504565b3d915061151f565b6040513d6000823e3d90fd5b80518210156115765760209160051b010190565b634e487b7160e01b600052603260045260246000fd5b9190820180921161159957565b634e487b7160e01b600052601160045260246000fd5b156115b657565b60405162461bcd60e51b8152602060048201526012602482015271496e76616c6964206f72646572207479706560701b6044820152606490fd5b356001600160a01b0381168103610bf55790565b90600182811c92168015611634575b602083101461161e57565b634e487b7160e01b600052602260045260246000fd5b91607f1691611613565b7fc48fed42ba98a7f089dad48ac4009ba5d776a9dfb9f8c82b0294ff480536a1d3546001600160a01b03908116919082156116d957602460209260405194859384926370a0823160e01b84521660048301525afa908115611556576000916116a7575b50151590565b90506020813d6020116116d1575b816116c260209383610bc0565b81010312610bf55751386116a1565b3d91506116b5565b505050600090565b60408051602090818101907f454950373132446f6d61696e28737472696e67206e616d652c737472696e672082527f76657273696f6e2c75696e7432353620636861696e49642c61646472657373208482015271766572696679696e67436f6e74726163742960701b60608201526052815261175c81610ba5565b51902091805182810190600091817fc48fed42ba98a7f089dad48ac4009ba5d776a9dfb9f8c82b0294ff480536a1d69384549461179886611604565b906001968960018216918260001461196d575050600114611914575b505003916117ca601f1993848101835282610bc0565b5190209183519085820192826000927fc48fed42ba98a7f089dad48ac4009ba5d776a9dfb9f8c82b0294ff480536a1d79081549161180783611604565b928b6001821691826000146118f4575050600114611897575b5050506118339203908101835282610bc0565b5190207fc48fed42ba98a7f089dad48ac4009ba5d776a9dfb9f8c82b0294ff480536a1d15491835194850195865283850152606084015260808301523060a083015260a0825260c08201908282106001600160401b03831117610b7c575251902090565b600090815294508991907f9b577b1dca36d251fc0d10a64d6ba6744cdf4dd6331a4b8f4cd5f72aa612ee995b8287106118db57505082010192506118333880611820565b805487890185015292909501948693508a9281016118c3565b925093925050611833955060ff1916875280151502820101923880611820565b8892506000527fa7c590f74a9713156d45a9875fbfc880128193c469bf7a6f2b9cfd8e4a4689ef866000915b8383106119545750505082010138806117b4565b80548884018601528795508a9490920191889101611940565b925093505060ff191684528015150282010138806117b4565b600260005414611997576002600055565b604051633ee5aeb560e01b8152600490fd5b9160a0916119b78185610f28565b506000527fc48fed42ba98a7f089dad48ac4009ba5d776a9dfb9f8c82b0294ff480536a1d96020526040600020600160ff198254161790556103e890818111600014611a085750915b510152600190565b905091611a00565b8181029291811591840414171561159957565b90816020910312610bf557516001600160a01b0381168103610bf55790565b9190820391821161159957565b3d15611a7a573d90611a6082610cf9565b91611a6e6040519384610bc0565b82523d6000602084013e565b606090565b7fc48fed42ba98a7f089dad48ac4009ba5d776a9dfb9f8c82b0294ff480536a1d454916020928383018051611ab381610e62565b611abc81610e62565b611e7a57611af960408086019560018060a01b03908882818a510151166060830197606089510151611b066127108099819360a089015190611a10565b049260608c510151611a10565b0496611b337fc48fed42ba98a7f089dad48ac4009ba5d776a9dfb9f8c82b0294ff480536a1d55489611a10565b0490868c510151928751948580926331a9108f60e11b82526004968783015260249788915afa908115611e6f578e600092611e42575b50508680875116911603611e0057611b8f88611b8a8360608e510151611a42565b611a42565b918815158080611df1575b611d7e575b80611d6c575b611d46575b506000808080938960808a0151165af1611bc2611a4f565b5015611d0557600080808093888851165af1611bdc611a4f565b5015611ccf578951848c82015116868686511692015192813b15610bf557600060649281958a5197889687956323b872dd60e01b8752860152339085015260448401525af18015611cc45793837f82b0bc5d9d1df02733f92112e3561dddc9c2426ba4dce7ab403db3bd9858fd46989796948294606094611cb098611cb5575b5051169a519b8c0151169a0151945195611c7587610e62565b611c7e87610e62565b51015190519485943398869160809360ff91979695929760a08501988552602085015216604083015260608201520152565b0390a4565b611cbe90610b92565b38611c5c565b84513d6000823e3d90fd5b60136064928c87519362461bcd60e51b855284015282015272115512081d1c985b9cd9995c8819985a5b1959606a1b6044820152fd5b50601f6064928c87519362461bcd60e51b85528401528201527f526f79616c7479207061796d656e74207472616e73666572206661696c6564006044820152fd5b600080611d6283611d5c8396979d958496611a42565b9c61158c565b9493505050611baa565b50611d798787511661163e565b611ba5565b9881611d8991611a42565b98600080808085335af1611d9b611a4f565b50611b9f5760848f60268888928d519362461bcd60e51b85528401528201527f54616b6572207072656d69756d20636173686261636b207472616e736665722060448201526519985a5b195960d21b6064820152fd5b50611dfb3361163e565b611b9a565b5050601c6064928c87519362461bcd60e51b85528401528201527f4e4654206f776e6572206973206e6f7420746865206f666665726572000000006044820152fd5b611e619250803d10611e68575b611e598183610bc0565b810190611a23565b388e611b69565b503d611e4f565b88513d6000823e3d90fd5b60018194939451611e8a81610e62565b611e9381610e62565b036115b657611ed1606084019360018060a01b03808887510151169160409283820196606088510151611ede6127108098819360a088015190611a10565b049260608b510151611a10565b0495611f0b7fc48fed42ba98a7f089dad48ac4009ba5d776a9dfb9f8c82b0294ff480536a1d55488611a10565b04918b868b51015160248851809481936331a9108f60e11b835260048301525afa90811561218657600091612169575b50843391160361212557611f5886611b8a8360608c510151611a42565b918615158080612116575b6120fa575b806120e8575b6120d1575b5090818b611fa4931515806120c2575b61209f575b505085612083575b83835116903391858d8b5101511690612191565b8651828a82015116908484845116910151823b15610bf557606460009283885195869485936323b872dd60e01b8552336004860152602485015260448401525af18015611cc45793837f82b0bc5d9d1df02733f92112e3561dddc9c2426ba4dce7ab403db3bd9858fd46989796948294606094611cb098612074575b50511699519b8c0151169a015194519561203987610e62565b61204287610e62565b51015190519485943399869160809360ff91979695929760a08501988552602085015216604083015260608201520152565b61207d90610b92565b38612020565b61209a8b878680875116928c510151163092612191565b611f90565b6120bb918680875116928c510151168760808801511692612191565b388b611f88565b50856080860151161515611f83565b6120e090611fa4939297611a42565b959091611f73565b506120f58585511661163e565b611f6e565b92968161210a8161211093611a42565b9861158c565b92611f68565b506121203361163e565b611f63565b845162461bcd60e51b8152600481018c9052601a60248201527f4e4654206f776e6572206973206e6f74207468652074616b65720000000000006044820152606490fd5b61218091508c8d3d10611e6857611e598183610bc0565b38611f3b565b86513d6000823e3d90fd5b929160018060a01b03809216926040918251946370a0823160e01b8652846004971691828888015260209560249787818a81875afa9081156123e1576000916123b4575b508651636eb1769f60e11b81528a8101869052308a820152908882604481885afa918215611e6f57908491600093612381575b501061232a5782116122d15760008794936064938b93895198899788966323b872dd60e01b8852870152168b85015260448401525af19081156122c657600091612290575b50156122595750505050565b5162461bcd60e51b81529283015260159082015274115490cc8c08151c985b9cd9995c8819985a5b1959605a1b6044820152606490fd5b8381813d83116122bf575b6122a58183610bc0565b810103126100be57519081151582036101b957503861224d565b503d61229b565b82513d6000823e3d90fd5b855162461bcd60e51b8152808a01889052602e818a01527f496e73756666696369656e7420616c6c6f77616e636520746f20636f6d706c6560448201526d3a32903a3930b739b0b1ba34b7b760911b6064820152608490fd5b865162461bcd60e51b8152808b01899052602c818b01527f496e73756666696369656e742062616c616e636520746f20636f6d706c65746560448201526b103a3930b739b0b1ba34b7b760a11b6064820152608490fd5b8a809294508193503d83116123ad575b61239b8183610bc0565b81010312610bf5578390519138612208565b503d612391565b90508781813d83116123da575b6123cb8183610bc0565b81010312610bf55751386121d5565b503d6123c1565b87513d6000823e3d90fd5b815191906041830361241d5761241692506020820151906060604084015193015160001a90612497565b9192909190565b505060009160029190565b6004811015610e6c578061243a575050565b600181036124545760405163f645eedf60e01b8152600490fd5b600281036124755760405163fce698f760e01b815260048101839052602490fd5b60031461247f5750565b602490604051906335e2f38360e21b82526004820152fd5b91907f7fffffffffffffffffffffffffffffff5d576e7357a4501ddfe92f46681b20a0841161251b57926020929160ff608095604051948552168484015260408301526060820152600092839182805260015afa1561250f5780516001600160a01b0381161561250657918190565b50809160019190565b604051903d90823e3d90fd5b5050506000916003919056fec48fed42ba98a7f089dad48ac4009ba5d776a9dfb9f8c82b0294ff480536a1d8a264697066735822122088ab1f17f35af1077988045b1334c6594c9e600ac11098993a166e7e8231788564736f6c63430008170033",
  "linkReferences": {},
  "deployedLinkReferences": {}
}